{
	"contracts/MyFirstDAO.sol": {
		"DAO": {
			"abi": [
				{
					"inputs": [],
					"stateMutability": "nonpayable",
					"type": "constructor"
				},
				{
					"anonymous": false,
					"inputs": [
						{
							"indexed": false,
							"internalType": "string",
							"name": "message",
							"type": "string"
						}
					],
					"name": "ProposalAccepted",
					"type": "event"
				},
				{
					"anonymous": false,
					"inputs": [
						{
							"indexed": true,
							"internalType": "uint256",
							"name": "proposalId",
							"type": "uint256"
						},
						{
							"indexed": false,
							"internalType": "string",
							"name": "description",
							"type": "string"
						}
					],
					"name": "ProposalCreated",
					"type": "event"
				},
				{
					"anonymous": false,
					"inputs": [
						{
							"indexed": false,
							"internalType": "string",
							"name": "rejected",
							"type": "string"
						}
					],
					"name": "ProposalRejected",
					"type": "event"
				},
				{
					"anonymous": false,
					"inputs": [
						{
							"indexed": true,
							"internalType": "address",
							"name": "voter",
							"type": "address"
						},
						{
							"indexed": true,
							"internalType": "uint256",
							"name": "proposalId",
							"type": "uint256"
						},
						{
							"indexed": false,
							"internalType": "uint256",
							"name": "tokenAmount",
							"type": "uint256"
						}
					],
					"name": "VoteCast",
					"type": "event"
				},
				{
					"inputs": [
						{
							"internalType": "address",
							"name": "_member",
							"type": "address"
						}
					],
					"name": "addMember",
					"outputs": [],
					"stateMutability": "nonpayable",
					"type": "function"
				},
				{
					"inputs": [
						{
							"internalType": "address",
							"name": "",
							"type": "address"
						}
					],
					"name": "balances",
					"outputs": [
						{
							"internalType": "uint256",
							"name": "",
							"type": "uint256"
						}
					],
					"stateMutability": "view",
					"type": "function"
				},
				{
					"inputs": [
						{
							"internalType": "uint256",
							"name": "_proposalId",
							"type": "uint256"
						},
						{
							"internalType": "uint256",
							"name": "_tokenAmount",
							"type": "uint256"
						},
						{
							"internalType": "bool",
							"name": "_decision",
							"type": "bool"
						}
					],
					"name": "castVote",
					"outputs": [],
					"stateMutability": "nonpayable",
					"type": "function"
				},
				{
					"inputs": [
						{
							"internalType": "string",
							"name": "_description",
							"type": "string"
						}
					],
					"name": "createProposal",
					"outputs": [],
					"stateMutability": "nonpayable",
					"type": "function"
				},
				{
					"inputs": [
						{
							"internalType": "uint256",
							"name": "_proposalId",
							"type": "uint256"
						}
					],
					"name": "executeProposal",
					"outputs": [],
					"stateMutability": "nonpayable",
					"type": "function"
				},
				{
					"inputs": [
						{
							"internalType": "address",
							"name": "",
							"type": "address"
						}
					],
					"name": "isMember",
					"outputs": [
						{
							"internalType": "bool",
							"name": "",
							"type": "bool"
						}
					],
					"stateMutability": "view",
					"type": "function"
				},
				{
					"inputs": [
						{
							"internalType": "address",
							"name": "",
							"type": "address"
						}
					],
					"name": "memberInfo",
					"outputs": [
						{
							"internalType": "address",
							"name": "memberAddress",
							"type": "address"
						},
						{
							"internalType": "uint256",
							"name": "memberSince",
							"type": "uint256"
						},
						{
							"internalType": "uint256",
							"name": "tokenBalance",
							"type": "uint256"
						}
					],
					"stateMutability": "view",
					"type": "function"
				},
				{
					"inputs": [
						{
							"internalType": "uint256",
							"name": "",
							"type": "uint256"
						}
					],
					"name": "members",
					"outputs": [
						{
							"internalType": "address",
							"name": "",
							"type": "address"
						}
					],
					"stateMutability": "view",
					"type": "function"
				},
				{
					"inputs": [],
					"name": "owner",
					"outputs": [
						{
							"internalType": "address",
							"name": "",
							"type": "address"
						}
					],
					"stateMutability": "view",
					"type": "function"
				},
				{
					"inputs": [
						{
							"internalType": "uint256",
							"name": "",
							"type": "uint256"
						}
					],
					"name": "proposals",
					"outputs": [
						{
							"internalType": "string",
							"name": "description",
							"type": "string"
						},
						{
							"internalType": "uint256",
							"name": "voteCount",
							"type": "uint256"
						},
						{
							"internalType": "uint256",
							"name": "yesVotes",
							"type": "uint256"
						},
						{
							"internalType": "uint256",
							"name": "noVotes",
							"type": "uint256"
						},
						{
							"internalType": "bool",
							"name": "executed",
							"type": "bool"
						}
					],
					"stateMutability": "view",
					"type": "function"
				},
				{
					"inputs": [
						{
							"internalType": "address",
							"name": "_member",
							"type": "address"
						}
					],
					"name": "removeMember",
					"outputs": [],
					"stateMutability": "nonpayable",
					"type": "function"
				},
				{
					"inputs": [],
					"name": "totalSupply",
					"outputs": [
						{
							"internalType": "uint256",
							"name": "",
							"type": "uint256"
						}
					],
					"stateMutability": "view",
					"type": "function"
				},
				{
					"inputs": [
						{
							"internalType": "address",
							"name": "",
							"type": "address"
						},
						{
							"internalType": "uint256",
							"name": "",
							"type": "uint256"
						}
					],
					"name": "votes",
					"outputs": [
						{
							"internalType": "bool",
							"name": "",
							"type": "bool"
						}
					],
					"stateMutability": "view",
					"type": "function"
				}
			],
			"devdoc": {
				"kind": "dev",
				"methods": {},
				"version": 1
			},
			"evm": {
				"assembly": "    /* \"contracts/MyFirstDAO.sol\":57:3802  contract DAO {... */\n  mstore(0x40, 0x80)\n    /* \"contracts/MyFirstDAO.sol\":970:1019  constructor() {... */\n  callvalue\n  dup1\n  iszero\n  tag_1\n  jumpi\n  0x00\n  dup1\n  revert\ntag_1:\n  pop\n    /* \"contracts/MyFirstDAO.sol\":1002:1012  msg.sender */\n  caller\n    /* \"contracts/MyFirstDAO.sol\":994:999  owner */\n  0x07\n  0x00\n    /* \"contracts/MyFirstDAO.sol\":994:1012  owner = msg.sender */\n  0x0100\n  exp\n  dup2\n  sload\n  dup2\n  0xffffffffffffffffffffffffffffffffffffffff\n  mul\n  not\n  and\n  swap1\n  dup4\n  0xffffffffffffffffffffffffffffffffffffffff\n  and\n  mul\n  or\n  swap1\n  sstore\n  pop\n    /* \"contracts/MyFirstDAO.sol\":57:3802  contract DAO {... */\n  dataSize(sub_0)\n  dup1\n  dataOffset(sub_0)\n  0x00\n  codecopy\n  0x00\n  return\nstop\n\nsub_0: assembly {\n        /* \"contracts/MyFirstDAO.sol\":57:3802  contract DAO {... */\n      mstore(0x40, 0x80)\n      callvalue\n      dup1\n      iszero\n      tag_1\n      jumpi\n      0x00\n      dup1\n      revert\n    tag_1:\n      pop\n      jumpi(tag_2, lt(calldatasize, 0x04))\n      shr(0xe0, calldataload(0x00))\n      dup1\n      0x5daf08ca\n      gt\n      tag_16\n      jumpi\n      dup1\n      0xa230c524\n      gt\n      tag_17\n      jumpi\n      dup1\n      0xa230c524\n      eq\n      tag_12\n      jumpi\n      dup1\n      0xa313c371\n      eq\n      tag_13\n      jumpi\n      dup1\n      0xca6d56dc\n      eq\n      tag_14\n      jumpi\n      dup1\n      0xf9000ba8\n      eq\n      tag_15\n      jumpi\n      jump(tag_2)\n    tag_17:\n      dup1\n      0x5daf08ca\n      eq\n      tag_9\n      jumpi\n      dup1\n      0x8da5cb5b\n      eq\n      tag_10\n      jumpi\n      dup1\n      0x9f2524ee\n      eq\n      tag_11\n      jumpi\n      jump(tag_2)\n    tag_16:\n      dup1\n      0x013cf08b\n      eq\n      tag_3\n      jumpi\n      dup1\n      0x0b1ca49a\n      eq\n      tag_4\n      jumpi\n      dup1\n      0x0d61b519\n      eq\n      tag_5\n      jumpi\n      dup1\n      0x18160ddd\n      eq\n      tag_6\n      jumpi\n      dup1\n      0x27e235e3\n      eq\n      tag_7\n      jumpi\n      dup1\n      0x49c2a1a6\n      eq\n      tag_8\n      jumpi\n    tag_2:\n      0x00\n      dup1\n      revert\n        /* \"contracts/MyFirstDAO.sol\":540:567  Proposal[] public proposals */\n    tag_3:\n      tag_18\n      0x04\n      dup1\n      calldatasize\n      sub\n      dup2\n      add\n      swap1\n      tag_19\n      swap2\n      swap1\n      tag_20\n      jump\t// in\n    tag_19:\n      tag_21\n      jump\t// in\n    tag_18:\n      mload(0x40)\n      tag_22\n      swap6\n      swap5\n      swap4\n      swap3\n      swap2\n      swap1\n      tag_23\n      jump\t// in\n    tag_22:\n      mload(0x40)\n      dup1\n      swap2\n      sub\n      swap1\n      return\n        /* \"contracts/MyFirstDAO.sol\":1474:2106  function removeMember(address _member) public {... */\n    tag_4:\n      tag_24\n      0x04\n      dup1\n      calldatasize\n      sub\n      dup2\n      add\n      swap1\n      tag_25\n      swap2\n      swap1\n      tag_26\n      jump\t// in\n    tag_25:\n      tag_27\n      jump\t// in\n    tag_24:\n      stop\n        /* \"contracts/MyFirstDAO.sol\":3395:3800  function executeProposal(uint256 _proposalId) public {... */\n    tag_5:\n      tag_28\n      0x04\n      dup1\n      calldatasize\n      sub\n      dup2\n      add\n      swap1\n      tag_29\n      swap2\n      swap1\n      tag_20\n      jump\t// in\n    tag_29:\n      tag_30\n      jump\t// in\n    tag_28:\n      stop\n        /* \"contracts/MyFirstDAO.sol\":574:600  uint256 public totalSupply */\n    tag_6:\n      tag_31\n      tag_32\n      jump\t// in\n    tag_31:\n      mload(0x40)\n      tag_33\n      swap2\n      swap1\n      tag_34\n      jump\t// in\n    tag_33:\n      mload(0x40)\n      dup1\n      swap2\n      sub\n      swap1\n      return\n        /* \"contracts/MyFirstDAO.sol\":606:649  mapping(address => uint256) public balances */\n    tag_7:\n      tag_35\n      0x04\n      dup1\n      calldatasize\n      sub\n      dup2\n      add\n      swap1\n      tag_36\n      swap2\n      swap1\n      tag_26\n      jump\t// in\n    tag_36:\n      tag_37\n      jump\t// in\n    tag_35:\n      mload(0x40)\n      tag_38\n      swap2\n      swap1\n      tag_34\n      jump\t// in\n    tag_38:\n      mload(0x40)\n      dup1\n      swap2\n      sub\n      swap1\n      return\n        /* \"contracts/MyFirstDAO.sol\":2112:2479  function createProposal(string memory _description) public {... */\n    tag_8:\n      tag_39\n      0x04\n      dup1\n      calldatasize\n      sub\n      dup2\n      add\n      swap1\n      tag_40\n      swap2\n      swap1\n      tag_41\n      jump\t// in\n    tag_40:\n      tag_42\n      jump\t// in\n    tag_39:\n      stop\n        /* \"contracts/MyFirstDAO.sol\":351:375  address[] public members */\n    tag_9:\n      tag_43\n      0x04\n      dup1\n      calldatasize\n      sub\n      dup2\n      add\n      swap1\n      tag_44\n      swap2\n      swap1\n      tag_20\n      jump\t// in\n    tag_44:\n      tag_45\n      jump\t// in\n    tag_43:\n      mload(0x40)\n      tag_46\n      swap2\n      swap1\n      tag_47\n      jump\t// in\n    tag_46:\n      mload(0x40)\n      dup1\n      swap2\n      sub\n      swap1\n      return\n        /* \"contracts/MyFirstDAO.sol\":943:963  address public owner */\n    tag_10:\n      tag_48\n      tag_49\n      jump\t// in\n    tag_48:\n      mload(0x40)\n      tag_50\n      swap2\n      swap1\n      tag_47\n      jump\t// in\n    tag_50:\n      mload(0x40)\n      dup1\n      swap2\n      sub\n      swap1\n      return\n        /* \"contracts/MyFirstDAO.sol\":477:534  mapping(address => mapping(uint256 => bool)) public votes */\n    tag_11:\n      tag_51\n      0x04\n      dup1\n      calldatasize\n      sub\n      dup2\n      add\n      swap1\n      tag_52\n      swap2\n      swap1\n      tag_53\n      jump\t// in\n    tag_52:\n      tag_54\n      jump\t// in\n    tag_51:\n      mload(0x40)\n      tag_55\n      swap2\n      swap1\n      tag_56\n      jump\t// in\n    tag_55:\n      mload(0x40)\n      dup1\n      swap2\n      sub\n      swap1\n      return\n        /* \"contracts/MyFirstDAO.sol\":381:421  mapping(address => bool) public isMember */\n    tag_12:\n      tag_57\n      0x04\n      dup1\n      calldatasize\n      sub\n      dup2\n      add\n      swap1\n      tag_58\n      swap2\n      swap1\n      tag_26\n      jump\t// in\n    tag_58:\n      tag_59\n      jump\t// in\n    tag_57:\n      mload(0x40)\n      tag_60\n      swap2\n      swap1\n      tag_56\n      jump\t// in\n    tag_60:\n      mload(0x40)\n      dup1\n      swap2\n      sub\n      swap1\n      return\n        /* \"contracts/MyFirstDAO.sol\":427:471  mapping(address => Member) public memberInfo */\n    tag_13:\n      tag_61\n      0x04\n      dup1\n      calldatasize\n      sub\n      dup2\n      add\n      swap1\n      tag_62\n      swap2\n      swap1\n      tag_26\n      jump\t// in\n    tag_62:\n      tag_63\n      jump\t// in\n    tag_61:\n      mload(0x40)\n      tag_64\n      swap4\n      swap3\n      swap2\n      swap1\n      tag_65\n      jump\t// in\n    tag_64:\n      mload(0x40)\n      dup1\n      swap2\n      sub\n      swap1\n      return\n        /* \"contracts/MyFirstDAO.sol\":1025:1468  function addMember(address _member) public {... */\n    tag_14:\n      tag_66\n      0x04\n      dup1\n      calldatasize\n      sub\n      dup2\n      add\n      swap1\n      tag_67\n      swap2\n      swap1\n      tag_26\n      jump\t// in\n    tag_67:\n      tag_68\n      jump\t// in\n    tag_66:\n      stop\n        /* \"contracts/MyFirstDAO.sol\":2485:3389  function castVote(... */\n    tag_15:\n      tag_69\n      0x04\n      dup1\n      calldatasize\n      sub\n      dup2\n      add\n      swap1\n      tag_70\n      swap2\n      swap1\n      tag_71\n      jump\t// in\n    tag_70:\n      tag_72\n      jump\t// in\n    tag_69:\n      stop\n        /* \"contracts/MyFirstDAO.sol\":540:567  Proposal[] public proposals */\n    tag_21:\n      0x04\n      dup2\n      dup2\n      sload\n      dup2\n      lt\n      tag_73\n      jumpi\n      0x00\n      dup1\n      revert\n    tag_73:\n      swap1\n      0x00\n      mstore\n      keccak256(0x00, 0x20)\n      swap1\n      0x05\n      mul\n      add\n      0x00\n      swap2\n      pop\n      swap1\n      pop\n      dup1\n      0x00\n      add\n      dup1\n      sload\n      tag_75\n      swap1\n      tag_76\n      jump\t// in\n    tag_75:\n      dup1\n      0x1f\n      add\n      0x20\n      dup1\n      swap2\n      div\n      mul\n      0x20\n      add\n      mload(0x40)\n      swap1\n      dup2\n      add\n      0x40\n      mstore\n      dup1\n      swap3\n      swap2\n      swap1\n      dup2\n      dup2\n      mstore\n      0x20\n      add\n      dup3\n      dup1\n      sload\n      tag_77\n      swap1\n      tag_76\n      jump\t// in\n    tag_77:\n      dup1\n      iszero\n      tag_78\n      jumpi\n      dup1\n      0x1f\n      lt\n      tag_79\n      jumpi\n      0x0100\n      dup1\n      dup4\n      sload\n      div\n      mul\n      dup4\n      mstore\n      swap2\n      0x20\n      add\n      swap2\n      jump(tag_78)\n    tag_79:\n      dup3\n      add\n      swap2\n      swap1\n      0x00\n      mstore\n      keccak256(0x00, 0x20)\n      swap1\n    tag_80:\n      dup2\n      sload\n      dup2\n      mstore\n      swap1\n      0x01\n      add\n      swap1\n      0x20\n      add\n      dup1\n      dup4\n      gt\n      tag_80\n      jumpi\n      dup3\n      swap1\n      sub\n      0x1f\n      and\n      dup3\n      add\n      swap2\n    tag_78:\n      pop\n      pop\n      pop\n      pop\n      pop\n      swap1\n      dup1\n      0x01\n      add\n      sload\n      swap1\n      dup1\n      0x02\n      add\n      sload\n      swap1\n      dup1\n      0x03\n      add\n      sload\n      swap1\n      dup1\n      0x04\n      add\n      0x00\n      swap1\n      sload\n      swap1\n      0x0100\n      exp\n      swap1\n      div\n      0xff\n      and\n      swap1\n      pop\n      dup6\n      jump\t// out\n        /* \"contracts/MyFirstDAO.sol\":1474:2106  function removeMember(address _member) public {... */\n    tag_27:\n        /* \"contracts/MyFirstDAO.sol\":1552:1557  owner */\n      0x07\n      0x00\n      swap1\n      sload\n      swap1\n      0x0100\n      exp\n      swap1\n      div\n      0xffffffffffffffffffffffffffffffffffffffff\n      and\n        /* \"contracts/MyFirstDAO.sol\":1538:1557  msg.sender == owner */\n      0xffffffffffffffffffffffffffffffffffffffff\n      and\n        /* \"contracts/MyFirstDAO.sol\":1538:1548  msg.sender */\n      caller\n        /* \"contracts/MyFirstDAO.sol\":1538:1557  msg.sender == owner */\n      0xffffffffffffffffffffffffffffffffffffffff\n      and\n      eq\n        /* \"contracts/MyFirstDAO.sol\":1530:1558  require(msg.sender == owner) */\n      tag_82\n      jumpi\n      0x00\n      dup1\n      revert\n    tag_82:\n        /* \"contracts/MyFirstDAO.sol\":1597:1601  true */\n      0x01\n        /* \"contracts/MyFirstDAO.sol\":1576:1601  isMember[_member] == true */\n      iszero\n      iszero\n        /* \"contracts/MyFirstDAO.sol\":1576:1584  isMember */\n      0x01\n        /* \"contracts/MyFirstDAO.sol\":1576:1593  isMember[_member] */\n      0x00\n        /* \"contracts/MyFirstDAO.sol\":1585:1592  _member */\n      dup4\n        /* \"contracts/MyFirstDAO.sol\":1576:1593  isMember[_member] */\n      0xffffffffffffffffffffffffffffffffffffffff\n      and\n      0xffffffffffffffffffffffffffffffffffffffff\n      and\n      dup2\n      mstore\n      0x20\n      add\n      swap1\n      dup2\n      mstore\n      0x20\n      add\n      0x00\n      keccak256\n      0x00\n      swap1\n      sload\n      swap1\n      0x0100\n      exp\n      swap1\n      div\n      0xff\n      and\n        /* \"contracts/MyFirstDAO.sol\":1576:1601  isMember[_member] == true */\n      iszero\n      iszero\n      eq\n        /* \"contracts/MyFirstDAO.sol\":1568:1627  require(isMember[_member] == true, \"member does not exist\") */\n      tag_83\n      jumpi\n      mload(0x40)\n      0x08c379a000000000000000000000000000000000000000000000000000000000\n      dup2\n      mstore\n      0x04\n      add\n      tag_84\n      swap1\n      tag_85\n      jump\t// in\n    tag_84:\n      mload(0x40)\n      dup1\n      swap2\n      sub\n      swap1\n      revert\n    tag_83:\n        /* \"contracts/MyFirstDAO.sol\":1659:1773  Member({... */\n      mload(0x40)\n      dup1\n      0x60\n      add\n      0x40\n      mstore\n      dup1\n        /* \"contracts/MyFirstDAO.sol\":1703:1704  0 */\n      0x00\n        /* \"contracts/MyFirstDAO.sol\":1659:1773  Member({... */\n      0xffffffffffffffffffffffffffffffffffffffff\n      and\n      dup2\n      mstore\n      0x20\n      add\n        /* \"contracts/MyFirstDAO.sol\":1732:1733  0 */\n      0x00\n        /* \"contracts/MyFirstDAO.sol\":1659:1773  Member({... */\n      dup2\n      mstore\n      0x20\n      add\n        /* \"contracts/MyFirstDAO.sol\":1761:1762  0 */\n      0x00\n        /* \"contracts/MyFirstDAO.sol\":1659:1773  Member({... */\n      dup2\n      mstore\n      pop\n        /* \"contracts/MyFirstDAO.sol\":1637:1647  memberInfo */\n      0x02\n        /* \"contracts/MyFirstDAO.sol\":1637:1656  memberInfo[_member] */\n      0x00\n        /* \"contracts/MyFirstDAO.sol\":1648:1655  _member */\n      dup4\n        /* \"contracts/MyFirstDAO.sol\":1637:1656  memberInfo[_member] */\n      0xffffffffffffffffffffffffffffffffffffffff\n      and\n      0xffffffffffffffffffffffffffffffffffffffff\n      and\n      dup2\n      mstore\n      0x20\n      add\n      swap1\n      dup2\n      mstore\n      0x20\n      add\n      0x00\n      keccak256\n        /* \"contracts/MyFirstDAO.sol\":1637:1773  memberInfo[_member] = Member({... */\n      0x00\n      dup3\n      add\n      mload\n      dup2\n      0x00\n      add\n      exp(0x0100, 0x00)\n      dup2\n      sload\n      dup2\n      0xffffffffffffffffffffffffffffffffffffffff\n      mul\n      not\n      and\n      swap1\n      dup4\n      0xffffffffffffffffffffffffffffffffffffffff\n      and\n      mul\n      or\n      swap1\n      sstore\n      pop\n      0x20\n      dup3\n      add\n      mload\n      dup2\n      0x01\n      add\n      sstore\n      0x40\n      dup3\n      add\n      mload\n      dup2\n      0x02\n      add\n      sstore\n      swap1\n      pop\n      pop\n        /* \"contracts/MyFirstDAO.sol\":1788:1797  uint256 i */\n      0x00\n        /* \"contracts/MyFirstDAO.sol\":1783:2006  for (uint256 i = 0; i < members.length; i++) {... */\n    tag_86:\n        /* \"contracts/MyFirstDAO.sol\":1807:1814  members */\n      0x00\n        /* \"contracts/MyFirstDAO.sol\":1807:1821  members.length */\n      dup1\n      sload\n      swap1\n      pop\n        /* \"contracts/MyFirstDAO.sol\":1803:1804  i */\n      dup2\n        /* \"contracts/MyFirstDAO.sol\":1803:1821  i < members.length */\n      lt\n        /* \"contracts/MyFirstDAO.sol\":1783:2006  for (uint256 i = 0; i < members.length; i++) {... */\n      iszero\n      tag_87\n      jumpi\n        /* \"contracts/MyFirstDAO.sol\":1860:1867  _member */\n      dup2\n        /* \"contracts/MyFirstDAO.sol\":1846:1867  members[i] == _member */\n      0xffffffffffffffffffffffffffffffffffffffff\n      and\n        /* \"contracts/MyFirstDAO.sol\":1846:1853  members */\n      0x00\n        /* \"contracts/MyFirstDAO.sol\":1854:1855  i */\n      dup3\n        /* \"contracts/MyFirstDAO.sol\":1846:1856  members[i] */\n      dup2\n      sload\n      dup2\n      lt\n      tag_89\n      jumpi\n      tag_90\n      tag_91\n      jump\t// in\n    tag_90:\n    tag_89:\n      swap1\n      0x00\n      mstore\n      keccak256(0x00, 0x20)\n      add\n      0x00\n      swap1\n      sload\n      swap1\n      0x0100\n      exp\n      swap1\n      div\n      0xffffffffffffffffffffffffffffffffffffffff\n      and\n        /* \"contracts/MyFirstDAO.sol\":1846:1867  members[i] == _member */\n      0xffffffffffffffffffffffffffffffffffffffff\n      and\n      sub\n        /* \"contracts/MyFirstDAO.sol\":1842:1996  if (members[i] == _member) {... */\n      tag_93\n      jumpi\n        /* \"contracts/MyFirstDAO.sol\":1900:1907  members */\n      0x00\n        /* \"contracts/MyFirstDAO.sol\":1925:1926  1 */\n      0x01\n        /* \"contracts/MyFirstDAO.sol\":1908:1915  members */\n      0x00\n        /* \"contracts/MyFirstDAO.sol\":1908:1922  members.length */\n      dup1\n      sload\n      swap1\n      pop\n        /* \"contracts/MyFirstDAO.sol\":1908:1926  members.length - 1 */\n      tag_94\n      swap2\n      swap1\n      tag_95\n      jump\t// in\n    tag_94:\n        /* \"contracts/MyFirstDAO.sol\":1900:1927  members[members.length - 1] */\n      dup2\n      sload\n      dup2\n      lt\n      tag_96\n      jumpi\n      tag_97\n      tag_91\n      jump\t// in\n    tag_97:\n    tag_96:\n      swap1\n      0x00\n      mstore\n      keccak256(0x00, 0x20)\n      add\n      0x00\n      swap1\n      sload\n      swap1\n      0x0100\n      exp\n      swap1\n      div\n      0xffffffffffffffffffffffffffffffffffffffff\n      and\n        /* \"contracts/MyFirstDAO.sol\":1887:1894  members */\n      0x00\n        /* \"contracts/MyFirstDAO.sol\":1895:1896  i */\n      dup3\n        /* \"contracts/MyFirstDAO.sol\":1887:1897  members[i] */\n      dup2\n      sload\n      dup2\n      lt\n      tag_99\n      jumpi\n      tag_100\n      tag_91\n      jump\t// in\n    tag_100:\n    tag_99:\n      swap1\n      0x00\n      mstore\n      keccak256(0x00, 0x20)\n      add\n      0x00\n        /* \"contracts/MyFirstDAO.sol\":1887:1927  members[i] = members[members.length - 1] */\n      0x0100\n      exp\n      dup2\n      sload\n      dup2\n      0xffffffffffffffffffffffffffffffffffffffff\n      mul\n      not\n      and\n      swap1\n      dup4\n      0xffffffffffffffffffffffffffffffffffffffff\n      and\n      mul\n      or\n      swap1\n      sstore\n      pop\n        /* \"contracts/MyFirstDAO.sol\":1945:1952  members */\n      0x00\n        /* \"contracts/MyFirstDAO.sol\":1945:1958  members.pop() */\n      dup1\n      sload\n      dup1\n      tag_102\n      jumpi\n      tag_103\n      tag_104\n      jump\t// in\n    tag_103:\n    tag_102:\n      0x01\n      swap1\n      sub\n      dup2\n      dup2\n      swap1\n      0x00\n      mstore\n      keccak256(0x00, 0x20)\n      add\n      exp(0x0100, 0x00)\n      dup2\n      sload\n      swap1\n      0xffffffffffffffffffffffffffffffffffffffff\n      mul\n      not\n      and\n      swap1\n      sstore\n      swap1\n      sstore\n        /* \"contracts/MyFirstDAO.sol\":1976:1981  break */\n      jump(tag_87)\n        /* \"contracts/MyFirstDAO.sol\":1842:1996  if (members[i] == _member) {... */\n    tag_93:\n        /* \"contracts/MyFirstDAO.sol\":1823:1826  i++ */\n      dup1\n      dup1\n      tag_106\n      swap1\n      tag_107\n      jump\t// in\n    tag_106:\n      swap2\n      pop\n      pop\n        /* \"contracts/MyFirstDAO.sol\":1783:2006  for (uint256 i = 0; i < members.length; i++) {... */\n      jump(tag_86)\n    tag_87:\n      pop\n        /* \"contracts/MyFirstDAO.sol\":2035:2040  false */\n      0x00\n        /* \"contracts/MyFirstDAO.sol\":2015:2023  isMember */\n      0x01\n        /* \"contracts/MyFirstDAO.sol\":2015:2032  isMember[_member] */\n      0x00\n        /* \"contracts/MyFirstDAO.sol\":2024:2031  _member */\n      dup4\n        /* \"contracts/MyFirstDAO.sol\":2015:2032  isMember[_member] */\n      0xffffffffffffffffffffffffffffffffffffffff\n      and\n      0xffffffffffffffffffffffffffffffffffffffff\n      and\n      dup2\n      mstore\n      0x20\n      add\n      swap1\n      dup2\n      mstore\n      0x20\n      add\n      0x00\n      keccak256\n      0x00\n        /* \"contracts/MyFirstDAO.sol\":2015:2040  isMember[_member] = false */\n      0x0100\n      exp\n      dup2\n      sload\n      dup2\n      0xff\n      mul\n      not\n      and\n      swap1\n      dup4\n      iszero\n      iszero\n      mul\n      or\n      swap1\n      sstore\n      pop\n        /* \"contracts/MyFirstDAO.sol\":2070:2071  0 */\n      0x00\n        /* \"contracts/MyFirstDAO.sol\":2050:2058  balances */\n      0x06\n        /* \"contracts/MyFirstDAO.sol\":2050:2067  balances[_member] */\n      0x00\n        /* \"contracts/MyFirstDAO.sol\":2059:2066  _member */\n      dup4\n        /* \"contracts/MyFirstDAO.sol\":2050:2067  balances[_member] */\n      0xffffffffffffffffffffffffffffffffffffffff\n      and\n      0xffffffffffffffffffffffffffffffffffffffff\n      and\n      dup2\n      mstore\n      0x20\n      add\n      swap1\n      dup2\n      mstore\n      0x20\n      add\n      0x00\n      keccak256\n        /* \"contracts/MyFirstDAO.sol\":2050:2071  balances[_member] = 0 */\n      dup2\n      swap1\n      sstore\n      pop\n        /* \"contracts/MyFirstDAO.sol\":2096:2099  100 */\n      0x64\n        /* \"contracts/MyFirstDAO.sol\":2081:2092  totalSupply */\n      0x05\n      0x00\n        /* \"contracts/MyFirstDAO.sol\":2081:2099  totalSupply -= 100 */\n      dup3\n      dup3\n      sload\n      tag_108\n      swap2\n      swap1\n      tag_95\n      jump\t// in\n    tag_108:\n      swap3\n      pop\n      pop\n      dup2\n      swap1\n      sstore\n      pop\n        /* \"contracts/MyFirstDAO.sol\":1474:2106  function removeMember(address _member) public {... */\n      pop\n      jump\t// out\n        /* \"contracts/MyFirstDAO.sol\":3395:3800  function executeProposal(uint256 _proposalId) public {... */\n    tag_30:\n        /* \"contracts/MyFirstDAO.sol\":3514:3519  false */\n      0x00\n        /* \"contracts/MyFirstDAO.sol\":3479:3519  proposals[_proposalId].executed == false */\n      iszero\n      iszero\n        /* \"contracts/MyFirstDAO.sol\":3479:3488  proposals */\n      0x04\n        /* \"contracts/MyFirstDAO.sol\":3489:3500  _proposalId */\n      dup3\n        /* \"contracts/MyFirstDAO.sol\":3479:3501  proposals[_proposalId] */\n      dup2\n      sload\n      dup2\n      lt\n      tag_110\n      jumpi\n      tag_111\n      tag_91\n      jump\t// in\n    tag_111:\n    tag_110:\n      swap1\n      0x00\n      mstore\n      keccak256(0x00, 0x20)\n      swap1\n      0x05\n      mul\n      add\n        /* \"contracts/MyFirstDAO.sol\":3479:3510  proposals[_proposalId].executed */\n      0x04\n      add\n      0x00\n      swap1\n      sload\n      swap1\n      0x0100\n      exp\n      swap1\n      div\n      0xff\n      and\n        /* \"contracts/MyFirstDAO.sol\":3479:3519  proposals[_proposalId].executed == false */\n      iszero\n      iszero\n      eq\n        /* \"contracts/MyFirstDAO.sol\":3458:3579  require(... */\n      tag_113\n      jumpi\n      mload(0x40)\n      0x08c379a000000000000000000000000000000000000000000000000000000000\n      dup2\n      mstore\n      0x04\n      add\n      tag_114\n      swap1\n      tag_115\n      jump\t// in\n    tag_114:\n      mload(0x40)\n      dup1\n      swap2\n      sub\n      swap1\n      revert\n    tag_113:\n        /* \"contracts/MyFirstDAO.sol\":3644:3653  proposals */\n      0x04\n        /* \"contracts/MyFirstDAO.sol\":3654:3665  _proposalId */\n      dup2\n        /* \"contracts/MyFirstDAO.sol\":3644:3666  proposals[_proposalId] */\n      dup2\n      sload\n      dup2\n      lt\n      tag_116\n      jumpi\n      tag_117\n      tag_91\n      jump\t// in\n    tag_117:\n    tag_116:\n      swap1\n      0x00\n      mstore\n      keccak256(0x00, 0x20)\n      swap1\n      0x05\n      mul\n      add\n        /* \"contracts/MyFirstDAO.sol\":3644:3674  proposals[_proposalId].noVotes */\n      0x03\n      add\n      sload\n        /* \"contracts/MyFirstDAO.sol\":3610:3619  proposals */\n      0x04\n        /* \"contracts/MyFirstDAO.sol\":3620:3631  _proposalId */\n      dup3\n        /* \"contracts/MyFirstDAO.sol\":3610:3632  proposals[_proposalId] */\n      dup2\n      sload\n      dup2\n      lt\n      tag_119\n      jumpi\n      tag_120\n      tag_91\n      jump\t// in\n    tag_120:\n    tag_119:\n      swap1\n      0x00\n      mstore\n      keccak256(0x00, 0x20)\n      swap1\n      0x05\n      mul\n      add\n        /* \"contracts/MyFirstDAO.sol\":3610:3641  proposals[_proposalId].yesVotes */\n      0x02\n      add\n      sload\n        /* \"contracts/MyFirstDAO.sol\":3610:3674  proposals[_proposalId].yesVotes > proposals[_proposalId].noVotes */\n      gt\n        /* \"contracts/MyFirstDAO.sol\":3589:3684  require(... */\n      tag_122\n      jumpi\n      0x00\n      dup1\n      revert\n    tag_122:\n        /* \"contracts/MyFirstDAO.sol\":3728:3732  true */\n      0x01\n        /* \"contracts/MyFirstDAO.sol\":3694:3703  proposals */\n      0x04\n        /* \"contracts/MyFirstDAO.sol\":3704:3715  _proposalId */\n      dup3\n        /* \"contracts/MyFirstDAO.sol\":3694:3716  proposals[_proposalId] */\n      dup2\n      sload\n      dup2\n      lt\n      tag_123\n      jumpi\n      tag_124\n      tag_91\n      jump\t// in\n    tag_124:\n    tag_123:\n      swap1\n      0x00\n      mstore\n      keccak256(0x00, 0x20)\n      swap1\n      0x05\n      mul\n      add\n        /* \"contracts/MyFirstDAO.sol\":3694:3725  proposals[_proposalId].executed */\n      0x04\n      add\n      0x00\n        /* \"contracts/MyFirstDAO.sol\":3694:3732  proposals[_proposalId].executed = true */\n      0x0100\n      exp\n      dup2\n      sload\n      dup2\n      0xff\n      mul\n      not\n      and\n      swap1\n      dup4\n      iszero\n      iszero\n      mul\n      or\n      swap1\n      sstore\n      pop\n        /* \"contracts/MyFirstDAO.sol\":3747:3793  ProposalAccepted(\"Proposal has been approved\") */\n      0x19cf08368c3c86aacb1be12c902a304c3b1d64e4f72e1aa33789a01f68ecab05\n      mload(0x40)\n      tag_126\n      swap1\n      tag_127\n      jump\t// in\n    tag_126:\n      mload(0x40)\n      dup1\n      swap2\n      sub\n      swap1\n      log1\n        /* \"contracts/MyFirstDAO.sol\":3395:3800  function executeProposal(uint256 _proposalId) public {... */\n      pop\n      jump\t// out\n        /* \"contracts/MyFirstDAO.sol\":574:600  uint256 public totalSupply */\n    tag_32:\n      sload(0x05)\n      dup2\n      jump\t// out\n        /* \"contracts/MyFirstDAO.sol\":606:649  mapping(address => uint256) public balances */\n    tag_37:\n      mstore(0x20, 0x06)\n      dup1\n      0x00\n      mstore\n      keccak256(0x00, 0x40)\n      0x00\n      swap2\n      pop\n      swap1\n      pop\n      sload\n      dup2\n      jump\t// out\n        /* \"contracts/MyFirstDAO.sol\":2112:2479  function createProposal(string memory _description) public {... */\n    tag_42:\n        /* \"contracts/MyFirstDAO.sol\":2181:2190  proposals */\n      0x04\n        /* \"contracts/MyFirstDAO.sol\":2209:2396  Proposal({... */\n      mload(0x40)\n      dup1\n      0xa0\n      add\n      0x40\n      mstore\n      dup1\n        /* \"contracts/MyFirstDAO.sol\":2249:2261  _description */\n      dup4\n        /* \"contracts/MyFirstDAO.sol\":2209:2396  Proposal({... */\n      dup2\n      mstore\n      0x20\n      add\n        /* \"contracts/MyFirstDAO.sol\":2290:2291  0 */\n      0x00\n        /* \"contracts/MyFirstDAO.sol\":2209:2396  Proposal({... */\n      dup2\n      mstore\n      0x20\n      add\n        /* \"contracts/MyFirstDAO.sol\":2319:2320  0 */\n      0x00\n        /* \"contracts/MyFirstDAO.sol\":2209:2396  Proposal({... */\n      dup2\n      mstore\n      0x20\n      add\n        /* \"contracts/MyFirstDAO.sol\":2347:2348  0 */\n      0x00\n        /* \"contracts/MyFirstDAO.sol\":2209:2396  Proposal({... */\n      dup2\n      mstore\n      0x20\n      add\n        /* \"contracts/MyFirstDAO.sol\":2376:2381  false */\n      0x00\n        /* \"contracts/MyFirstDAO.sol\":2209:2396  Proposal({... */\n      iszero\n      iszero\n      dup2\n      mstore\n      pop\n        /* \"contracts/MyFirstDAO.sol\":2181:2406  proposals.push(... */\n      swap1\n      dup1\n      0x01\n      dup2\n      sload\n      add\n      dup1\n      dup3\n      sstore\n      dup1\n      swap2\n      pop\n      pop\n      0x01\n      swap1\n      sub\n      swap1\n      0x00\n      mstore\n      keccak256(0x00, 0x20)\n      swap1\n      0x05\n      mul\n      add\n      0x00\n      swap1\n      swap2\n      swap1\n      swap2\n      swap1\n      swap2\n      pop\n      0x00\n      dup3\n      add\n      mload\n      dup2\n      0x00\n      add\n      swap1\n      dup2\n      tag_130\n      swap2\n      swap1\n      tag_131\n      jump\t// in\n    tag_130:\n      pop\n      0x20\n      dup3\n      add\n      mload\n      dup2\n      0x01\n      add\n      sstore\n      0x40\n      dup3\n      add\n      mload\n      dup2\n      0x02\n      add\n      sstore\n      0x60\n      dup3\n      add\n      mload\n      dup2\n      0x03\n      add\n      sstore\n      0x80\n      dup3\n      add\n      mload\n      dup2\n      0x04\n      add\n      exp(0x0100, 0x00)\n      dup2\n      sload\n      dup2\n      0xff\n      mul\n      not\n      and\n      swap1\n      dup4\n      iszero\n      iszero\n      mul\n      or\n      swap1\n      sstore\n      pop\n      pop\n      pop\n        /* \"contracts/MyFirstDAO.sol\":2456:2457  1 */\n      0x01\n        /* \"contracts/MyFirstDAO.sol\":2437:2446  proposals */\n      0x04\n        /* \"contracts/MyFirstDAO.sol\":2437:2453  proposals.length */\n      dup1\n      sload\n      swap1\n      pop\n        /* \"contracts/MyFirstDAO.sol\":2437:2457  proposals.length - 1 */\n      tag_132\n      swap2\n      swap1\n      tag_95\n      jump\t// in\n    tag_132:\n        /* \"contracts/MyFirstDAO.sol\":2421:2472  ProposalCreated(proposals.length - 1, _description) */\n      0x9c770c289ab5bf7e57cb1d23c8ceae993aea46eb64847072fd3d78ca60d3e432\n        /* \"contracts/MyFirstDAO.sol\":2459:2471  _description */\n      dup3\n        /* \"contracts/MyFirstDAO.sol\":2421:2472  ProposalCreated(proposals.length - 1, _description) */\n      mload(0x40)\n      tag_133\n      swap2\n      swap1\n      tag_134\n      jump\t// in\n    tag_133:\n      mload(0x40)\n      dup1\n      swap2\n      sub\n      swap1\n      log2\n        /* \"contracts/MyFirstDAO.sol\":2112:2479  function createProposal(string memory _description) public {... */\n      pop\n      jump\t// out\n        /* \"contracts/MyFirstDAO.sol\":351:375  address[] public members */\n    tag_45:\n      0x00\n      dup2\n      dup2\n      sload\n      dup2\n      lt\n      tag_135\n      jumpi\n      0x00\n      dup1\n      revert\n    tag_135:\n      swap1\n      0x00\n      mstore\n      keccak256(0x00, 0x20)\n      add\n      0x00\n      swap2\n      pop\n      sload\n      swap1\n      0x0100\n      exp\n      swap1\n      div\n      0xffffffffffffffffffffffffffffffffffffffff\n      and\n      dup2\n      jump\t// out\n        /* \"contracts/MyFirstDAO.sol\":943:963  address public owner */\n    tag_49:\n      0x07\n      0x00\n      swap1\n      sload\n      swap1\n      0x0100\n      exp\n      swap1\n      div\n      0xffffffffffffffffffffffffffffffffffffffff\n      and\n      dup2\n      jump\t// out\n        /* \"contracts/MyFirstDAO.sol\":477:534  mapping(address => mapping(uint256 => bool)) public votes */\n    tag_54:\n      mstore(0x20, 0x03)\n      dup2\n      0x00\n      mstore\n      mstore(0x20, keccak256(0x00, 0x40))\n      dup1\n      0x00\n      mstore\n      keccak256(0x00, 0x40)\n      0x00\n      swap2\n      pop\n      swap2\n      pop\n      swap1\n      sload\n      swap1\n      0x0100\n      exp\n      swap1\n      div\n      0xff\n      and\n      dup2\n      jump\t// out\n        /* \"contracts/MyFirstDAO.sol\":381:421  mapping(address => bool) public isMember */\n    tag_59:\n      mstore(0x20, 0x01)\n      dup1\n      0x00\n      mstore\n      keccak256(0x00, 0x40)\n      0x00\n      swap2\n      pop\n      sload\n      swap1\n      0x0100\n      exp\n      swap1\n      div\n      0xff\n      and\n      dup2\n      jump\t// out\n        /* \"contracts/MyFirstDAO.sol\":427:471  mapping(address => Member) public memberInfo */\n    tag_63:\n      mstore(0x20, 0x02)\n      dup1\n      0x00\n      mstore\n      keccak256(0x00, 0x40)\n      0x00\n      swap2\n      pop\n      swap1\n      pop\n      dup1\n      0x00\n      add\n      0x00\n      swap1\n      sload\n      swap1\n      0x0100\n      exp\n      swap1\n      div\n      0xffffffffffffffffffffffffffffffffffffffff\n      and\n      swap1\n      dup1\n      0x01\n      add\n      sload\n      swap1\n      dup1\n      0x02\n      add\n      sload\n      swap1\n      pop\n      dup4\n      jump\t// out\n        /* \"contracts/MyFirstDAO.sol\":1025:1468  function addMember(address _member) public {... */\n    tag_68:\n        /* \"contracts/MyFirstDAO.sol\":1100:1105  owner */\n      0x07\n      0x00\n      swap1\n      sload\n      swap1\n      0x0100\n      exp\n      swap1\n      div\n      0xffffffffffffffffffffffffffffffffffffffff\n      and\n        /* \"contracts/MyFirstDAO.sol\":1086:1105  msg.sender == owner */\n      0xffffffffffffffffffffffffffffffffffffffff\n      and\n        /* \"contracts/MyFirstDAO.sol\":1086:1096  msg.sender */\n      caller\n        /* \"contracts/MyFirstDAO.sol\":1086:1105  msg.sender == owner */\n      0xffffffffffffffffffffffffffffffffffffffff\n      and\n      eq\n        /* \"contracts/MyFirstDAO.sol\":1078:1106  require(msg.sender == owner) */\n      tag_138\n      jumpi\n      0x00\n      dup1\n      revert\n    tag_138:\n        /* \"contracts/MyFirstDAO.sol\":1145:1150  false */\n      0x00\n        /* \"contracts/MyFirstDAO.sol\":1124:1150  isMember[_member] == false */\n      iszero\n      iszero\n        /* \"contracts/MyFirstDAO.sol\":1124:1132  isMember */\n      0x01\n        /* \"contracts/MyFirstDAO.sol\":1124:1141  isMember[_member] */\n      0x00\n        /* \"contracts/MyFirstDAO.sol\":1133:1140  _member */\n      dup4\n        /* \"contracts/MyFirstDAO.sol\":1124:1141  isMember[_member] */\n      0xffffffffffffffffffffffffffffffffffffffff\n      and\n      0xffffffffffffffffffffffffffffffffffffffff\n      and\n      dup2\n      mstore\n      0x20\n      add\n      swap1\n      dup2\n      mstore\n      0x20\n      add\n      0x00\n      keccak256\n      0x00\n      swap1\n      sload\n      swap1\n      0x0100\n      exp\n      swap1\n      div\n      0xff\n      and\n        /* \"contracts/MyFirstDAO.sol\":1124:1150  isMember[_member] == false */\n      iszero\n      iszero\n      eq\n        /* \"contracts/MyFirstDAO.sol\":1116:1176  require(isMember[_member] == false, \"Member already exists\") */\n      tag_139\n      jumpi\n      mload(0x40)\n      0x08c379a000000000000000000000000000000000000000000000000000000000\n      dup2\n      mstore\n      0x04\n      add\n      tag_140\n      swap1\n      tag_141\n      jump\t// in\n    tag_140:\n      mload(0x40)\n      dup1\n      swap2\n      sub\n      swap1\n      revert\n    tag_139:\n        /* \"contracts/MyFirstDAO.sol\":1208:1335  Member({... */\n      mload(0x40)\n      dup1\n      0x60\n      add\n      0x40\n      mstore\n      dup1\n        /* \"contracts/MyFirstDAO.sol\":1244:1251  _member */\n      dup3\n        /* \"contracts/MyFirstDAO.sol\":1208:1335  Member({... */\n      0xffffffffffffffffffffffffffffffffffffffff\n      and\n      dup2\n      mstore\n      0x20\n      add\n        /* \"contracts/MyFirstDAO.sol\":1278:1293  block.timestamp */\n      timestamp\n        /* \"contracts/MyFirstDAO.sol\":1208:1335  Member({... */\n      dup2\n      mstore\n      0x20\n      add\n        /* \"contracts/MyFirstDAO.sol\":1321:1324  100 */\n      0x64\n        /* \"contracts/MyFirstDAO.sol\":1208:1335  Member({... */\n      dup2\n      mstore\n      pop\n        /* \"contracts/MyFirstDAO.sol\":1186:1196  memberInfo */\n      0x02\n        /* \"contracts/MyFirstDAO.sol\":1186:1205  memberInfo[_member] */\n      0x00\n        /* \"contracts/MyFirstDAO.sol\":1197:1204  _member */\n      dup4\n        /* \"contracts/MyFirstDAO.sol\":1186:1205  memberInfo[_member] */\n      0xffffffffffffffffffffffffffffffffffffffff\n      and\n      0xffffffffffffffffffffffffffffffffffffffff\n      and\n      dup2\n      mstore\n      0x20\n      add\n      swap1\n      dup2\n      mstore\n      0x20\n      add\n      0x00\n      keccak256\n        /* \"contracts/MyFirstDAO.sol\":1186:1335  memberInfo[_member] = Member({... */\n      0x00\n      dup3\n      add\n      mload\n      dup2\n      0x00\n      add\n      exp(0x0100, 0x00)\n      dup2\n      sload\n      dup2\n      0xffffffffffffffffffffffffffffffffffffffff\n      mul\n      not\n      and\n      swap1\n      dup4\n      0xffffffffffffffffffffffffffffffffffffffff\n      and\n      mul\n      or\n      swap1\n      sstore\n      pop\n      0x20\n      dup3\n      add\n      mload\n      dup2\n      0x01\n      add\n      sstore\n      0x40\n      dup3\n      add\n      mload\n      dup2\n      0x02\n      add\n      sstore\n      swap1\n      pop\n      pop\n        /* \"contracts/MyFirstDAO.sol\":1345:1352  members */\n      0x00\n        /* \"contracts/MyFirstDAO.sol\":1358:1365  _member */\n      dup2\n        /* \"contracts/MyFirstDAO.sol\":1345:1366  members.push(_member) */\n      swap1\n      dup1\n      0x01\n      dup2\n      sload\n      add\n      dup1\n      dup3\n      sstore\n      dup1\n      swap2\n      pop\n      pop\n      0x01\n      swap1\n      sub\n      swap1\n      0x00\n      mstore\n      keccak256(0x00, 0x20)\n      add\n      0x00\n      swap1\n      swap2\n      swap1\n      swap2\n      swap1\n      swap2\n      0x0100\n      exp\n      dup2\n      sload\n      dup2\n      0xffffffffffffffffffffffffffffffffffffffff\n      mul\n      not\n      and\n      swap1\n      dup4\n      0xffffffffffffffffffffffffffffffffffffffff\n      and\n      mul\n      or\n      swap1\n      sstore\n      pop\n        /* \"contracts/MyFirstDAO.sol\":1396:1400  true */\n      0x01\n        /* \"contracts/MyFirstDAO.sol\":1376:1384  isMember */\n      dup1\n        /* \"contracts/MyFirstDAO.sol\":1376:1393  isMember[_member] */\n      0x00\n        /* \"contracts/MyFirstDAO.sol\":1385:1392  _member */\n      dup4\n        /* \"contracts/MyFirstDAO.sol\":1376:1393  isMember[_member] */\n      0xffffffffffffffffffffffffffffffffffffffff\n      and\n      0xffffffffffffffffffffffffffffffffffffffff\n      and\n      dup2\n      mstore\n      0x20\n      add\n      swap1\n      dup2\n      mstore\n      0x20\n      add\n      0x00\n      keccak256\n      0x00\n        /* \"contracts/MyFirstDAO.sol\":1376:1400  isMember[_member] = true */\n      0x0100\n      exp\n      dup2\n      sload\n      dup2\n      0xff\n      mul\n      not\n      and\n      swap1\n      dup4\n      iszero\n      iszero\n      mul\n      or\n      swap1\n      sstore\n      pop\n        /* \"contracts/MyFirstDAO.sol\":1430:1433  100 */\n      0x64\n        /* \"contracts/MyFirstDAO.sol\":1410:1418  balances */\n      0x06\n        /* \"contracts/MyFirstDAO.sol\":1410:1427  balances[_member] */\n      0x00\n        /* \"contracts/MyFirstDAO.sol\":1419:1426  _member */\n      dup4\n        /* \"contracts/MyFirstDAO.sol\":1410:1427  balances[_member] */\n      0xffffffffffffffffffffffffffffffffffffffff\n      and\n      0xffffffffffffffffffffffffffffffffffffffff\n      and\n      dup2\n      mstore\n      0x20\n      add\n      swap1\n      dup2\n      mstore\n      0x20\n      add\n      0x00\n      keccak256\n        /* \"contracts/MyFirstDAO.sol\":1410:1433  balances[_member] = 100 */\n      dup2\n      swap1\n      sstore\n      pop\n        /* \"contracts/MyFirstDAO.sol\":1458:1461  100 */\n      0x64\n        /* \"contracts/MyFirstDAO.sol\":1443:1454  totalSupply */\n      0x05\n      0x00\n        /* \"contracts/MyFirstDAO.sol\":1443:1461  totalSupply += 100 */\n      dup3\n      dup3\n      sload\n      tag_143\n      swap2\n      swap1\n      tag_144\n      jump\t// in\n    tag_143:\n      swap3\n      pop\n      pop\n      dup2\n      swap1\n      sstore\n      pop\n        /* \"contracts/MyFirstDAO.sol\":1025:1468  function addMember(address _member) public {... */\n      pop\n      jump\t// out\n        /* \"contracts/MyFirstDAO.sol\":2485:3389  function castVote(... */\n    tag_72:\n        /* \"contracts/MyFirstDAO.sol\":2654:2658  true */\n      0x01\n        /* \"contracts/MyFirstDAO.sol\":2630:2658  isMember[msg.sender] == true */\n      iszero\n      iszero\n        /* \"contracts/MyFirstDAO.sol\":2630:2638  isMember */\n      0x01\n        /* \"contracts/MyFirstDAO.sol\":2630:2650  isMember[msg.sender] */\n      0x00\n        /* \"contracts/MyFirstDAO.sol\":2639:2649  msg.sender */\n      caller\n        /* \"contracts/MyFirstDAO.sol\":2630:2650  isMember[msg.sender] */\n      0xffffffffffffffffffffffffffffffffffffffff\n      and\n      0xffffffffffffffffffffffffffffffffffffffff\n      and\n      dup2\n      mstore\n      0x20\n      add\n      swap1\n      dup2\n      mstore\n      0x20\n      add\n      0x00\n      keccak256\n      0x00\n      swap1\n      sload\n      swap1\n      0x0100\n      exp\n      swap1\n      div\n      0xff\n      and\n        /* \"contracts/MyFirstDAO.sol\":2630:2658  isMember[msg.sender] == true */\n      iszero\n      iszero\n      eq\n        /* \"contracts/MyFirstDAO.sol\":2609:2714  require(... */\n      tag_146\n      jumpi\n      mload(0x40)\n      0x08c379a000000000000000000000000000000000000000000000000000000000\n      dup2\n      mstore\n      0x04\n      add\n      tag_147\n      swap1\n      tag_148\n      jump\t// in\n    tag_147:\n      mload(0x40)\n      dup1\n      swap2\n      sub\n      swap1\n      revert\n    tag_146:\n        /* \"contracts/MyFirstDAO.sol\":2769:2781  _tokenAmount */\n      dup2\n        /* \"contracts/MyFirstDAO.sol\":2745:2753  balances */\n      0x06\n        /* \"contracts/MyFirstDAO.sol\":2745:2765  balances[msg.sender] */\n      0x00\n        /* \"contracts/MyFirstDAO.sol\":2754:2764  msg.sender */\n      caller\n        /* \"contracts/MyFirstDAO.sol\":2745:2765  balances[msg.sender] */\n      0xffffffffffffffffffffffffffffffffffffffff\n      and\n      0xffffffffffffffffffffffffffffffffffffffff\n      and\n      dup2\n      mstore\n      0x20\n      add\n      swap1\n      dup2\n      mstore\n      0x20\n      add\n      0x00\n      keccak256\n      sload\n        /* \"contracts/MyFirstDAO.sol\":2745:2781  balances[msg.sender] >= _tokenAmount */\n      lt\n      iszero\n        /* \"contracts/MyFirstDAO.sol\":2724:2832  require(... */\n      tag_149\n      jumpi\n      mload(0x40)\n      0x08c379a000000000000000000000000000000000000000000000000000000000\n      dup2\n      mstore\n      0x04\n      add\n      tag_150\n      swap1\n      tag_151\n      jump\t// in\n    tag_150:\n      mload(0x40)\n      dup1\n      swap2\n      sub\n      swap1\n      revert\n    tag_149:\n        /* \"contracts/MyFirstDAO.sol\":2897:2902  false */\n      0x00\n        /* \"contracts/MyFirstDAO.sol\":2863:2902  votes[msg.sender][_proposalId] == false */\n      iszero\n      iszero\n        /* \"contracts/MyFirstDAO.sol\":2863:2868  votes */\n      0x03\n        /* \"contracts/MyFirstDAO.sol\":2863:2880  votes[msg.sender] */\n      0x00\n        /* \"contracts/MyFirstDAO.sol\":2869:2879  msg.sender */\n      caller\n        /* \"contracts/MyFirstDAO.sol\":2863:2880  votes[msg.sender] */\n      0xffffffffffffffffffffffffffffffffffffffff\n      and\n      0xffffffffffffffffffffffffffffffffffffffff\n      and\n      dup2\n      mstore\n      0x20\n      add\n      swap1\n      dup2\n      mstore\n      0x20\n      add\n      0x00\n      keccak256\n        /* \"contracts/MyFirstDAO.sol\":2863:2893  votes[msg.sender][_proposalId] */\n      0x00\n        /* \"contracts/MyFirstDAO.sol\":2881:2892  _proposalId */\n      dup6\n        /* \"contracts/MyFirstDAO.sol\":2863:2893  votes[msg.sender][_proposalId] */\n      dup2\n      mstore\n      0x20\n      add\n      swap1\n      dup2\n      mstore\n      0x20\n      add\n      0x00\n      keccak256\n      0x00\n      swap1\n      sload\n      swap1\n      0x0100\n      exp\n      swap1\n      div\n      0xff\n      and\n        /* \"contracts/MyFirstDAO.sol\":2863:2902  votes[msg.sender][_proposalId] == false */\n      iszero\n      iszero\n      eq\n        /* \"contracts/MyFirstDAO.sol\":2842:2968  require(... */\n      tag_152\n      jumpi\n      mload(0x40)\n      0x08c379a000000000000000000000000000000000000000000000000000000000\n      dup2\n      mstore\n      0x04\n      add\n      tag_153\n      swap1\n      tag_154\n      jump\t// in\n    tag_153:\n      mload(0x40)\n      dup1\n      swap2\n      sub\n      swap1\n      revert\n    tag_152:\n        /* \"contracts/MyFirstDAO.sol\":3011:3020  _decision */\n      dup1\n        /* \"contracts/MyFirstDAO.sol\":2978:2983  votes */\n      0x03\n        /* \"contracts/MyFirstDAO.sol\":2978:2995  votes[msg.sender] */\n      0x00\n        /* \"contracts/MyFirstDAO.sol\":2984:2994  msg.sender */\n      caller\n        /* \"contracts/MyFirstDAO.sol\":2978:2995  votes[msg.sender] */\n      0xffffffffffffffffffffffffffffffffffffffff\n      and\n      0xffffffffffffffffffffffffffffffffffffffff\n      and\n      dup2\n      mstore\n      0x20\n      add\n      swap1\n      dup2\n      mstore\n      0x20\n      add\n      0x00\n      keccak256\n        /* \"contracts/MyFirstDAO.sol\":2978:3008  votes[msg.sender][_proposalId] */\n      0x00\n        /* \"contracts/MyFirstDAO.sol\":2996:3007  _proposalId */\n      dup6\n        /* \"contracts/MyFirstDAO.sol\":2978:3008  votes[msg.sender][_proposalId] */\n      dup2\n      mstore\n      0x20\n      add\n      swap1\n      dup2\n      mstore\n      0x20\n      add\n      0x00\n      keccak256\n      0x00\n        /* \"contracts/MyFirstDAO.sol\":2978:3020  votes[msg.sender][_proposalId] = _decision */\n      0x0100\n      exp\n      dup2\n      sload\n      dup2\n      0xff\n      mul\n      not\n      and\n      swap1\n      dup4\n      iszero\n      iszero\n      mul\n      or\n      swap1\n      sstore\n      pop\n        /* \"contracts/MyFirstDAO.sol\":3069:3081  _tokenAmount */\n      dup2\n        /* \"contracts/MyFirstDAO.sol\":3030:3040  memberInfo */\n      0x02\n        /* \"contracts/MyFirstDAO.sol\":3030:3052  memberInfo[msg.sender] */\n      0x00\n        /* \"contracts/MyFirstDAO.sol\":3041:3051  msg.sender */\n      caller\n        /* \"contracts/MyFirstDAO.sol\":3030:3052  memberInfo[msg.sender] */\n      0xffffffffffffffffffffffffffffffffffffffff\n      and\n      0xffffffffffffffffffffffffffffffffffffffff\n      and\n      dup2\n      mstore\n      0x20\n      add\n      swap1\n      dup2\n      mstore\n      0x20\n      add\n      0x00\n      keccak256\n        /* \"contracts/MyFirstDAO.sol\":3030:3065  memberInfo[msg.sender].tokenBalance */\n      0x02\n      add\n      0x00\n        /* \"contracts/MyFirstDAO.sol\":3030:3081  memberInfo[msg.sender].tokenBalance -= _tokenAmount */\n      dup3\n      dup3\n      sload\n      tag_155\n      swap2\n      swap1\n      tag_95\n      jump\t// in\n    tag_155:\n      swap3\n      pop\n      pop\n      dup2\n      swap1\n      sstore\n      pop\n        /* \"contracts/MyFirstDAO.sol\":3127:3139  _tokenAmount */\n      dup2\n        /* \"contracts/MyFirstDAO.sol\":3091:3100  proposals */\n      0x04\n        /* \"contracts/MyFirstDAO.sol\":3101:3112  _proposalId */\n      dup5\n        /* \"contracts/MyFirstDAO.sol\":3091:3113  proposals[_proposalId] */\n      dup2\n      sload\n      dup2\n      lt\n      tag_156\n      jumpi\n      tag_157\n      tag_91\n      jump\t// in\n    tag_157:\n    tag_156:\n      swap1\n      0x00\n      mstore\n      keccak256(0x00, 0x20)\n      swap1\n      0x05\n      mul\n      add\n        /* \"contracts/MyFirstDAO.sol\":3091:3123  proposals[_proposalId].voteCount */\n      0x01\n      add\n      0x00\n        /* \"contracts/MyFirstDAO.sol\":3091:3139  proposals[_proposalId].voteCount += _tokenAmount */\n      dup3\n      dup3\n      sload\n      tag_159\n      swap2\n      swap1\n      tag_144\n      jump\t// in\n    tag_159:\n      swap3\n      pop\n      pop\n      dup2\n      swap1\n      sstore\n      pop\n        /* \"contracts/MyFirstDAO.sol\":3166:3170  true */\n      0x01\n        /* \"contracts/MyFirstDAO.sol\":3153:3170  _decision == true */\n      iszero\n      iszero\n        /* \"contracts/MyFirstDAO.sol\":3153:3162  _decision */\n      dup2\n        /* \"contracts/MyFirstDAO.sol\":3153:3170  _decision == true */\n      iszero\n      iszero\n      sub\n        /* \"contracts/MyFirstDAO.sol\":3149:3321  if (_decision == true) {... */\n      tag_160\n      jumpi\n        /* \"contracts/MyFirstDAO.sol\":3221:3233  _tokenAmount */\n      dup2\n        /* \"contracts/MyFirstDAO.sol\":3186:3195  proposals */\n      0x04\n        /* \"contracts/MyFirstDAO.sol\":3196:3207  _proposalId */\n      dup5\n        /* \"contracts/MyFirstDAO.sol\":3186:3208  proposals[_proposalId] */\n      dup2\n      sload\n      dup2\n      lt\n      tag_161\n      jumpi\n      tag_162\n      tag_91\n      jump\t// in\n    tag_162:\n    tag_161:\n      swap1\n      0x00\n      mstore\n      keccak256(0x00, 0x20)\n      swap1\n      0x05\n      mul\n      add\n        /* \"contracts/MyFirstDAO.sol\":3186:3217  proposals[_proposalId].yesVotes */\n      0x02\n      add\n      0x00\n        /* \"contracts/MyFirstDAO.sol\":3186:3233  proposals[_proposalId].yesVotes += _tokenAmount */\n      dup3\n      dup3\n      sload\n      tag_164\n      swap2\n      swap1\n      tag_144\n      jump\t// in\n    tag_164:\n      swap3\n      pop\n      pop\n      dup2\n      swap1\n      sstore\n      pop\n        /* \"contracts/MyFirstDAO.sol\":3149:3321  if (_decision == true) {... */\n      jump(tag_165)\n    tag_160:\n        /* \"contracts/MyFirstDAO.sol\":3298:3310  _tokenAmount */\n      dup2\n        /* \"contracts/MyFirstDAO.sol\":3264:3273  proposals */\n      0x04\n        /* \"contracts/MyFirstDAO.sol\":3274:3285  _proposalId */\n      dup5\n        /* \"contracts/MyFirstDAO.sol\":3264:3286  proposals[_proposalId] */\n      dup2\n      sload\n      dup2\n      lt\n      tag_166\n      jumpi\n      tag_167\n      tag_91\n      jump\t// in\n    tag_167:\n    tag_166:\n      swap1\n      0x00\n      mstore\n      keccak256(0x00, 0x20)\n      swap1\n      0x05\n      mul\n      add\n        /* \"contracts/MyFirstDAO.sol\":3264:3294  proposals[_proposalId].noVotes */\n      0x03\n      add\n      0x00\n        /* \"contracts/MyFirstDAO.sol\":3264:3310  proposals[_proposalId].noVotes += _tokenAmount */\n      dup3\n      dup3\n      sload\n      tag_169\n      swap2\n      swap1\n      tag_144\n      jump\t// in\n    tag_169:\n      swap3\n      pop\n      pop\n      dup2\n      swap1\n      sstore\n      pop\n        /* \"contracts/MyFirstDAO.sol\":3149:3321  if (_decision == true) {... */\n    tag_165:\n        /* \"contracts/MyFirstDAO.sol\":3356:3367  _proposalId */\n      dup3\n        /* \"contracts/MyFirstDAO.sol\":3344:3354  msg.sender */\n      caller\n        /* \"contracts/MyFirstDAO.sol\":3335:3382  VoteCast(msg.sender, _proposalId, _tokenAmount) */\n      0xffffffffffffffffffffffffffffffffffffffff\n      and\n      0xb4cfecf70861b7b150d8337780d34fb4cbc2114b5fb1fe51a5c5fca1849f7274\n        /* \"contracts/MyFirstDAO.sol\":3369:3381  _tokenAmount */\n      dup5\n        /* \"contracts/MyFirstDAO.sol\":3335:3382  VoteCast(msg.sender, _proposalId, _tokenAmount) */\n      mload(0x40)\n      tag_170\n      swap2\n      swap1\n      tag_34\n      jump\t// in\n    tag_170:\n      mload(0x40)\n      dup1\n      swap2\n      sub\n      swap1\n      log3\n        /* \"contracts/MyFirstDAO.sol\":2485:3389  function castVote(... */\n      pop\n      pop\n      pop\n      jump\t// out\n        /* \"#utility.yul\":7:82   */\n    tag_171:\n        /* \"#utility.yul\":40:46   */\n      0x00\n        /* \"#utility.yul\":73:75   */\n      0x40\n        /* \"#utility.yul\":67:76   */\n      mload\n        /* \"#utility.yul\":57:76   */\n      swap1\n      pop\n        /* \"#utility.yul\":7:82   */\n      swap1\n      jump\t// out\n        /* \"#utility.yul\":88:205   */\n    tag_172:\n        /* \"#utility.yul\":197:198   */\n      0x00\n        /* \"#utility.yul\":194:195   */\n      dup1\n        /* \"#utility.yul\":187:199   */\n      revert\n        /* \"#utility.yul\":211:328   */\n    tag_173:\n        /* \"#utility.yul\":320:321   */\n      0x00\n        /* \"#utility.yul\":317:318   */\n      dup1\n        /* \"#utility.yul\":310:322   */\n      revert\n        /* \"#utility.yul\":334:411   */\n    tag_174:\n        /* \"#utility.yul\":371:378   */\n      0x00\n        /* \"#utility.yul\":400:405   */\n      dup2\n        /* \"#utility.yul\":389:405   */\n      swap1\n      pop\n        /* \"#utility.yul\":334:411   */\n      swap2\n      swap1\n      pop\n      jump\t// out\n        /* \"#utility.yul\":417:539   */\n    tag_175:\n        /* \"#utility.yul\":490:514   */\n      tag_238\n        /* \"#utility.yul\":508:513   */\n      dup2\n        /* \"#utility.yul\":490:514   */\n      tag_174\n      jump\t// in\n    tag_238:\n        /* \"#utility.yul\":483:488   */\n      dup2\n        /* \"#utility.yul\":480:515   */\n      eq\n        /* \"#utility.yul\":470:533   */\n      tag_239\n      jumpi\n        /* \"#utility.yul\":529:530   */\n      0x00\n        /* \"#utility.yul\":526:527   */\n      dup1\n        /* \"#utility.yul\":519:531   */\n      revert\n        /* \"#utility.yul\":470:533   */\n    tag_239:\n        /* \"#utility.yul\":417:539   */\n      pop\n      jump\t// out\n        /* \"#utility.yul\":545:684   */\n    tag_176:\n        /* \"#utility.yul\":591:596   */\n      0x00\n        /* \"#utility.yul\":629:635   */\n      dup2\n        /* \"#utility.yul\":616:636   */\n      calldataload\n        /* \"#utility.yul\":607:636   */\n      swap1\n      pop\n        /* \"#utility.yul\":645:678   */\n      tag_241\n        /* \"#utility.yul\":672:677   */\n      dup2\n        /* \"#utility.yul\":645:678   */\n      tag_175\n      jump\t// in\n    tag_241:\n        /* \"#utility.yul\":545:684   */\n      swap3\n      swap2\n      pop\n      pop\n      jump\t// out\n        /* \"#utility.yul\":690:1019   */\n    tag_20:\n        /* \"#utility.yul\":749:755   */\n      0x00\n        /* \"#utility.yul\":798:800   */\n      0x20\n        /* \"#utility.yul\":786:795   */\n      dup3\n        /* \"#utility.yul\":777:784   */\n      dup5\n        /* \"#utility.yul\":773:796   */\n      sub\n        /* \"#utility.yul\":769:801   */\n      slt\n        /* \"#utility.yul\":766:885   */\n      iszero\n      tag_243\n      jumpi\n        /* \"#utility.yul\":804:883   */\n      tag_244\n      tag_172\n      jump\t// in\n    tag_244:\n        /* \"#utility.yul\":766:885   */\n    tag_243:\n        /* \"#utility.yul\":924:925   */\n      0x00\n        /* \"#utility.yul\":949:1002   */\n      tag_245\n        /* \"#utility.yul\":994:1001   */\n      dup5\n        /* \"#utility.yul\":985:991   */\n      dup3\n        /* \"#utility.yul\":974:983   */\n      dup6\n        /* \"#utility.yul\":970:992   */\n      add\n        /* \"#utility.yul\":949:1002   */\n      tag_176\n      jump\t// in\n    tag_245:\n        /* \"#utility.yul\":939:1002   */\n      swap2\n      pop\n        /* \"#utility.yul\":895:1012   */\n      pop\n        /* \"#utility.yul\":690:1019   */\n      swap3\n      swap2\n      pop\n      pop\n      jump\t// out\n        /* \"#utility.yul\":1025:1124   */\n    tag_177:\n        /* \"#utility.yul\":1077:1083   */\n      0x00\n        /* \"#utility.yul\":1111:1116   */\n      dup2\n        /* \"#utility.yul\":1105:1117   */\n      mload\n        /* \"#utility.yul\":1095:1117   */\n      swap1\n      pop\n        /* \"#utility.yul\":1025:1124   */\n      swap2\n      swap1\n      pop\n      jump\t// out\n        /* \"#utility.yul\":1130:1299   */\n    tag_178:\n        /* \"#utility.yul\":1214:1225   */\n      0x00\n        /* \"#utility.yul\":1248:1254   */\n      dup3\n        /* \"#utility.yul\":1243:1246   */\n      dup3\n        /* \"#utility.yul\":1236:1255   */\n      mstore\n        /* \"#utility.yul\":1288:1292   */\n      0x20\n        /* \"#utility.yul\":1283:1286   */\n      dup3\n        /* \"#utility.yul\":1279:1293   */\n      add\n        /* \"#utility.yul\":1264:1293   */\n      swap1\n      pop\n        /* \"#utility.yul\":1130:1299   */\n      swap3\n      swap2\n      pop\n      pop\n      jump\t// out\n        /* \"#utility.yul\":1305:1551   */\n    tag_179:\n        /* \"#utility.yul\":1386:1387   */\n      0x00\n        /* \"#utility.yul\":1396:1509   */\n    tag_249:\n        /* \"#utility.yul\":1410:1416   */\n      dup4\n        /* \"#utility.yul\":1407:1408   */\n      dup2\n        /* \"#utility.yul\":1404:1417   */\n      lt\n        /* \"#utility.yul\":1396:1509   */\n      iszero\n      tag_251\n      jumpi\n        /* \"#utility.yul\":1495:1496   */\n      dup1\n        /* \"#utility.yul\":1490:1493   */\n      dup3\n        /* \"#utility.yul\":1486:1497   */\n      add\n        /* \"#utility.yul\":1480:1498   */\n      mload\n        /* \"#utility.yul\":1476:1477   */\n      dup2\n        /* \"#utility.yul\":1471:1474   */\n      dup5\n        /* \"#utility.yul\":1467:1478   */\n      add\n        /* \"#utility.yul\":1460:1499   */\n      mstore\n        /* \"#utility.yul\":1432:1434   */\n      0x20\n        /* \"#utility.yul\":1429:1430   */\n      dup2\n        /* \"#utility.yul\":1425:1435   */\n      add\n        /* \"#utility.yul\":1420:1435   */\n      swap1\n      pop\n        /* \"#utility.yul\":1396:1509   */\n      jump(tag_249)\n    tag_251:\n        /* \"#utility.yul\":1543:1544   */\n      0x00\n        /* \"#utility.yul\":1534:1540   */\n      dup5\n        /* \"#utility.yul\":1529:1532   */\n      dup5\n        /* \"#utility.yul\":1525:1541   */\n      add\n        /* \"#utility.yul\":1518:1545   */\n      mstore\n        /* \"#utility.yul\":1367:1551   */\n      pop\n        /* \"#utility.yul\":1305:1551   */\n      pop\n      pop\n      pop\n      jump\t// out\n        /* \"#utility.yul\":1557:1659   */\n    tag_180:\n        /* \"#utility.yul\":1598:1604   */\n      0x00\n        /* \"#utility.yul\":1649:1651   */\n      0x1f\n        /* \"#utility.yul\":1645:1652   */\n      not\n        /* \"#utility.yul\":1640:1642   */\n      0x1f\n        /* \"#utility.yul\":1633:1638   */\n      dup4\n        /* \"#utility.yul\":1629:1643   */\n      add\n        /* \"#utility.yul\":1625:1653   */\n      and\n        /* \"#utility.yul\":1615:1653   */\n      swap1\n      pop\n        /* \"#utility.yul\":1557:1659   */\n      swap2\n      swap1\n      pop\n      jump\t// out\n        /* \"#utility.yul\":1665:2042   */\n    tag_181:\n        /* \"#utility.yul\":1753:1756   */\n      0x00\n        /* \"#utility.yul\":1781:1820   */\n      tag_254\n        /* \"#utility.yul\":1814:1819   */\n      dup3\n        /* \"#utility.yul\":1781:1820   */\n      tag_177\n      jump\t// in\n    tag_254:\n        /* \"#utility.yul\":1836:1907   */\n      tag_255\n        /* \"#utility.yul\":1900:1906   */\n      dup2\n        /* \"#utility.yul\":1895:1898   */\n      dup6\n        /* \"#utility.yul\":1836:1907   */\n      tag_178\n      jump\t// in\n    tag_255:\n        /* \"#utility.yul\":1829:1907   */\n      swap4\n      pop\n        /* \"#utility.yul\":1916:1981   */\n      tag_256\n        /* \"#utility.yul\":1974:1980   */\n      dup2\n        /* \"#utility.yul\":1969:1972   */\n      dup6\n        /* \"#utility.yul\":1962:1966   */\n      0x20\n        /* \"#utility.yul\":1955:1960   */\n      dup7\n        /* \"#utility.yul\":1951:1967   */\n      add\n        /* \"#utility.yul\":1916:1981   */\n      tag_179\n      jump\t// in\n    tag_256:\n        /* \"#utility.yul\":2006:2035   */\n      tag_257\n        /* \"#utility.yul\":2028:2034   */\n      dup2\n        /* \"#utility.yul\":2006:2035   */\n      tag_180\n      jump\t// in\n    tag_257:\n        /* \"#utility.yul\":2001:2004   */\n      dup5\n        /* \"#utility.yul\":1997:2036   */\n      add\n        /* \"#utility.yul\":1990:2036   */\n      swap2\n      pop\n        /* \"#utility.yul\":1757:2042   */\n      pop\n        /* \"#utility.yul\":1665:2042   */\n      swap3\n      swap2\n      pop\n      pop\n      jump\t// out\n        /* \"#utility.yul\":2048:2166   */\n    tag_182:\n        /* \"#utility.yul\":2135:2159   */\n      tag_259\n        /* \"#utility.yul\":2153:2158   */\n      dup2\n        /* \"#utility.yul\":2135:2159   */\n      tag_174\n      jump\t// in\n    tag_259:\n        /* \"#utility.yul\":2130:2133   */\n      dup3\n        /* \"#utility.yul\":2123:2160   */\n      mstore\n        /* \"#utility.yul\":2048:2166   */\n      pop\n      pop\n      jump\t// out\n        /* \"#utility.yul\":2172:2262   */\n    tag_183:\n        /* \"#utility.yul\":2206:2213   */\n      0x00\n        /* \"#utility.yul\":2249:2254   */\n      dup2\n        /* \"#utility.yul\":2242:2255   */\n      iszero\n        /* \"#utility.yul\":2235:2256   */\n      iszero\n        /* \"#utility.yul\":2224:2256   */\n      swap1\n      pop\n        /* \"#utility.yul\":2172:2262   */\n      swap2\n      swap1\n      pop\n      jump\t// out\n        /* \"#utility.yul\":2268:2377   */\n    tag_184:\n        /* \"#utility.yul\":2349:2370   */\n      tag_262\n        /* \"#utility.yul\":2364:2369   */\n      dup2\n        /* \"#utility.yul\":2349:2370   */\n      tag_183\n      jump\t// in\n    tag_262:\n        /* \"#utility.yul\":2344:2347   */\n      dup3\n        /* \"#utility.yul\":2337:2371   */\n      mstore\n        /* \"#utility.yul\":2268:2377   */\n      pop\n      pop\n      jump\t// out\n        /* \"#utility.yul\":2383:3126   */\n    tag_23:\n        /* \"#utility.yul\":2602:2606   */\n      0x00\n        /* \"#utility.yul\":2640:2643   */\n      0xa0\n        /* \"#utility.yul\":2629:2638   */\n      dup3\n        /* \"#utility.yul\":2625:2644   */\n      add\n        /* \"#utility.yul\":2617:2644   */\n      swap1\n      pop\n        /* \"#utility.yul\":2690:2699   */\n      dup2\n        /* \"#utility.yul\":2684:2688   */\n      dup2\n        /* \"#utility.yul\":2680:2700   */\n      sub\n        /* \"#utility.yul\":2676:2677   */\n      0x00\n        /* \"#utility.yul\":2665:2674   */\n      dup4\n        /* \"#utility.yul\":2661:2678   */\n      add\n        /* \"#utility.yul\":2654:2701   */\n      mstore\n        /* \"#utility.yul\":2718:2796   */\n      tag_264\n        /* \"#utility.yul\":2791:2795   */\n      dup2\n        /* \"#utility.yul\":2782:2788   */\n      dup9\n        /* \"#utility.yul\":2718:2796   */\n      tag_181\n      jump\t// in\n    tag_264:\n        /* \"#utility.yul\":2710:2796   */\n      swap1\n      pop\n        /* \"#utility.yul\":2806:2878   */\n      tag_265\n        /* \"#utility.yul\":2874:2876   */\n      0x20\n        /* \"#utility.yul\":2863:2872   */\n      dup4\n        /* \"#utility.yul\":2859:2877   */\n      add\n        /* \"#utility.yul\":2850:2856   */\n      dup8\n        /* \"#utility.yul\":2806:2878   */\n      tag_182\n      jump\t// in\n    tag_265:\n        /* \"#utility.yul\":2888:2960   */\n      tag_266\n        /* \"#utility.yul\":2956:2958   */\n      0x40\n        /* \"#utility.yul\":2945:2954   */\n      dup4\n        /* \"#utility.yul\":2941:2959   */\n      add\n        /* \"#utility.yul\":2932:2938   */\n      dup7\n        /* \"#utility.yul\":2888:2960   */\n      tag_182\n      jump\t// in\n    tag_266:\n        /* \"#utility.yul\":2970:3042   */\n      tag_267\n        /* \"#utility.yul\":3038:3040   */\n      0x60\n        /* \"#utility.yul\":3027:3036   */\n      dup4\n        /* \"#utility.yul\":3023:3041   */\n      add\n        /* \"#utility.yul\":3014:3020   */\n      dup6\n        /* \"#utility.yul\":2970:3042   */\n      tag_182\n      jump\t// in\n    tag_267:\n        /* \"#utility.yul\":3052:3119   */\n      tag_268\n        /* \"#utility.yul\":3114:3117   */\n      0x80\n        /* \"#utility.yul\":3103:3112   */\n      dup4\n        /* \"#utility.yul\":3099:3118   */\n      add\n        /* \"#utility.yul\":3090:3096   */\n      dup5\n        /* \"#utility.yul\":3052:3119   */\n      tag_184\n      jump\t// in\n    tag_268:\n        /* \"#utility.yul\":2383:3126   */\n      swap7\n      swap6\n      pop\n      pop\n      pop\n      pop\n      pop\n      pop\n      jump\t// out\n        /* \"#utility.yul\":3132:3258   */\n    tag_185:\n        /* \"#utility.yul\":3169:3176   */\n      0x00\n        /* \"#utility.yul\":3209:3251   */\n      0xffffffffffffffffffffffffffffffffffffffff\n        /* \"#utility.yul\":3202:3207   */\n      dup3\n        /* \"#utility.yul\":3198:3252   */\n      and\n        /* \"#utility.yul\":3187:3252   */\n      swap1\n      pop\n        /* \"#utility.yul\":3132:3258   */\n      swap2\n      swap1\n      pop\n      jump\t// out\n        /* \"#utility.yul\":3264:3360   */\n    tag_186:\n        /* \"#utility.yul\":3301:3308   */\n      0x00\n        /* \"#utility.yul\":3330:3354   */\n      tag_271\n        /* \"#utility.yul\":3348:3353   */\n      dup3\n        /* \"#utility.yul\":3330:3354   */\n      tag_185\n      jump\t// in\n    tag_271:\n        /* \"#utility.yul\":3319:3354   */\n      swap1\n      pop\n        /* \"#utility.yul\":3264:3360   */\n      swap2\n      swap1\n      pop\n      jump\t// out\n        /* \"#utility.yul\":3366:3488   */\n    tag_187:\n        /* \"#utility.yul\":3439:3463   */\n      tag_273\n        /* \"#utility.yul\":3457:3462   */\n      dup2\n        /* \"#utility.yul\":3439:3463   */\n      tag_186\n      jump\t// in\n    tag_273:\n        /* \"#utility.yul\":3432:3437   */\n      dup2\n        /* \"#utility.yul\":3429:3464   */\n      eq\n        /* \"#utility.yul\":3419:3482   */\n      tag_274\n      jumpi\n        /* \"#utility.yul\":3478:3479   */\n      0x00\n        /* \"#utility.yul\":3475:3476   */\n      dup1\n        /* \"#utility.yul\":3468:3480   */\n      revert\n        /* \"#utility.yul\":3419:3482   */\n    tag_274:\n        /* \"#utility.yul\":3366:3488   */\n      pop\n      jump\t// out\n        /* \"#utility.yul\":3494:3633   */\n    tag_188:\n        /* \"#utility.yul\":3540:3545   */\n      0x00\n        /* \"#utility.yul\":3578:3584   */\n      dup2\n        /* \"#utility.yul\":3565:3585   */\n      calldataload\n        /* \"#utility.yul\":3556:3585   */\n      swap1\n      pop\n        /* \"#utility.yul\":3594:3627   */\n      tag_276\n        /* \"#utility.yul\":3621:3626   */\n      dup2\n        /* \"#utility.yul\":3594:3627   */\n      tag_187\n      jump\t// in\n    tag_276:\n        /* \"#utility.yul\":3494:3633   */\n      swap3\n      swap2\n      pop\n      pop\n      jump\t// out\n        /* \"#utility.yul\":3639:3968   */\n    tag_26:\n        /* \"#utility.yul\":3698:3704   */\n      0x00\n        /* \"#utility.yul\":3747:3749   */\n      0x20\n        /* \"#utility.yul\":3735:3744   */\n      dup3\n        /* \"#utility.yul\":3726:3733   */\n      dup5\n        /* \"#utility.yul\":3722:3745   */\n      sub\n        /* \"#utility.yul\":3718:3750   */\n      slt\n        /* \"#utility.yul\":3715:3834   */\n      iszero\n      tag_278\n      jumpi\n        /* \"#utility.yul\":3753:3832   */\n      tag_279\n      tag_172\n      jump\t// in\n    tag_279:\n        /* \"#utility.yul\":3715:3834   */\n    tag_278:\n        /* \"#utility.yul\":3873:3874   */\n      0x00\n        /* \"#utility.yul\":3898:3951   */\n      tag_280\n        /* \"#utility.yul\":3943:3950   */\n      dup5\n        /* \"#utility.yul\":3934:3940   */\n      dup3\n        /* \"#utility.yul\":3923:3932   */\n      dup6\n        /* \"#utility.yul\":3919:3941   */\n      add\n        /* \"#utility.yul\":3898:3951   */\n      tag_188\n      jump\t// in\n    tag_280:\n        /* \"#utility.yul\":3888:3951   */\n      swap2\n      pop\n        /* \"#utility.yul\":3844:3961   */\n      pop\n        /* \"#utility.yul\":3639:3968   */\n      swap3\n      swap2\n      pop\n      pop\n      jump\t// out\n        /* \"#utility.yul\":3974:4196   */\n    tag_34:\n        /* \"#utility.yul\":4067:4071   */\n      0x00\n        /* \"#utility.yul\":4105:4107   */\n      0x20\n        /* \"#utility.yul\":4094:4103   */\n      dup3\n        /* \"#utility.yul\":4090:4108   */\n      add\n        /* \"#utility.yul\":4082:4108   */\n      swap1\n      pop\n        /* \"#utility.yul\":4118:4189   */\n      tag_282\n        /* \"#utility.yul\":4186:4187   */\n      0x00\n        /* \"#utility.yul\":4175:4184   */\n      dup4\n        /* \"#utility.yul\":4171:4188   */\n      add\n        /* \"#utility.yul\":4162:4168   */\n      dup5\n        /* \"#utility.yul\":4118:4189   */\n      tag_182\n      jump\t// in\n    tag_282:\n        /* \"#utility.yul\":3974:4196   */\n      swap3\n      swap2\n      pop\n      pop\n      jump\t// out\n        /* \"#utility.yul\":4202:4319   */\n    tag_189:\n        /* \"#utility.yul\":4311:4312   */\n      0x00\n        /* \"#utility.yul\":4308:4309   */\n      dup1\n        /* \"#utility.yul\":4301:4313   */\n      revert\n        /* \"#utility.yul\":4325:4442   */\n    tag_190:\n        /* \"#utility.yul\":4434:4435   */\n      0x00\n        /* \"#utility.yul\":4431:4432   */\n      dup1\n        /* \"#utility.yul\":4424:4436   */\n      revert\n        /* \"#utility.yul\":4448:4628   */\n    tag_191:\n        /* \"#utility.yul\":4496:4573   */\n      0x4e487b7100000000000000000000000000000000000000000000000000000000\n        /* \"#utility.yul\":4493:4494   */\n      0x00\n        /* \"#utility.yul\":4486:4574   */\n      mstore\n        /* \"#utility.yul\":4593:4597   */\n      0x41\n        /* \"#utility.yul\":4590:4591   */\n      0x04\n        /* \"#utility.yul\":4583:4598   */\n      mstore\n        /* \"#utility.yul\":4617:4621   */\n      0x24\n        /* \"#utility.yul\":4614:4615   */\n      0x00\n        /* \"#utility.yul\":4607:4622   */\n      revert\n        /* \"#utility.yul\":4634:4915   */\n    tag_192:\n        /* \"#utility.yul\":4717:4744   */\n      tag_287\n        /* \"#utility.yul\":4739:4743   */\n      dup3\n        /* \"#utility.yul\":4717:4744   */\n      tag_180\n      jump\t// in\n    tag_287:\n        /* \"#utility.yul\":4709:4715   */\n      dup2\n        /* \"#utility.yul\":4705:4745   */\n      add\n        /* \"#utility.yul\":4847:4853   */\n      dup2\n        /* \"#utility.yul\":4835:4845   */\n      dup2\n        /* \"#utility.yul\":4832:4854   */\n      lt\n        /* \"#utility.yul\":4811:4829   */\n      0xffffffffffffffff\n        /* \"#utility.yul\":4799:4809   */\n      dup3\n        /* \"#utility.yul\":4796:4830   */\n      gt\n        /* \"#utility.yul\":4793:4855   */\n      or\n        /* \"#utility.yul\":4790:4878   */\n      iszero\n      tag_288\n      jumpi\n        /* \"#utility.yul\":4858:4876   */\n      tag_289\n      tag_191\n      jump\t// in\n    tag_289:\n        /* \"#utility.yul\":4790:4878   */\n    tag_288:\n        /* \"#utility.yul\":4898:4908   */\n      dup1\n        /* \"#utility.yul\":4894:4896   */\n      0x40\n        /* \"#utility.yul\":4887:4909   */\n      mstore\n        /* \"#utility.yul\":4677:4915   */\n      pop\n        /* \"#utility.yul\":4634:4915   */\n      pop\n      pop\n      jump\t// out\n        /* \"#utility.yul\":4921:5050   */\n    tag_193:\n        /* \"#utility.yul\":4955:4961   */\n      0x00\n        /* \"#utility.yul\":4982:5002   */\n      tag_291\n      tag_171\n      jump\t// in\n    tag_291:\n        /* \"#utility.yul\":4972:5002   */\n      swap1\n      pop\n        /* \"#utility.yul\":5011:5044   */\n      tag_292\n        /* \"#utility.yul\":5039:5043   */\n      dup3\n        /* \"#utility.yul\":5031:5037   */\n      dup3\n        /* \"#utility.yul\":5011:5044   */\n      tag_192\n      jump\t// in\n    tag_292:\n        /* \"#utility.yul\":4921:5050   */\n      swap2\n      swap1\n      pop\n      jump\t// out\n        /* \"#utility.yul\":5056:5364   */\n    tag_194:\n        /* \"#utility.yul\":5118:5122   */\n      0x00\n        /* \"#utility.yul\":5208:5226   */\n      0xffffffffffffffff\n        /* \"#utility.yul\":5200:5206   */\n      dup3\n        /* \"#utility.yul\":5197:5227   */\n      gt\n        /* \"#utility.yul\":5194:5250   */\n      iszero\n      tag_294\n      jumpi\n        /* \"#utility.yul\":5230:5248   */\n      tag_295\n      tag_191\n      jump\t// in\n    tag_295:\n        /* \"#utility.yul\":5194:5250   */\n    tag_294:\n        /* \"#utility.yul\":5268:5297   */\n      tag_296\n        /* \"#utility.yul\":5290:5296   */\n      dup3\n        /* \"#utility.yul\":5268:5297   */\n      tag_180\n      jump\t// in\n    tag_296:\n        /* \"#utility.yul\":5260:5297   */\n      swap1\n      pop\n        /* \"#utility.yul\":5352:5356   */\n      0x20\n        /* \"#utility.yul\":5346:5350   */\n      dup2\n        /* \"#utility.yul\":5342:5357   */\n      add\n        /* \"#utility.yul\":5334:5357   */\n      swap1\n      pop\n        /* \"#utility.yul\":5056:5364   */\n      swap2\n      swap1\n      pop\n      jump\t// out\n        /* \"#utility.yul\":5370:5516   */\n    tag_195:\n        /* \"#utility.yul\":5467:5473   */\n      dup3\n        /* \"#utility.yul\":5462:5465   */\n      dup2\n        /* \"#utility.yul\":5457:5460   */\n      dup4\n        /* \"#utility.yul\":5444:5474   */\n      calldatacopy\n        /* \"#utility.yul\":5508:5509   */\n      0x00\n        /* \"#utility.yul\":5499:5505   */\n      dup4\n        /* \"#utility.yul\":5494:5497   */\n      dup4\n        /* \"#utility.yul\":5490:5506   */\n      add\n        /* \"#utility.yul\":5483:5510   */\n      mstore\n        /* \"#utility.yul\":5370:5516   */\n      pop\n      pop\n      pop\n      jump\t// out\n        /* \"#utility.yul\":5522:5947   */\n    tag_196:\n        /* \"#utility.yul\":5600:5605   */\n      0x00\n        /* \"#utility.yul\":5625:5691   */\n      tag_299\n        /* \"#utility.yul\":5641:5690   */\n      tag_300\n        /* \"#utility.yul\":5683:5689   */\n      dup5\n        /* \"#utility.yul\":5641:5690   */\n      tag_194\n      jump\t// in\n    tag_300:\n        /* \"#utility.yul\":5625:5691   */\n      tag_193\n      jump\t// in\n    tag_299:\n        /* \"#utility.yul\":5616:5691   */\n      swap1\n      pop\n        /* \"#utility.yul\":5714:5720   */\n      dup3\n        /* \"#utility.yul\":5707:5712   */\n      dup2\n        /* \"#utility.yul\":5700:5721   */\n      mstore\n        /* \"#utility.yul\":5752:5756   */\n      0x20\n        /* \"#utility.yul\":5745:5750   */\n      dup2\n        /* \"#utility.yul\":5741:5757   */\n      add\n        /* \"#utility.yul\":5790:5793   */\n      dup5\n        /* \"#utility.yul\":5781:5787   */\n      dup5\n        /* \"#utility.yul\":5776:5779   */\n      dup5\n        /* \"#utility.yul\":5772:5788   */\n      add\n        /* \"#utility.yul\":5769:5794   */\n      gt\n        /* \"#utility.yul\":5766:5878   */\n      iszero\n      tag_301\n      jumpi\n        /* \"#utility.yul\":5797:5876   */\n      tag_302\n      tag_190\n      jump\t// in\n    tag_302:\n        /* \"#utility.yul\":5766:5878   */\n    tag_301:\n        /* \"#utility.yul\":5887:5941   */\n      tag_303\n        /* \"#utility.yul\":5934:5940   */\n      dup5\n        /* \"#utility.yul\":5929:5932   */\n      dup3\n        /* \"#utility.yul\":5924:5927   */\n      dup6\n        /* \"#utility.yul\":5887:5941   */\n      tag_195\n      jump\t// in\n    tag_303:\n        /* \"#utility.yul\":5606:5947   */\n      pop\n        /* \"#utility.yul\":5522:5947   */\n      swap4\n      swap3\n      pop\n      pop\n      pop\n      jump\t// out\n        /* \"#utility.yul\":5967:6307   */\n    tag_197:\n        /* \"#utility.yul\":6023:6028   */\n      0x00\n        /* \"#utility.yul\":6072:6075   */\n      dup3\n        /* \"#utility.yul\":6065:6069   */\n      0x1f\n        /* \"#utility.yul\":6057:6063   */\n      dup4\n        /* \"#utility.yul\":6053:6070   */\n      add\n        /* \"#utility.yul\":6049:6076   */\n      slt\n        /* \"#utility.yul\":6039:6161   */\n      tag_305\n      jumpi\n        /* \"#utility.yul\":6080:6159   */\n      tag_306\n      tag_189\n      jump\t// in\n    tag_306:\n        /* \"#utility.yul\":6039:6161   */\n    tag_305:\n        /* \"#utility.yul\":6197:6203   */\n      dup2\n        /* \"#utility.yul\":6184:6204   */\n      calldataload\n        /* \"#utility.yul\":6222:6301   */\n      tag_307\n        /* \"#utility.yul\":6297:6300   */\n      dup5\n        /* \"#utility.yul\":6289:6295   */\n      dup3\n        /* \"#utility.yul\":6282:6286   */\n      0x20\n        /* \"#utility.yul\":6274:6280   */\n      dup7\n        /* \"#utility.yul\":6270:6287   */\n      add\n        /* \"#utility.yul\":6222:6301   */\n      tag_196\n      jump\t// in\n    tag_307:\n        /* \"#utility.yul\":6213:6301   */\n      swap2\n      pop\n        /* \"#utility.yul\":6029:6307   */\n      pop\n        /* \"#utility.yul\":5967:6307   */\n      swap3\n      swap2\n      pop\n      pop\n      jump\t// out\n        /* \"#utility.yul\":6313:6822   */\n    tag_41:\n        /* \"#utility.yul\":6382:6388   */\n      0x00\n        /* \"#utility.yul\":6431:6433   */\n      0x20\n        /* \"#utility.yul\":6419:6428   */\n      dup3\n        /* \"#utility.yul\":6410:6417   */\n      dup5\n        /* \"#utility.yul\":6406:6429   */\n      sub\n        /* \"#utility.yul\":6402:6434   */\n      slt\n        /* \"#utility.yul\":6399:6518   */\n      iszero\n      tag_309\n      jumpi\n        /* \"#utility.yul\":6437:6516   */\n      tag_310\n      tag_172\n      jump\t// in\n    tag_310:\n        /* \"#utility.yul\":6399:6518   */\n    tag_309:\n        /* \"#utility.yul\":6585:6586   */\n      0x00\n        /* \"#utility.yul\":6574:6583   */\n      dup3\n        /* \"#utility.yul\":6570:6587   */\n      add\n        /* \"#utility.yul\":6557:6588   */\n      calldataload\n        /* \"#utility.yul\":6615:6633   */\n      0xffffffffffffffff\n        /* \"#utility.yul\":6607:6613   */\n      dup2\n        /* \"#utility.yul\":6604:6634   */\n      gt\n        /* \"#utility.yul\":6601:6718   */\n      iszero\n      tag_311\n      jumpi\n        /* \"#utility.yul\":6637:6716   */\n      tag_312\n      tag_173\n      jump\t// in\n    tag_312:\n        /* \"#utility.yul\":6601:6718   */\n    tag_311:\n        /* \"#utility.yul\":6742:6805   */\n      tag_313\n        /* \"#utility.yul\":6797:6804   */\n      dup5\n        /* \"#utility.yul\":6788:6794   */\n      dup3\n        /* \"#utility.yul\":6777:6786   */\n      dup6\n        /* \"#utility.yul\":6773:6795   */\n      add\n        /* \"#utility.yul\":6742:6805   */\n      tag_197\n      jump\t// in\n    tag_313:\n        /* \"#utility.yul\":6732:6805   */\n      swap2\n      pop\n        /* \"#utility.yul\":6528:6815   */\n      pop\n        /* \"#utility.yul\":6313:6822   */\n      swap3\n      swap2\n      pop\n      pop\n      jump\t// out\n        /* \"#utility.yul\":6828:6946   */\n    tag_198:\n        /* \"#utility.yul\":6915:6939   */\n      tag_315\n        /* \"#utility.yul\":6933:6938   */\n      dup2\n        /* \"#utility.yul\":6915:6939   */\n      tag_186\n      jump\t// in\n    tag_315:\n        /* \"#utility.yul\":6910:6913   */\n      dup3\n        /* \"#utility.yul\":6903:6940   */\n      mstore\n        /* \"#utility.yul\":6828:6946   */\n      pop\n      pop\n      jump\t// out\n        /* \"#utility.yul\":6952:7174   */\n    tag_47:\n        /* \"#utility.yul\":7045:7049   */\n      0x00\n        /* \"#utility.yul\":7083:7085   */\n      0x20\n        /* \"#utility.yul\":7072:7081   */\n      dup3\n        /* \"#utility.yul\":7068:7086   */\n      add\n        /* \"#utility.yul\":7060:7086   */\n      swap1\n      pop\n        /* \"#utility.yul\":7096:7167   */\n      tag_317\n        /* \"#utility.yul\":7164:7165   */\n      0x00\n        /* \"#utility.yul\":7153:7162   */\n      dup4\n        /* \"#utility.yul\":7149:7166   */\n      add\n        /* \"#utility.yul\":7140:7146   */\n      dup5\n        /* \"#utility.yul\":7096:7167   */\n      tag_198\n      jump\t// in\n    tag_317:\n        /* \"#utility.yul\":6952:7174   */\n      swap3\n      swap2\n      pop\n      pop\n      jump\t// out\n        /* \"#utility.yul\":7180:7654   */\n    tag_53:\n        /* \"#utility.yul\":7248:7254   */\n      0x00\n        /* \"#utility.yul\":7256:7262   */\n      dup1\n        /* \"#utility.yul\":7305:7307   */\n      0x40\n        /* \"#utility.yul\":7293:7302   */\n      dup4\n        /* \"#utility.yul\":7284:7291   */\n      dup6\n        /* \"#utility.yul\":7280:7303   */\n      sub\n        /* \"#utility.yul\":7276:7308   */\n      slt\n        /* \"#utility.yul\":7273:7392   */\n      iszero\n      tag_319\n      jumpi\n        /* \"#utility.yul\":7311:7390   */\n      tag_320\n      tag_172\n      jump\t// in\n    tag_320:\n        /* \"#utility.yul\":7273:7392   */\n    tag_319:\n        /* \"#utility.yul\":7431:7432   */\n      0x00\n        /* \"#utility.yul\":7456:7509   */\n      tag_321\n        /* \"#utility.yul\":7501:7508   */\n      dup6\n        /* \"#utility.yul\":7492:7498   */\n      dup3\n        /* \"#utility.yul\":7481:7490   */\n      dup7\n        /* \"#utility.yul\":7477:7499   */\n      add\n        /* \"#utility.yul\":7456:7509   */\n      tag_188\n      jump\t// in\n    tag_321:\n        /* \"#utility.yul\":7446:7509   */\n      swap3\n      pop\n        /* \"#utility.yul\":7402:7519   */\n      pop\n        /* \"#utility.yul\":7558:7560   */\n      0x20\n        /* \"#utility.yul\":7584:7637   */\n      tag_322\n        /* \"#utility.yul\":7629:7636   */\n      dup6\n        /* \"#utility.yul\":7620:7626   */\n      dup3\n        /* \"#utility.yul\":7609:7618   */\n      dup7\n        /* \"#utility.yul\":7605:7627   */\n      add\n        /* \"#utility.yul\":7584:7637   */\n      tag_176\n      jump\t// in\n    tag_322:\n        /* \"#utility.yul\":7574:7637   */\n      swap2\n      pop\n        /* \"#utility.yul\":7529:7647   */\n      pop\n        /* \"#utility.yul\":7180:7654   */\n      swap3\n      pop\n      swap3\n      swap1\n      pop\n      jump\t// out\n        /* \"#utility.yul\":7660:7870   */\n    tag_56:\n        /* \"#utility.yul\":7747:7751   */\n      0x00\n        /* \"#utility.yul\":7785:7787   */\n      0x20\n        /* \"#utility.yul\":7774:7783   */\n      dup3\n        /* \"#utility.yul\":7770:7788   */\n      add\n        /* \"#utility.yul\":7762:7788   */\n      swap1\n      pop\n        /* \"#utility.yul\":7798:7863   */\n      tag_324\n        /* \"#utility.yul\":7860:7861   */\n      0x00\n        /* \"#utility.yul\":7849:7858   */\n      dup4\n        /* \"#utility.yul\":7845:7862   */\n      add\n        /* \"#utility.yul\":7836:7842   */\n      dup5\n        /* \"#utility.yul\":7798:7863   */\n      tag_184\n      jump\t// in\n    tag_324:\n        /* \"#utility.yul\":7660:7870   */\n      swap3\n      swap2\n      pop\n      pop\n      jump\t// out\n        /* \"#utility.yul\":7876:8318   */\n    tag_65:\n        /* \"#utility.yul\":8025:8029   */\n      0x00\n        /* \"#utility.yul\":8063:8065   */\n      0x60\n        /* \"#utility.yul\":8052:8061   */\n      dup3\n        /* \"#utility.yul\":8048:8066   */\n      add\n        /* \"#utility.yul\":8040:8066   */\n      swap1\n      pop\n        /* \"#utility.yul\":8076:8147   */\n      tag_326\n        /* \"#utility.yul\":8144:8145   */\n      0x00\n        /* \"#utility.yul\":8133:8142   */\n      dup4\n        /* \"#utility.yul\":8129:8146   */\n      add\n        /* \"#utility.yul\":8120:8126   */\n      dup7\n        /* \"#utility.yul\":8076:8147   */\n      tag_198\n      jump\t// in\n    tag_326:\n        /* \"#utility.yul\":8157:8229   */\n      tag_327\n        /* \"#utility.yul\":8225:8227   */\n      0x20\n        /* \"#utility.yul\":8214:8223   */\n      dup4\n        /* \"#utility.yul\":8210:8228   */\n      add\n        /* \"#utility.yul\":8201:8207   */\n      dup6\n        /* \"#utility.yul\":8157:8229   */\n      tag_182\n      jump\t// in\n    tag_327:\n        /* \"#utility.yul\":8239:8311   */\n      tag_328\n        /* \"#utility.yul\":8307:8309   */\n      0x40\n        /* \"#utility.yul\":8296:8305   */\n      dup4\n        /* \"#utility.yul\":8292:8310   */\n      add\n        /* \"#utility.yul\":8283:8289   */\n      dup5\n        /* \"#utility.yul\":8239:8311   */\n      tag_182\n      jump\t// in\n    tag_328:\n        /* \"#utility.yul\":7876:8318   */\n      swap5\n      swap4\n      pop\n      pop\n      pop\n      pop\n      jump\t// out\n        /* \"#utility.yul\":8324:8440   */\n    tag_199:\n        /* \"#utility.yul\":8394:8415   */\n      tag_330\n        /* \"#utility.yul\":8409:8414   */\n      dup2\n        /* \"#utility.yul\":8394:8415   */\n      tag_183\n      jump\t// in\n    tag_330:\n        /* \"#utility.yul\":8387:8392   */\n      dup2\n        /* \"#utility.yul\":8384:8416   */\n      eq\n        /* \"#utility.yul\":8374:8434   */\n      tag_331\n      jumpi\n        /* \"#utility.yul\":8430:8431   */\n      0x00\n        /* \"#utility.yul\":8427:8428   */\n      dup1\n        /* \"#utility.yul\":8420:8432   */\n      revert\n        /* \"#utility.yul\":8374:8434   */\n    tag_331:\n        /* \"#utility.yul\":8324:8440   */\n      pop\n      jump\t// out\n        /* \"#utility.yul\":8446:8579   */\n    tag_200:\n        /* \"#utility.yul\":8489:8494   */\n      0x00\n        /* \"#utility.yul\":8527:8533   */\n      dup2\n        /* \"#utility.yul\":8514:8534   */\n      calldataload\n        /* \"#utility.yul\":8505:8534   */\n      swap1\n      pop\n        /* \"#utility.yul\":8543:8573   */\n      tag_333\n        /* \"#utility.yul\":8567:8572   */\n      dup2\n        /* \"#utility.yul\":8543:8573   */\n      tag_199\n      jump\t// in\n    tag_333:\n        /* \"#utility.yul\":8446:8579   */\n      swap3\n      swap2\n      pop\n      pop\n      jump\t// out\n        /* \"#utility.yul\":8585:9198   */\n    tag_71:\n        /* \"#utility.yul\":8659:8665   */\n      0x00\n        /* \"#utility.yul\":8667:8673   */\n      dup1\n        /* \"#utility.yul\":8675:8681   */\n      0x00\n        /* \"#utility.yul\":8724:8726   */\n      0x60\n        /* \"#utility.yul\":8712:8721   */\n      dup5\n        /* \"#utility.yul\":8703:8710   */\n      dup7\n        /* \"#utility.yul\":8699:8722   */\n      sub\n        /* \"#utility.yul\":8695:8727   */\n      slt\n        /* \"#utility.yul\":8692:8811   */\n      iszero\n      tag_335\n      jumpi\n        /* \"#utility.yul\":8730:8809   */\n      tag_336\n      tag_172\n      jump\t// in\n    tag_336:\n        /* \"#utility.yul\":8692:8811   */\n    tag_335:\n        /* \"#utility.yul\":8850:8851   */\n      0x00\n        /* \"#utility.yul\":8875:8928   */\n      tag_337\n        /* \"#utility.yul\":8920:8927   */\n      dup7\n        /* \"#utility.yul\":8911:8917   */\n      dup3\n        /* \"#utility.yul\":8900:8909   */\n      dup8\n        /* \"#utility.yul\":8896:8918   */\n      add\n        /* \"#utility.yul\":8875:8928   */\n      tag_176\n      jump\t// in\n    tag_337:\n        /* \"#utility.yul\":8865:8928   */\n      swap4\n      pop\n        /* \"#utility.yul\":8821:8938   */\n      pop\n        /* \"#utility.yul\":8977:8979   */\n      0x20\n        /* \"#utility.yul\":9003:9056   */\n      tag_338\n        /* \"#utility.yul\":9048:9055   */\n      dup7\n        /* \"#utility.yul\":9039:9045   */\n      dup3\n        /* \"#utility.yul\":9028:9037   */\n      dup8\n        /* \"#utility.yul\":9024:9046   */\n      add\n        /* \"#utility.yul\":9003:9056   */\n      tag_176\n      jump\t// in\n    tag_338:\n        /* \"#utility.yul\":8993:9056   */\n      swap3\n      pop\n        /* \"#utility.yul\":8948:9066   */\n      pop\n        /* \"#utility.yul\":9105:9107   */\n      0x40\n        /* \"#utility.yul\":9131:9181   */\n      tag_339\n        /* \"#utility.yul\":9173:9180   */\n      dup7\n        /* \"#utility.yul\":9164:9170   */\n      dup3\n        /* \"#utility.yul\":9153:9162   */\n      dup8\n        /* \"#utility.yul\":9149:9171   */\n      add\n        /* \"#utility.yul\":9131:9181   */\n      tag_200\n      jump\t// in\n    tag_339:\n        /* \"#utility.yul\":9121:9181   */\n      swap2\n      pop\n        /* \"#utility.yul\":9076:9191   */\n      pop\n        /* \"#utility.yul\":8585:9198   */\n      swap3\n      pop\n      swap3\n      pop\n      swap3\n      jump\t// out\n        /* \"#utility.yul\":9204:9384   */\n    tag_201:\n        /* \"#utility.yul\":9252:9329   */\n      0x4e487b7100000000000000000000000000000000000000000000000000000000\n        /* \"#utility.yul\":9249:9250   */\n      0x00\n        /* \"#utility.yul\":9242:9330   */\n      mstore\n        /* \"#utility.yul\":9349:9353   */\n      0x22\n        /* \"#utility.yul\":9346:9347   */\n      0x04\n        /* \"#utility.yul\":9339:9354   */\n      mstore\n        /* \"#utility.yul\":9373:9377   */\n      0x24\n        /* \"#utility.yul\":9370:9371   */\n      0x00\n        /* \"#utility.yul\":9363:9378   */\n      revert\n        /* \"#utility.yul\":9390:9710   */\n    tag_76:\n        /* \"#utility.yul\":9434:9440   */\n      0x00\n        /* \"#utility.yul\":9471:9472   */\n      0x02\n        /* \"#utility.yul\":9465:9469   */\n      dup3\n        /* \"#utility.yul\":9461:9473   */\n      div\n        /* \"#utility.yul\":9451:9473   */\n      swap1\n      pop\n        /* \"#utility.yul\":9518:9519   */\n      0x01\n        /* \"#utility.yul\":9512:9516   */\n      dup3\n        /* \"#utility.yul\":9508:9520   */\n      and\n        /* \"#utility.yul\":9539:9557   */\n      dup1\n        /* \"#utility.yul\":9529:9610   */\n      tag_342\n      jumpi\n        /* \"#utility.yul\":9595:9599   */\n      0x7f\n        /* \"#utility.yul\":9587:9593   */\n      dup3\n        /* \"#utility.yul\":9583:9600   */\n      and\n        /* \"#utility.yul\":9573:9600   */\n      swap2\n      pop\n        /* \"#utility.yul\":9529:9610   */\n    tag_342:\n        /* \"#utility.yul\":9657:9659   */\n      0x20\n        /* \"#utility.yul\":9649:9655   */\n      dup3\n        /* \"#utility.yul\":9646:9660   */\n      lt\n        /* \"#utility.yul\":9626:9644   */\n      dup2\n        /* \"#utility.yul\":9623:9661   */\n      sub\n        /* \"#utility.yul\":9620:9704   */\n      tag_343\n      jumpi\n        /* \"#utility.yul\":9676:9694   */\n      tag_344\n      tag_201\n      jump\t// in\n    tag_344:\n        /* \"#utility.yul\":9620:9704   */\n    tag_343:\n        /* \"#utility.yul\":9441:9710   */\n      pop\n        /* \"#utility.yul\":9390:9710   */\n      swap2\n      swap1\n      pop\n      jump\t// out\n        /* \"#utility.yul\":9716:9887   */\n    tag_202:\n        /* \"#utility.yul\":9856:9879   */\n      0x6d656d62657220646f6573206e6f742065786973740000000000000000000000\n        /* \"#utility.yul\":9852:9853   */\n      0x00\n        /* \"#utility.yul\":9844:9850   */\n      dup3\n        /* \"#utility.yul\":9840:9854   */\n      add\n        /* \"#utility.yul\":9833:9880   */\n      mstore\n        /* \"#utility.yul\":9716:9887   */\n      pop\n      jump\t// out\n        /* \"#utility.yul\":9893:10259   */\n    tag_203:\n        /* \"#utility.yul\":10035:10038   */\n      0x00\n        /* \"#utility.yul\":10056:10123   */\n      tag_347\n        /* \"#utility.yul\":10120:10122   */\n      0x15\n        /* \"#utility.yul\":10115:10118   */\n      dup4\n        /* \"#utility.yul\":10056:10123   */\n      tag_178\n      jump\t// in\n    tag_347:\n        /* \"#utility.yul\":10049:10123   */\n      swap2\n      pop\n        /* \"#utility.yul\":10132:10225   */\n      tag_348\n        /* \"#utility.yul\":10221:10224   */\n      dup3\n        /* \"#utility.yul\":10132:10225   */\n      tag_202\n      jump\t// in\n    tag_348:\n        /* \"#utility.yul\":10250:10252   */\n      0x20\n        /* \"#utility.yul\":10245:10248   */\n      dup3\n        /* \"#utility.yul\":10241:10253   */\n      add\n        /* \"#utility.yul\":10234:10253   */\n      swap1\n      pop\n        /* \"#utility.yul\":9893:10259   */\n      swap2\n      swap1\n      pop\n      jump\t// out\n        /* \"#utility.yul\":10265:10684   */\n    tag_85:\n        /* \"#utility.yul\":10431:10435   */\n      0x00\n        /* \"#utility.yul\":10469:10471   */\n      0x20\n        /* \"#utility.yul\":10458:10467   */\n      dup3\n        /* \"#utility.yul\":10454:10472   */\n      add\n        /* \"#utility.yul\":10446:10472   */\n      swap1\n      pop\n        /* \"#utility.yul\":10518:10527   */\n      dup2\n        /* \"#utility.yul\":10512:10516   */\n      dup2\n        /* \"#utility.yul\":10508:10528   */\n      sub\n        /* \"#utility.yul\":10504:10505   */\n      0x00\n        /* \"#utility.yul\":10493:10502   */\n      dup4\n        /* \"#utility.yul\":10489:10506   */\n      add\n        /* \"#utility.yul\":10482:10529   */\n      mstore\n        /* \"#utility.yul\":10546:10677   */\n      tag_350\n        /* \"#utility.yul\":10672:10676   */\n      dup2\n        /* \"#utility.yul\":10546:10677   */\n      tag_203\n      jump\t// in\n    tag_350:\n        /* \"#utility.yul\":10538:10677   */\n      swap1\n      pop\n        /* \"#utility.yul\":10265:10684   */\n      swap2\n      swap1\n      pop\n      jump\t// out\n        /* \"#utility.yul\":10690:10870   */\n    tag_91:\n        /* \"#utility.yul\":10738:10815   */\n      0x4e487b7100000000000000000000000000000000000000000000000000000000\n        /* \"#utility.yul\":10735:10736   */\n      0x00\n        /* \"#utility.yul\":10728:10816   */\n      mstore\n        /* \"#utility.yul\":10835:10839   */\n      0x32\n        /* \"#utility.yul\":10832:10833   */\n      0x04\n        /* \"#utility.yul\":10825:10840   */\n      mstore\n        /* \"#utility.yul\":10859:10863   */\n      0x24\n        /* \"#utility.yul\":10856:10857   */\n      0x00\n        /* \"#utility.yul\":10849:10864   */\n      revert\n        /* \"#utility.yul\":10876:11056   */\n    tag_204:\n        /* \"#utility.yul\":10924:11001   */\n      0x4e487b7100000000000000000000000000000000000000000000000000000000\n        /* \"#utility.yul\":10921:10922   */\n      0x00\n        /* \"#utility.yul\":10914:11002   */\n      mstore\n        /* \"#utility.yul\":11021:11025   */\n      0x11\n        /* \"#utility.yul\":11018:11019   */\n      0x04\n        /* \"#utility.yul\":11011:11026   */\n      mstore\n        /* \"#utility.yul\":11045:11049   */\n      0x24\n        /* \"#utility.yul\":11042:11043   */\n      0x00\n        /* \"#utility.yul\":11035:11050   */\n      revert\n        /* \"#utility.yul\":11062:11256   */\n    tag_95:\n        /* \"#utility.yul\":11102:11106   */\n      0x00\n        /* \"#utility.yul\":11122:11142   */\n      tag_354\n        /* \"#utility.yul\":11140:11141   */\n      dup3\n        /* \"#utility.yul\":11122:11142   */\n      tag_174\n      jump\t// in\n    tag_354:\n        /* \"#utility.yul\":11117:11142   */\n      swap2\n      pop\n        /* \"#utility.yul\":11156:11176   */\n      tag_355\n        /* \"#utility.yul\":11174:11175   */\n      dup4\n        /* \"#utility.yul\":11156:11176   */\n      tag_174\n      jump\t// in\n    tag_355:\n        /* \"#utility.yul\":11151:11176   */\n      swap3\n      pop\n        /* \"#utility.yul\":11200:11201   */\n      dup3\n        /* \"#utility.yul\":11197:11198   */\n      dup3\n        /* \"#utility.yul\":11193:11202   */\n      sub\n        /* \"#utility.yul\":11185:11202   */\n      swap1\n      pop\n        /* \"#utility.yul\":11224:11225   */\n      dup2\n        /* \"#utility.yul\":11218:11222   */\n      dup2\n        /* \"#utility.yul\":11215:11226   */\n      gt\n        /* \"#utility.yul\":11212:11249   */\n      iszero\n      tag_356\n      jumpi\n        /* \"#utility.yul\":11229:11247   */\n      tag_357\n      tag_204\n      jump\t// in\n    tag_357:\n        /* \"#utility.yul\":11212:11249   */\n    tag_356:\n        /* \"#utility.yul\":11062:11256   */\n      swap3\n      swap2\n      pop\n      pop\n      jump\t// out\n        /* \"#utility.yul\":11262:11442   */\n    tag_104:\n        /* \"#utility.yul\":11310:11387   */\n      0x4e487b7100000000000000000000000000000000000000000000000000000000\n        /* \"#utility.yul\":11307:11308   */\n      0x00\n        /* \"#utility.yul\":11300:11388   */\n      mstore\n        /* \"#utility.yul\":11407:11411   */\n      0x31\n        /* \"#utility.yul\":11404:11405   */\n      0x04\n        /* \"#utility.yul\":11397:11412   */\n      mstore\n        /* \"#utility.yul\":11431:11435   */\n      0x24\n        /* \"#utility.yul\":11428:11429   */\n      0x00\n        /* \"#utility.yul\":11421:11436   */\n      revert\n        /* \"#utility.yul\":11448:11681   */\n    tag_107:\n        /* \"#utility.yul\":11487:11490   */\n      0x00\n        /* \"#utility.yul\":11510:11534   */\n      tag_360\n        /* \"#utility.yul\":11528:11533   */\n      dup3\n        /* \"#utility.yul\":11510:11534   */\n      tag_174\n      jump\t// in\n    tag_360:\n        /* \"#utility.yul\":11501:11534   */\n      swap2\n      pop\n        /* \"#utility.yul\":11556:11622   */\n      0xffffffffffffffffffffffffffffffffffffffffffffffffffffffffffffffff\n        /* \"#utility.yul\":11549:11554   */\n      dup3\n        /* \"#utility.yul\":11546:11623   */\n      sub\n        /* \"#utility.yul\":11543:11646   */\n      tag_361\n      jumpi\n        /* \"#utility.yul\":11626:11644   */\n      tag_362\n      tag_204\n      jump\t// in\n    tag_362:\n        /* \"#utility.yul\":11543:11646   */\n    tag_361:\n        /* \"#utility.yul\":11673:11674   */\n      0x01\n        /* \"#utility.yul\":11666:11671   */\n      dup3\n        /* \"#utility.yul\":11662:11675   */\n      add\n        /* \"#utility.yul\":11655:11675   */\n      swap1\n      pop\n        /* \"#utility.yul\":11448:11681   */\n      swap2\n      swap1\n      pop\n      jump\t// out\n        /* \"#utility.yul\":11687:11908   */\n    tag_205:\n        /* \"#utility.yul\":11827:11861   */\n      0x50726f706f73616c2068617320616c7265616479206265656e20657865637574\n        /* \"#utility.yul\":11823:11824   */\n      0x00\n        /* \"#utility.yul\":11815:11821   */\n      dup3\n        /* \"#utility.yul\":11811:11825   */\n      add\n        /* \"#utility.yul\":11804:11862   */\n      mstore\n        /* \"#utility.yul\":11896:11900   */\n      0x6564000000000000000000000000000000000000000000000000000000000000\n        /* \"#utility.yul\":11891:11893   */\n      0x20\n        /* \"#utility.yul\":11883:11889   */\n      dup3\n        /* \"#utility.yul\":11879:11894   */\n      add\n        /* \"#utility.yul\":11872:11901   */\n      mstore\n        /* \"#utility.yul\":11687:11908   */\n      pop\n      jump\t// out\n        /* \"#utility.yul\":11914:12280   */\n    tag_206:\n        /* \"#utility.yul\":12056:12059   */\n      0x00\n        /* \"#utility.yul\":12077:12144   */\n      tag_365\n        /* \"#utility.yul\":12141:12143   */\n      0x22\n        /* \"#utility.yul\":12136:12139   */\n      dup4\n        /* \"#utility.yul\":12077:12144   */\n      tag_178\n      jump\t// in\n    tag_365:\n        /* \"#utility.yul\":12070:12144   */\n      swap2\n      pop\n        /* \"#utility.yul\":12153:12246   */\n      tag_366\n        /* \"#utility.yul\":12242:12245   */\n      dup3\n        /* \"#utility.yul\":12153:12246   */\n      tag_205\n      jump\t// in\n    tag_366:\n        /* \"#utility.yul\":12271:12273   */\n      0x40\n        /* \"#utility.yul\":12266:12269   */\n      dup3\n        /* \"#utility.yul\":12262:12274   */\n      add\n        /* \"#utility.yul\":12255:12274   */\n      swap1\n      pop\n        /* \"#utility.yul\":11914:12280   */\n      swap2\n      swap1\n      pop\n      jump\t// out\n        /* \"#utility.yul\":12286:12705   */\n    tag_115:\n        /* \"#utility.yul\":12452:12456   */\n      0x00\n        /* \"#utility.yul\":12490:12492   */\n      0x20\n        /* \"#utility.yul\":12479:12488   */\n      dup3\n        /* \"#utility.yul\":12475:12493   */\n      add\n        /* \"#utility.yul\":12467:12493   */\n      swap1\n      pop\n        /* \"#utility.yul\":12539:12548   */\n      dup2\n        /* \"#utility.yul\":12533:12537   */\n      dup2\n        /* \"#utility.yul\":12529:12549   */\n      sub\n        /* \"#utility.yul\":12525:12526   */\n      0x00\n        /* \"#utility.yul\":12514:12523   */\n      dup4\n        /* \"#utility.yul\":12510:12527   */\n      add\n        /* \"#utility.yul\":12503:12550   */\n      mstore\n        /* \"#utility.yul\":12567:12698   */\n      tag_368\n        /* \"#utility.yul\":12693:12697   */\n      dup2\n        /* \"#utility.yul\":12567:12698   */\n      tag_206\n      jump\t// in\n    tag_368:\n        /* \"#utility.yul\":12559:12698   */\n      swap1\n      pop\n        /* \"#utility.yul\":12286:12705   */\n      swap2\n      swap1\n      pop\n      jump\t// out\n        /* \"#utility.yul\":12711:12887   */\n    tag_207:\n        /* \"#utility.yul\":12851:12879   */\n      0x50726f706f73616c20686173206265656e20617070726f766564000000000000\n        /* \"#utility.yul\":12847:12848   */\n      0x00\n        /* \"#utility.yul\":12839:12845   */\n      dup3\n        /* \"#utility.yul\":12835:12849   */\n      add\n        /* \"#utility.yul\":12828:12880   */\n      mstore\n        /* \"#utility.yul\":12711:12887   */\n      pop\n      jump\t// out\n        /* \"#utility.yul\":12893:13259   */\n    tag_208:\n        /* \"#utility.yul\":13035:13038   */\n      0x00\n        /* \"#utility.yul\":13056:13123   */\n      tag_371\n        /* \"#utility.yul\":13120:13122   */\n      0x1a\n        /* \"#utility.yul\":13115:13118   */\n      dup4\n        /* \"#utility.yul\":13056:13123   */\n      tag_178\n      jump\t// in\n    tag_371:\n        /* \"#utility.yul\":13049:13123   */\n      swap2\n      pop\n        /* \"#utility.yul\":13132:13225   */\n      tag_372\n        /* \"#utility.yul\":13221:13224   */\n      dup3\n        /* \"#utility.yul\":13132:13225   */\n      tag_207\n      jump\t// in\n    tag_372:\n        /* \"#utility.yul\":13250:13252   */\n      0x20\n        /* \"#utility.yul\":13245:13248   */\n      dup3\n        /* \"#utility.yul\":13241:13253   */\n      add\n        /* \"#utility.yul\":13234:13253   */\n      swap1\n      pop\n        /* \"#utility.yul\":12893:13259   */\n      swap2\n      swap1\n      pop\n      jump\t// out\n        /* \"#utility.yul\":13265:13684   */\n    tag_127:\n        /* \"#utility.yul\":13431:13435   */\n      0x00\n        /* \"#utility.yul\":13469:13471   */\n      0x20\n        /* \"#utility.yul\":13458:13467   */\n      dup3\n        /* \"#utility.yul\":13454:13472   */\n      add\n        /* \"#utility.yul\":13446:13472   */\n      swap1\n      pop\n        /* \"#utility.yul\":13518:13527   */\n      dup2\n        /* \"#utility.yul\":13512:13516   */\n      dup2\n        /* \"#utility.yul\":13508:13528   */\n      sub\n        /* \"#utility.yul\":13504:13505   */\n      0x00\n        /* \"#utility.yul\":13493:13502   */\n      dup4\n        /* \"#utility.yul\":13489:13506   */\n      add\n        /* \"#utility.yul\":13482:13529   */\n      mstore\n        /* \"#utility.yul\":13546:13677   */\n      tag_374\n        /* \"#utility.yul\":13672:13676   */\n      dup2\n        /* \"#utility.yul\":13546:13677   */\n      tag_208\n      jump\t// in\n    tag_374:\n        /* \"#utility.yul\":13538:13677   */\n      swap1\n      pop\n        /* \"#utility.yul\":13265:13684   */\n      swap2\n      swap1\n      pop\n      jump\t// out\n        /* \"#utility.yul\":13690:13831   */\n    tag_209:\n        /* \"#utility.yul\":13739:13743   */\n      0x00\n        /* \"#utility.yul\":13762:13765   */\n      dup2\n        /* \"#utility.yul\":13754:13765   */\n      swap1\n      pop\n        /* \"#utility.yul\":13785:13788   */\n      dup2\n        /* \"#utility.yul\":13782:13783   */\n      0x00\n        /* \"#utility.yul\":13775:13789   */\n      mstore\n        /* \"#utility.yul\":13819:13823   */\n      0x20\n        /* \"#utility.yul\":13816:13817   */\n      0x00\n        /* \"#utility.yul\":13806:13824   */\n      keccak256\n        /* \"#utility.yul\":13798:13824   */\n      swap1\n      pop\n        /* \"#utility.yul\":13690:13831   */\n      swap2\n      swap1\n      pop\n      jump\t// out\n        /* \"#utility.yul\":13837:13930   */\n    tag_210:\n        /* \"#utility.yul\":13874:13880   */\n      0x00\n        /* \"#utility.yul\":13921:13923   */\n      0x20\n        /* \"#utility.yul\":13916:13918   */\n      0x1f\n        /* \"#utility.yul\":13909:13914   */\n      dup4\n        /* \"#utility.yul\":13905:13919   */\n      add\n        /* \"#utility.yul\":13901:13924   */\n      div\n        /* \"#utility.yul\":13891:13924   */\n      swap1\n      pop\n        /* \"#utility.yul\":13837:13930   */\n      swap2\n      swap1\n      pop\n      jump\t// out\n        /* \"#utility.yul\":13936:14043   */\n    tag_211:\n        /* \"#utility.yul\":13980:13988   */\n      0x00\n        /* \"#utility.yul\":14030:14035   */\n      dup3\n        /* \"#utility.yul\":14024:14028   */\n      dup3\n        /* \"#utility.yul\":14020:14036   */\n      shl\n        /* \"#utility.yul\":13999:14036   */\n      swap1\n      pop\n        /* \"#utility.yul\":13936:14043   */\n      swap3\n      swap2\n      pop\n      pop\n      jump\t// out\n        /* \"#utility.yul\":14049:14442   */\n    tag_212:\n        /* \"#utility.yul\":14118:14124   */\n      0x00\n        /* \"#utility.yul\":14168:14169   */\n      0x08\n        /* \"#utility.yul\":14156:14166   */\n      dup4\n        /* \"#utility.yul\":14152:14170   */\n      mul\n        /* \"#utility.yul\":14191:14288   */\n      tag_379\n        /* \"#utility.yul\":14221:14287   */\n      0xffffffffffffffffffffffffffffffffffffffffffffffffffffffffffffffff\n        /* \"#utility.yul\":14210:14219   */\n      dup3\n        /* \"#utility.yul\":14191:14288   */\n      tag_211\n      jump\t// in\n    tag_379:\n        /* \"#utility.yul\":14309:14348   */\n      tag_380\n        /* \"#utility.yul\":14339:14347   */\n      dup7\n        /* \"#utility.yul\":14328:14337   */\n      dup4\n        /* \"#utility.yul\":14309:14348   */\n      tag_211\n      jump\t// in\n    tag_380:\n        /* \"#utility.yul\":14297:14348   */\n      swap6\n      pop\n        /* \"#utility.yul\":14381:14385   */\n      dup1\n        /* \"#utility.yul\":14377:14386   */\n      not\n        /* \"#utility.yul\":14370:14375   */\n      dup5\n        /* \"#utility.yul\":14366:14387   */\n      and\n        /* \"#utility.yul\":14357:14387   */\n      swap4\n      pop\n        /* \"#utility.yul\":14430:14434   */\n      dup1\n        /* \"#utility.yul\":14420:14428   */\n      dup7\n        /* \"#utility.yul\":14416:14435   */\n      and\n        /* \"#utility.yul\":14409:14414   */\n      dup5\n        /* \"#utility.yul\":14406:14436   */\n      or\n        /* \"#utility.yul\":14396:14436   */\n      swap3\n      pop\n        /* \"#utility.yul\":14125:14442   */\n      pop\n      pop\n        /* \"#utility.yul\":14049:14442   */\n      swap4\n      swap3\n      pop\n      pop\n      pop\n      jump\t// out\n        /* \"#utility.yul\":14448:14508   */\n    tag_213:\n        /* \"#utility.yul\":14476:14479   */\n      0x00\n        /* \"#utility.yul\":14497:14502   */\n      dup2\n        /* \"#utility.yul\":14490:14502   */\n      swap1\n      pop\n        /* \"#utility.yul\":14448:14508   */\n      swap2\n      swap1\n      pop\n      jump\t// out\n        /* \"#utility.yul\":14514:14656   */\n    tag_214:\n        /* \"#utility.yul\":14564:14573   */\n      0x00\n        /* \"#utility.yul\":14597:14650   */\n      tag_383\n        /* \"#utility.yul\":14615:14649   */\n      tag_384\n        /* \"#utility.yul\":14624:14648   */\n      tag_385\n        /* \"#utility.yul\":14642:14647   */\n      dup5\n        /* \"#utility.yul\":14624:14648   */\n      tag_174\n      jump\t// in\n    tag_385:\n        /* \"#utility.yul\":14615:14649   */\n      tag_213\n      jump\t// in\n    tag_384:\n        /* \"#utility.yul\":14597:14650   */\n      tag_174\n      jump\t// in\n    tag_383:\n        /* \"#utility.yul\":14584:14650   */\n      swap1\n      pop\n        /* \"#utility.yul\":14514:14656   */\n      swap2\n      swap1\n      pop\n      jump\t// out\n        /* \"#utility.yul\":14662:14737   */\n    tag_215:\n        /* \"#utility.yul\":14705:14708   */\n      0x00\n        /* \"#utility.yul\":14726:14731   */\n      dup2\n        /* \"#utility.yul\":14719:14731   */\n      swap1\n      pop\n        /* \"#utility.yul\":14662:14737   */\n      swap2\n      swap1\n      pop\n      jump\t// out\n        /* \"#utility.yul\":14743:15012   */\n    tag_216:\n        /* \"#utility.yul\":14853:14892   */\n      tag_388\n        /* \"#utility.yul\":14884:14891   */\n      dup4\n        /* \"#utility.yul\":14853:14892   */\n      tag_214\n      jump\t// in\n    tag_388:\n        /* \"#utility.yul\":14914:15005   */\n      tag_389\n        /* \"#utility.yul\":14963:15004   */\n      tag_390\n        /* \"#utility.yul\":14987:15003   */\n      dup3\n        /* \"#utility.yul\":14963:15004   */\n      tag_215\n      jump\t// in\n    tag_390:\n        /* \"#utility.yul\":14955:14961   */\n      dup5\n        /* \"#utility.yul\":14948:14952   */\n      dup5\n        /* \"#utility.yul\":14942:14953   */\n      sload\n        /* \"#utility.yul\":14914:15005   */\n      tag_212\n      jump\t// in\n    tag_389:\n        /* \"#utility.yul\":14908:14912   */\n      dup3\n        /* \"#utility.yul\":14901:15006   */\n      sstore\n        /* \"#utility.yul\":14819:15012   */\n      pop\n        /* \"#utility.yul\":14743:15012   */\n      pop\n      pop\n      pop\n      jump\t// out\n        /* \"#utility.yul\":15018:15091   */\n    tag_217:\n        /* \"#utility.yul\":15063:15066   */\n      0x00\n        /* \"#utility.yul\":15018:15091   */\n      swap1\n      jump\t// out\n        /* \"#utility.yul\":15097:15286   */\n    tag_218:\n        /* \"#utility.yul\":15174:15206   */\n      tag_393\n      tag_217\n      jump\t// in\n    tag_393:\n        /* \"#utility.yul\":15215:15280   */\n      tag_394\n        /* \"#utility.yul\":15273:15279   */\n      dup2\n        /* \"#utility.yul\":15265:15271   */\n      dup5\n        /* \"#utility.yul\":15259:15263   */\n      dup5\n        /* \"#utility.yul\":15215:15280   */\n      tag_216\n      jump\t// in\n    tag_394:\n        /* \"#utility.yul\":15150:15286   */\n      pop\n        /* \"#utility.yul\":15097:15286   */\n      pop\n      pop\n      jump\t// out\n        /* \"#utility.yul\":15292:15478   */\n    tag_219:\n        /* \"#utility.yul\":15352:15472   */\n    tag_396:\n        /* \"#utility.yul\":15369:15372   */\n      dup2\n        /* \"#utility.yul\":15362:15367   */\n      dup2\n        /* \"#utility.yul\":15359:15373   */\n      lt\n        /* \"#utility.yul\":15352:15472   */\n      iszero\n      tag_398\n      jumpi\n        /* \"#utility.yul\":15423:15462   */\n      tag_399\n        /* \"#utility.yul\":15460:15461   */\n      0x00\n        /* \"#utility.yul\":15453:15458   */\n      dup3\n        /* \"#utility.yul\":15423:15462   */\n      tag_218\n      jump\t// in\n    tag_399:\n        /* \"#utility.yul\":15396:15397   */\n      0x01\n        /* \"#utility.yul\":15389:15394   */\n      dup2\n        /* \"#utility.yul\":15385:15398   */\n      add\n        /* \"#utility.yul\":15376:15398   */\n      swap1\n      pop\n        /* \"#utility.yul\":15352:15472   */\n      jump(tag_396)\n    tag_398:\n        /* \"#utility.yul\":15292:15478   */\n      pop\n      pop\n      jump\t// out\n        /* \"#utility.yul\":15484:16027   */\n    tag_220:\n        /* \"#utility.yul\":15585:15587   */\n      0x1f\n        /* \"#utility.yul\":15580:15583   */\n      dup3\n        /* \"#utility.yul\":15577:15588   */\n      gt\n        /* \"#utility.yul\":15574:16020   */\n      iszero\n      tag_401\n      jumpi\n        /* \"#utility.yul\":15619:15657   */\n      tag_402\n        /* \"#utility.yul\":15651:15656   */\n      dup2\n        /* \"#utility.yul\":15619:15657   */\n      tag_209\n      jump\t// in\n    tag_402:\n        /* \"#utility.yul\":15703:15732   */\n      tag_403\n        /* \"#utility.yul\":15721:15731   */\n      dup5\n        /* \"#utility.yul\":15703:15732   */\n      tag_210\n      jump\t// in\n    tag_403:\n        /* \"#utility.yul\":15693:15701   */\n      dup2\n        /* \"#utility.yul\":15689:15733   */\n      add\n        /* \"#utility.yul\":15886:15888   */\n      0x20\n        /* \"#utility.yul\":15874:15884   */\n      dup6\n        /* \"#utility.yul\":15871:15889   */\n      lt\n        /* \"#utility.yul\":15868:15917   */\n      iszero\n      tag_404\n      jumpi\n        /* \"#utility.yul\":15907:15915   */\n      dup2\n        /* \"#utility.yul\":15892:15915   */\n      swap1\n      pop\n        /* \"#utility.yul\":15868:15917   */\n    tag_404:\n        /* \"#utility.yul\":15930:16010   */\n      tag_405\n        /* \"#utility.yul\":15986:16008   */\n      tag_406\n        /* \"#utility.yul\":16004:16007   */\n      dup6\n        /* \"#utility.yul\":15986:16008   */\n      tag_210\n      jump\t// in\n    tag_406:\n        /* \"#utility.yul\":15976:15984   */\n      dup4\n        /* \"#utility.yul\":15972:16009   */\n      add\n        /* \"#utility.yul\":15959:15970   */\n      dup3\n        /* \"#utility.yul\":15930:16010   */\n      tag_219\n      jump\t// in\n    tag_405:\n        /* \"#utility.yul\":15589:16020   */\n      pop\n      pop\n        /* \"#utility.yul\":15574:16020   */\n    tag_401:\n        /* \"#utility.yul\":15484:16027   */\n      pop\n      pop\n      pop\n      jump\t// out\n        /* \"#utility.yul\":16033:16150   */\n    tag_221:\n        /* \"#utility.yul\":16087:16095   */\n      0x00\n        /* \"#utility.yul\":16137:16142   */\n      dup3\n        /* \"#utility.yul\":16131:16135   */\n      dup3\n        /* \"#utility.yul\":16127:16143   */\n      shr\n        /* \"#utility.yul\":16106:16143   */\n      swap1\n      pop\n        /* \"#utility.yul\":16033:16150   */\n      swap3\n      swap2\n      pop\n      pop\n      jump\t// out\n        /* \"#utility.yul\":16156:16325   */\n    tag_222:\n        /* \"#utility.yul\":16200:16206   */\n      0x00\n        /* \"#utility.yul\":16233:16284   */\n      tag_409\n        /* \"#utility.yul\":16281:16282   */\n      0x00\n        /* \"#utility.yul\":16277:16283   */\n      not\n        /* \"#utility.yul\":16269:16274   */\n      dup5\n        /* \"#utility.yul\":16266:16267   */\n      0x08\n        /* \"#utility.yul\":16262:16275   */\n      mul\n        /* \"#utility.yul\":16233:16284   */\n      tag_221\n      jump\t// in\n    tag_409:\n        /* \"#utility.yul\":16229:16285   */\n      not\n        /* \"#utility.yul\":16314:16318   */\n      dup1\n        /* \"#utility.yul\":16308:16312   */\n      dup4\n        /* \"#utility.yul\":16304:16319   */\n      and\n        /* \"#utility.yul\":16294:16319   */\n      swap2\n      pop\n        /* \"#utility.yul\":16207:16325   */\n      pop\n        /* \"#utility.yul\":16156:16325   */\n      swap3\n      swap2\n      pop\n      pop\n      jump\t// out\n        /* \"#utility.yul\":16330:16625   */\n    tag_223:\n        /* \"#utility.yul\":16406:16410   */\n      0x00\n        /* \"#utility.yul\":16552:16581   */\n      tag_411\n        /* \"#utility.yul\":16577:16580   */\n      dup4\n        /* \"#utility.yul\":16571:16575   */\n      dup4\n        /* \"#utility.yul\":16552:16581   */\n      tag_222\n      jump\t// in\n    tag_411:\n        /* \"#utility.yul\":16544:16581   */\n      swap2\n      pop\n        /* \"#utility.yul\":16614:16617   */\n      dup3\n        /* \"#utility.yul\":16611:16612   */\n      0x02\n        /* \"#utility.yul\":16607:16618   */\n      mul\n        /* \"#utility.yul\":16601:16605   */\n      dup3\n        /* \"#utility.yul\":16598:16619   */\n      or\n        /* \"#utility.yul\":16590:16619   */\n      swap1\n      pop\n        /* \"#utility.yul\":16330:16625   */\n      swap3\n      swap2\n      pop\n      pop\n      jump\t// out\n        /* \"#utility.yul\":16630:18025   */\n    tag_131:\n        /* \"#utility.yul\":16747:16784   */\n      tag_413\n        /* \"#utility.yul\":16780:16783   */\n      dup3\n        /* \"#utility.yul\":16747:16784   */\n      tag_177\n      jump\t// in\n    tag_413:\n        /* \"#utility.yul\":16849:16867   */\n      0xffffffffffffffff\n        /* \"#utility.yul\":16841:16847   */\n      dup2\n        /* \"#utility.yul\":16838:16868   */\n      gt\n        /* \"#utility.yul\":16835:16891   */\n      iszero\n      tag_414\n      jumpi\n        /* \"#utility.yul\":16871:16889   */\n      tag_415\n      tag_191\n      jump\t// in\n    tag_415:\n        /* \"#utility.yul\":16835:16891   */\n    tag_414:\n        /* \"#utility.yul\":16915:16953   */\n      tag_416\n        /* \"#utility.yul\":16947:16951   */\n      dup3\n        /* \"#utility.yul\":16941:16952   */\n      sload\n        /* \"#utility.yul\":16915:16953   */\n      tag_76\n      jump\t// in\n    tag_416:\n        /* \"#utility.yul\":17000:17067   */\n      tag_417\n        /* \"#utility.yul\":17060:17066   */\n      dup3\n        /* \"#utility.yul\":17052:17058   */\n      dup3\n        /* \"#utility.yul\":17046:17050   */\n      dup6\n        /* \"#utility.yul\":17000:17067   */\n      tag_220\n      jump\t// in\n    tag_417:\n        /* \"#utility.yul\":17094:17095   */\n      0x00\n        /* \"#utility.yul\":17118:17122   */\n      0x20\n        /* \"#utility.yul\":17105:17122   */\n      swap1\n      pop\n        /* \"#utility.yul\":17150:17152   */\n      0x1f\n        /* \"#utility.yul\":17142:17148   */\n      dup4\n        /* \"#utility.yul\":17139:17153   */\n      gt\n        /* \"#utility.yul\":17167:17168   */\n      0x01\n        /* \"#utility.yul\":17162:17780   */\n      dup2\n      eq\n      tag_419\n      jumpi\n        /* \"#utility.yul\":17824:17825   */\n      0x00\n        /* \"#utility.yul\":17841:17847   */\n      dup5\n        /* \"#utility.yul\":17838:17915   */\n      iszero\n      tag_420\n      jumpi\n        /* \"#utility.yul\":17890:17899   */\n      dup3\n        /* \"#utility.yul\":17885:17888   */\n      dup8\n        /* \"#utility.yul\":17881:17900   */\n      add\n        /* \"#utility.yul\":17875:17901   */\n      mload\n        /* \"#utility.yul\":17866:17901   */\n      swap1\n      pop\n        /* \"#utility.yul\":17838:17915   */\n    tag_420:\n        /* \"#utility.yul\":17941:18008   */\n      tag_421\n        /* \"#utility.yul\":18001:18007   */\n      dup6\n        /* \"#utility.yul\":17994:17999   */\n      dup3\n        /* \"#utility.yul\":17941:18008   */\n      tag_223\n      jump\t// in\n    tag_421:\n        /* \"#utility.yul\":17935:17939   */\n      dup7\n        /* \"#utility.yul\":17928:18009   */\n      sstore\n        /* \"#utility.yul\":17797:18019   */\n      pop\n        /* \"#utility.yul\":17132:18019   */\n      jump(tag_418)\n        /* \"#utility.yul\":17162:17780   */\n    tag_419:\n        /* \"#utility.yul\":17214:17218   */\n      0x1f\n        /* \"#utility.yul\":17210:17219   */\n      not\n        /* \"#utility.yul\":17202:17208   */\n      dup5\n        /* \"#utility.yul\":17198:17220   */\n      and\n        /* \"#utility.yul\":17248:17285   */\n      tag_422\n        /* \"#utility.yul\":17280:17284   */\n      dup7\n        /* \"#utility.yul\":17248:17285   */\n      tag_209\n      jump\t// in\n    tag_422:\n        /* \"#utility.yul\":17307:17308   */\n      0x00\n        /* \"#utility.yul\":17321:17529   */\n    tag_423:\n        /* \"#utility.yul\":17335:17342   */\n      dup3\n        /* \"#utility.yul\":17332:17333   */\n      dup2\n        /* \"#utility.yul\":17329:17343   */\n      lt\n        /* \"#utility.yul\":17321:17529   */\n      iszero\n      tag_425\n      jumpi\n        /* \"#utility.yul\":17414:17423   */\n      dup5\n        /* \"#utility.yul\":17409:17412   */\n      dup10\n        /* \"#utility.yul\":17405:17424   */\n      add\n        /* \"#utility.yul\":17399:17425   */\n      mload\n        /* \"#utility.yul\":17391:17397   */\n      dup3\n        /* \"#utility.yul\":17384:17426   */\n      sstore\n        /* \"#utility.yul\":17465:17466   */\n      0x01\n        /* \"#utility.yul\":17457:17463   */\n      dup3\n        /* \"#utility.yul\":17453:17467   */\n      add\n        /* \"#utility.yul\":17443:17467   */\n      swap2\n      pop\n        /* \"#utility.yul\":17512:17514   */\n      0x20\n        /* \"#utility.yul\":17501:17510   */\n      dup6\n        /* \"#utility.yul\":17497:17515   */\n      add\n        /* \"#utility.yul\":17484:17515   */\n      swap5\n      pop\n        /* \"#utility.yul\":17358:17362   */\n      0x20\n        /* \"#utility.yul\":17355:17356   */\n      dup2\n        /* \"#utility.yul\":17351:17363   */\n      add\n        /* \"#utility.yul\":17346:17363   */\n      swap1\n      pop\n        /* \"#utility.yul\":17321:17529   */\n      jump(tag_423)\n    tag_425:\n        /* \"#utility.yul\":17557:17563   */\n      dup7\n        /* \"#utility.yul\":17548:17555   */\n      dup4\n        /* \"#utility.yul\":17545:17564   */\n      lt\n        /* \"#utility.yul\":17542:17721   */\n      iszero\n      tag_426\n      jumpi\n        /* \"#utility.yul\":17615:17624   */\n      dup5\n        /* \"#utility.yul\":17610:17613   */\n      dup10\n        /* \"#utility.yul\":17606:17625   */\n      add\n        /* \"#utility.yul\":17600:17626   */\n      mload\n        /* \"#utility.yul\":17658:17706   */\n      tag_427\n        /* \"#utility.yul\":17700:17704   */\n      0x1f\n        /* \"#utility.yul\":17692:17698   */\n      dup10\n        /* \"#utility.yul\":17688:17705   */\n      and\n        /* \"#utility.yul\":17677:17686   */\n      dup3\n        /* \"#utility.yul\":17658:17706   */\n      tag_222\n      jump\t// in\n    tag_427:\n        /* \"#utility.yul\":17650:17656   */\n      dup4\n        /* \"#utility.yul\":17643:17707   */\n      sstore\n        /* \"#utility.yul\":17565:17721   */\n      pop\n        /* \"#utility.yul\":17542:17721   */\n    tag_426:\n        /* \"#utility.yul\":17767:17768   */\n      0x01\n        /* \"#utility.yul\":17763:17764   */\n      0x02\n        /* \"#utility.yul\":17755:17761   */\n      dup9\n        /* \"#utility.yul\":17751:17765   */\n      mul\n        /* \"#utility.yul\":17747:17769   */\n      add\n        /* \"#utility.yul\":17741:17745   */\n      dup9\n        /* \"#utility.yul\":17734:17770   */\n      sstore\n        /* \"#utility.yul\":17169:17780   */\n      pop\n      pop\n      pop\n        /* \"#utility.yul\":17132:18019   */\n    tag_418:\n      pop\n        /* \"#utility.yul\":16722:18025   */\n      pop\n      pop\n      pop\n        /* \"#utility.yul\":16630:18025   */\n      pop\n      pop\n      jump\t// out\n        /* \"#utility.yul\":18031:18344   */\n    tag_134:\n        /* \"#utility.yul\":18144:18148   */\n      0x00\n        /* \"#utility.yul\":18182:18184   */\n      0x20\n        /* \"#utility.yul\":18171:18180   */\n      dup3\n        /* \"#utility.yul\":18167:18185   */\n      add\n        /* \"#utility.yul\":18159:18185   */\n      swap1\n      pop\n        /* \"#utility.yul\":18231:18240   */\n      dup2\n        /* \"#utility.yul\":18225:18229   */\n      dup2\n        /* \"#utility.yul\":18221:18241   */\n      sub\n        /* \"#utility.yul\":18217:18218   */\n      0x00\n        /* \"#utility.yul\":18206:18215   */\n      dup4\n        /* \"#utility.yul\":18202:18219   */\n      add\n        /* \"#utility.yul\":18195:18242   */\n      mstore\n        /* \"#utility.yul\":18259:18337   */\n      tag_429\n        /* \"#utility.yul\":18332:18336   */\n      dup2\n        /* \"#utility.yul\":18323:18329   */\n      dup5\n        /* \"#utility.yul\":18259:18337   */\n      tag_181\n      jump\t// in\n    tag_429:\n        /* \"#utility.yul\":18251:18337   */\n      swap1\n      pop\n        /* \"#utility.yul\":18031:18344   */\n      swap3\n      swap2\n      pop\n      pop\n      jump\t// out\n        /* \"#utility.yul\":18350:18521   */\n    tag_224:\n        /* \"#utility.yul\":18490:18513   */\n      0x4d656d62657220616c7265616479206578697374730000000000000000000000\n        /* \"#utility.yul\":18486:18487   */\n      0x00\n        /* \"#utility.yul\":18478:18484   */\n      dup3\n        /* \"#utility.yul\":18474:18488   */\n      add\n        /* \"#utility.yul\":18467:18514   */\n      mstore\n        /* \"#utility.yul\":18350:18521   */\n      pop\n      jump\t// out\n        /* \"#utility.yul\":18527:18893   */\n    tag_225:\n        /* \"#utility.yul\":18669:18672   */\n      0x00\n        /* \"#utility.yul\":18690:18757   */\n      tag_432\n        /* \"#utility.yul\":18754:18756   */\n      0x15\n        /* \"#utility.yul\":18749:18752   */\n      dup4\n        /* \"#utility.yul\":18690:18757   */\n      tag_178\n      jump\t// in\n    tag_432:\n        /* \"#utility.yul\":18683:18757   */\n      swap2\n      pop\n        /* \"#utility.yul\":18766:18859   */\n      tag_433\n        /* \"#utility.yul\":18855:18858   */\n      dup3\n        /* \"#utility.yul\":18766:18859   */\n      tag_224\n      jump\t// in\n    tag_433:\n        /* \"#utility.yul\":18884:18886   */\n      0x20\n        /* \"#utility.yul\":18879:18882   */\n      dup3\n        /* \"#utility.yul\":18875:18887   */\n      add\n        /* \"#utility.yul\":18868:18887   */\n      swap1\n      pop\n        /* \"#utility.yul\":18527:18893   */\n      swap2\n      swap1\n      pop\n      jump\t// out\n        /* \"#utility.yul\":18899:19318   */\n    tag_141:\n        /* \"#utility.yul\":19065:19069   */\n      0x00\n        /* \"#utility.yul\":19103:19105   */\n      0x20\n        /* \"#utility.yul\":19092:19101   */\n      dup3\n        /* \"#utility.yul\":19088:19106   */\n      add\n        /* \"#utility.yul\":19080:19106   */\n      swap1\n      pop\n        /* \"#utility.yul\":19152:19161   */\n      dup2\n        /* \"#utility.yul\":19146:19150   */\n      dup2\n        /* \"#utility.yul\":19142:19162   */\n      sub\n        /* \"#utility.yul\":19138:19139   */\n      0x00\n        /* \"#utility.yul\":19127:19136   */\n      dup4\n        /* \"#utility.yul\":19123:19140   */\n      add\n        /* \"#utility.yul\":19116:19163   */\n      mstore\n        /* \"#utility.yul\":19180:19311   */\n      tag_435\n        /* \"#utility.yul\":19306:19310   */\n      dup2\n        /* \"#utility.yul\":19180:19311   */\n      tag_225\n      jump\t// in\n    tag_435:\n        /* \"#utility.yul\":19172:19311   */\n      swap1\n      pop\n        /* \"#utility.yul\":18899:19318   */\n      swap2\n      swap1\n      pop\n      jump\t// out\n        /* \"#utility.yul\":19324:19515   */\n    tag_144:\n        /* \"#utility.yul\":19364:19367   */\n      0x00\n        /* \"#utility.yul\":19383:19403   */\n      tag_437\n        /* \"#utility.yul\":19401:19402   */\n      dup3\n        /* \"#utility.yul\":19383:19403   */\n      tag_174\n      jump\t// in\n    tag_437:\n        /* \"#utility.yul\":19378:19403   */\n      swap2\n      pop\n        /* \"#utility.yul\":19417:19437   */\n      tag_438\n        /* \"#utility.yul\":19435:19436   */\n      dup4\n        /* \"#utility.yul\":19417:19437   */\n      tag_174\n      jump\t// in\n    tag_438:\n        /* \"#utility.yul\":19412:19437   */\n      swap3\n      pop\n        /* \"#utility.yul\":19460:19461   */\n      dup3\n        /* \"#utility.yul\":19457:19458   */\n      dup3\n        /* \"#utility.yul\":19453:19462   */\n      add\n        /* \"#utility.yul\":19446:19462   */\n      swap1\n      pop\n        /* \"#utility.yul\":19481:19484   */\n      dup1\n        /* \"#utility.yul\":19478:19479   */\n      dup3\n        /* \"#utility.yul\":19475:19485   */\n      gt\n        /* \"#utility.yul\":19472:19508   */\n      iszero\n      tag_439\n      jumpi\n        /* \"#utility.yul\":19488:19506   */\n      tag_440\n      tag_204\n      jump\t// in\n    tag_440:\n        /* \"#utility.yul\":19472:19508   */\n    tag_439:\n        /* \"#utility.yul\":19324:19515   */\n      swap3\n      swap2\n      pop\n      pop\n      jump\t// out\n        /* \"#utility.yul\":19521:19701   */\n    tag_226:\n        /* \"#utility.yul\":19661:19693   */\n      0x596f752073686f756c642062652061206d656d62657220746f20766f74650000\n        /* \"#utility.yul\":19657:19658   */\n      0x00\n        /* \"#utility.yul\":19649:19655   */\n      dup3\n        /* \"#utility.yul\":19645:19659   */\n      add\n        /* \"#utility.yul\":19638:19694   */\n      mstore\n        /* \"#utility.yul\":19521:19701   */\n      pop\n      jump\t// out\n        /* \"#utility.yul\":19707:20073   */\n    tag_227:\n        /* \"#utility.yul\":19849:19852   */\n      0x00\n        /* \"#utility.yul\":19870:19937   */\n      tag_443\n        /* \"#utility.yul\":19934:19936   */\n      0x1e\n        /* \"#utility.yul\":19929:19932   */\n      dup4\n        /* \"#utility.yul\":19870:19937   */\n      tag_178\n      jump\t// in\n    tag_443:\n        /* \"#utility.yul\":19863:19937   */\n      swap2\n      pop\n        /* \"#utility.yul\":19946:20039   */\n      tag_444\n        /* \"#utility.yul\":20035:20038   */\n      dup3\n        /* \"#utility.yul\":19946:20039   */\n      tag_226\n      jump\t// in\n    tag_444:\n        /* \"#utility.yul\":20064:20066   */\n      0x20\n        /* \"#utility.yul\":20059:20062   */\n      dup3\n        /* \"#utility.yul\":20055:20067   */\n      add\n        /* \"#utility.yul\":20048:20067   */\n      swap1\n      pop\n        /* \"#utility.yul\":19707:20073   */\n      swap2\n      swap1\n      pop\n      jump\t// out\n        /* \"#utility.yul\":20079:20498   */\n    tag_148:\n        /* \"#utility.yul\":20245:20249   */\n      0x00\n        /* \"#utility.yul\":20283:20285   */\n      0x20\n        /* \"#utility.yul\":20272:20281   */\n      dup3\n        /* \"#utility.yul\":20268:20286   */\n      add\n        /* \"#utility.yul\":20260:20286   */\n      swap1\n      pop\n        /* \"#utility.yul\":20332:20341   */\n      dup2\n        /* \"#utility.yul\":20326:20330   */\n      dup2\n        /* \"#utility.yul\":20322:20342   */\n      sub\n        /* \"#utility.yul\":20318:20319   */\n      0x00\n        /* \"#utility.yul\":20307:20316   */\n      dup4\n        /* \"#utility.yul\":20303:20320   */\n      add\n        /* \"#utility.yul\":20296:20343   */\n      mstore\n        /* \"#utility.yul\":20360:20491   */\n      tag_446\n        /* \"#utility.yul\":20486:20490   */\n      dup2\n        /* \"#utility.yul\":20360:20491   */\n      tag_227\n      jump\t// in\n    tag_446:\n        /* \"#utility.yul\":20352:20491   */\n      swap1\n      pop\n        /* \"#utility.yul\":20079:20498   */\n      swap2\n      swap1\n      pop\n      jump\t// out\n        /* \"#utility.yul\":20504:20679   */\n    tag_228:\n        /* \"#utility.yul\":20644:20671   */\n      0x4e6f7420656e6f75676820746f6b656e7320746f20766f746500000000000000\n        /* \"#utility.yul\":20640:20641   */\n      0x00\n        /* \"#utility.yul\":20632:20638   */\n      dup3\n        /* \"#utility.yul\":20628:20642   */\n      add\n        /* \"#utility.yul\":20621:20672   */\n      mstore\n        /* \"#utility.yul\":20504:20679   */\n      pop\n      jump\t// out\n        /* \"#utility.yul\":20685:21051   */\n    tag_229:\n        /* \"#utility.yul\":20827:20830   */\n      0x00\n        /* \"#utility.yul\":20848:20915   */\n      tag_449\n        /* \"#utility.yul\":20912:20914   */\n      0x19\n        /* \"#utility.yul\":20907:20910   */\n      dup4\n        /* \"#utility.yul\":20848:20915   */\n      tag_178\n      jump\t// in\n    tag_449:\n        /* \"#utility.yul\":20841:20915   */\n      swap2\n      pop\n        /* \"#utility.yul\":20924:21017   */\n      tag_450\n        /* \"#utility.yul\":21013:21016   */\n      dup3\n        /* \"#utility.yul\":20924:21017   */\n      tag_228\n      jump\t// in\n    tag_450:\n        /* \"#utility.yul\":21042:21044   */\n      0x20\n        /* \"#utility.yul\":21037:21040   */\n      dup3\n        /* \"#utility.yul\":21033:21045   */\n      add\n        /* \"#utility.yul\":21026:21045   */\n      swap1\n      pop\n        /* \"#utility.yul\":20685:21051   */\n      swap2\n      swap1\n      pop\n      jump\t// out\n        /* \"#utility.yul\":21057:21476   */\n    tag_151:\n        /* \"#utility.yul\":21223:21227   */\n      0x00\n        /* \"#utility.yul\":21261:21263   */\n      0x20\n        /* \"#utility.yul\":21250:21259   */\n      dup3\n        /* \"#utility.yul\":21246:21264   */\n      add\n        /* \"#utility.yul\":21238:21264   */\n      swap1\n      pop\n        /* \"#utility.yul\":21310:21319   */\n      dup2\n        /* \"#utility.yul\":21304:21308   */\n      dup2\n        /* \"#utility.yul\":21300:21320   */\n      sub\n        /* \"#utility.yul\":21296:21297   */\n      0x00\n        /* \"#utility.yul\":21285:21294   */\n      dup4\n        /* \"#utility.yul\":21281:21298   */\n      add\n        /* \"#utility.yul\":21274:21321   */\n      mstore\n        /* \"#utility.yul\":21338:21469   */\n      tag_452\n        /* \"#utility.yul\":21464:21468   */\n      dup2\n        /* \"#utility.yul\":21338:21469   */\n      tag_229\n      jump\t// in\n    tag_452:\n        /* \"#utility.yul\":21330:21469   */\n      swap1\n      pop\n        /* \"#utility.yul\":21057:21476   */\n      swap2\n      swap1\n      pop\n      jump\t// out\n        /* \"#utility.yul\":21482:21709   */\n    tag_230:\n        /* \"#utility.yul\":21622:21656   */\n      0x596f75206861766520616c726561647920766f74656420666f72207468697320\n        /* \"#utility.yul\":21618:21619   */\n      0x00\n        /* \"#utility.yul\":21610:21616   */\n      dup3\n        /* \"#utility.yul\":21606:21620   */\n      add\n        /* \"#utility.yul\":21599:21657   */\n      mstore\n        /* \"#utility.yul\":21691:21701   */\n      0x70726f706f73616c000000000000000000000000000000000000000000000000\n        /* \"#utility.yul\":21686:21688   */\n      0x20\n        /* \"#utility.yul\":21678:21684   */\n      dup3\n        /* \"#utility.yul\":21674:21689   */\n      add\n        /* \"#utility.yul\":21667:21702   */\n      mstore\n        /* \"#utility.yul\":21482:21709   */\n      pop\n      jump\t// out\n        /* \"#utility.yul\":21715:22081   */\n    tag_231:\n        /* \"#utility.yul\":21857:21860   */\n      0x00\n        /* \"#utility.yul\":21878:21945   */\n      tag_455\n        /* \"#utility.yul\":21942:21944   */\n      0x28\n        /* \"#utility.yul\":21937:21940   */\n      dup4\n        /* \"#utility.yul\":21878:21945   */\n      tag_178\n      jump\t// in\n    tag_455:\n        /* \"#utility.yul\":21871:21945   */\n      swap2\n      pop\n        /* \"#utility.yul\":21954:22047   */\n      tag_456\n        /* \"#utility.yul\":22043:22046   */\n      dup3\n        /* \"#utility.yul\":21954:22047   */\n      tag_230\n      jump\t// in\n    tag_456:\n        /* \"#utility.yul\":22072:22074   */\n      0x40\n        /* \"#utility.yul\":22067:22070   */\n      dup3\n        /* \"#utility.yul\":22063:22075   */\n      add\n        /* \"#utility.yul\":22056:22075   */\n      swap1\n      pop\n        /* \"#utility.yul\":21715:22081   */\n      swap2\n      swap1\n      pop\n      jump\t// out\n        /* \"#utility.yul\":22087:22506   */\n    tag_154:\n        /* \"#utility.yul\":22253:22257   */\n      0x00\n        /* \"#utility.yul\":22291:22293   */\n      0x20\n        /* \"#utility.yul\":22280:22289   */\n      dup3\n        /* \"#utility.yul\":22276:22294   */\n      add\n        /* \"#utility.yul\":22268:22294   */\n      swap1\n      pop\n        /* \"#utility.yul\":22340:22349   */\n      dup2\n        /* \"#utility.yul\":22334:22338   */\n      dup2\n        /* \"#utility.yul\":22330:22350   */\n      sub\n        /* \"#utility.yul\":22326:22327   */\n      0x00\n        /* \"#utility.yul\":22315:22324   */\n      dup4\n        /* \"#utility.yul\":22311:22328   */\n      add\n        /* \"#utility.yul\":22304:22351   */\n      mstore\n        /* \"#utility.yul\":22368:22499   */\n      tag_458\n        /* \"#utility.yul\":22494:22498   */\n      dup2\n        /* \"#utility.yul\":22368:22499   */\n      tag_231\n      jump\t// in\n    tag_458:\n        /* \"#utility.yul\":22360:22499   */\n      swap1\n      pop\n        /* \"#utility.yul\":22087:22506   */\n      swap2\n      swap1\n      pop\n      jump\t// out\n\n    auxdata: 0xa264697066735822122082dca52fa2523c8a5fbcf060de0f15760972fcf478d0b161db5949b9ba2e91fa64736f6c63430008140033\n}\n",
				"bytecode": {
					"linkReferences": {},
					"object": "608060405234801561001057600080fd5b5033600760006101000a81548173ffffffffffffffffffffffffffffffffffffffff021916908373ffffffffffffffffffffffffffffffffffffffff160217905550611e06806100616000396000f3fe608060405234801561001057600080fd5b50600436106100cf5760003560e01c80635daf08ca1161008c578063a230c52411610066578063a230c52414610228578063a313c37114610258578063ca6d56dc1461028a578063f9000ba8146102a6576100cf565b80635daf08ca146101aa5780638da5cb5b146101da5780639f2524ee146101f8576100cf565b8063013cf08b146100d45780630b1ca49a146101085780630d61b5191461012457806318160ddd1461014057806327e235e31461015e57806349c2a1a61461018e575b600080fd5b6100ee60048036038101906100e991906111b3565b6102c2565b6040516100ff95949392919061129a565b60405180910390f35b610122600480360381019061011d9190611352565b61039d565b005b61013e600480360381019061013991906111b3565b6107a2565b005b6101486108e7565b604051610155919061137f565b60405180910390f35b61017860048036038101906101739190611352565b6108ed565b604051610185919061137f565b60405180910390f35b6101a860048036038101906101a391906114cf565b610905565b005b6101c460048036038101906101bf91906111b3565b6109ff565b6040516101d19190611527565b60405180910390f35b6101e2610a3e565b6040516101ef9190611527565b60405180910390f35b610212600480360381019061020d9190611542565b610a64565b60405161021f9190611582565b60405180910390f35b610242600480360381019061023d9190611352565b610a93565b60405161024f9190611582565b60405180910390f35b610272600480360381019061026d9190611352565b610ab3565b6040516102819392919061159d565b60405180910390f35b6102a4600480360381019061029f9190611352565b610afd565b005b6102c060048036038101906102bb9190611600565b610dd5565b005b600481815481106102d257600080fd5b90600052602060002090600502016000915090508060000180546102f590611682565b80601f016020809104026020016040519081016040528092919081815260200182805461032190611682565b801561036e5780601f106103435761010080835404028352916020019161036e565b820191906000526020600020905b81548152906001019060200180831161035157829003601f168201915b5050505050908060010154908060020154908060030154908060040160009054906101000a900460ff16905085565b600760009054906101000a900473ffffffffffffffffffffffffffffffffffffffff1673ffffffffffffffffffffffffffffffffffffffff163373ffffffffffffffffffffffffffffffffffffffff16146103f757600080fd5b60011515600160008373ffffffffffffffffffffffffffffffffffffffff1673ffffffffffffffffffffffffffffffffffffffff16815260200190815260200160002060009054906101000a900460ff1615151461048a576040517f08c379a0000000000000000000000000000000000000000000000000000000008152600401610481906116ff565b60405180910390fd5b6040518060600160405280600073ffffffffffffffffffffffffffffffffffffffff168152602001600081526020016000815250600260008373ffffffffffffffffffffffffffffffffffffffff1673ffffffffffffffffffffffffffffffffffffffff16815260200190815260200160002060008201518160000160006101000a81548173ffffffffffffffffffffffffffffffffffffffff021916908373ffffffffffffffffffffffffffffffffffffffff160217905550602082015181600101556040820151816002015590505060005b6000805490508110156106e7578173ffffffffffffffffffffffffffffffffffffffff16600082815481106105965761059561171f565b5b9060005260206000200160009054906101000a900473ffffffffffffffffffffffffffffffffffffffff1673ffffffffffffffffffffffffffffffffffffffff16036106d457600060016000805490506105f0919061177d565b815481106106015761060061171f565b5b9060005260206000200160009054906101000a900473ffffffffffffffffffffffffffffffffffffffff16600082815481106106405761063f61171f565b5b9060005260206000200160006101000a81548173ffffffffffffffffffffffffffffffffffffffff021916908373ffffffffffffffffffffffffffffffffffffffff160217905550600080548061069a576106996117b1565b5b6001900381819060005260206000200160006101000a81549073ffffffffffffffffffffffffffffffffffffffff021916905590556106e7565b80806106df906117e0565b91505061055e565b506000600160008373ffffffffffffffffffffffffffffffffffffffff1673ffffffffffffffffffffffffffffffffffffffff16815260200190815260200160002060006101000a81548160ff0219169083151502179055506000600660008373ffffffffffffffffffffffffffffffffffffffff1673ffffffffffffffffffffffffffffffffffffffff16815260200190815260200160002081905550606460056000828254610798919061177d565b9250508190555050565b60001515600482815481106107ba576107b961171f565b5b906000526020600020906005020160040160009054906101000a900460ff1615151461081b576040517f08c379a00000000000000000000000000000000000000000000000000000000081526004016108129061189a565b60405180910390fd5b6004818154811061082f5761082e61171f565b5b906000526020600020906005020160030154600482815481106108555761085461171f565b5b9060005260206000209060050201600201541161087157600080fd5b6001600482815481106108875761088661171f565b5b906000526020600020906005020160040160006101000a81548160ff0219169083151502179055507f19cf08368c3c86aacb1be12c902a304c3b1d64e4f72e1aa33789a01f68ecab056040516108dc90611906565b60405180910390a150565b60055481565b60066020528060005260406000206000915090505481565b60046040518060a0016040528083815260200160008152602001600081526020016000815260200160001515815250908060018154018082558091505060019003906000526020600020906005020160009091909190915060008201518160000190816109729190611ad2565b5060208201518160010155604082015181600201556060820151816003015560808201518160040160006101000a81548160ff021916908315150217905550505060016004805490506109c5919061177d565b7f9c770c289ab5bf7e57cb1d23c8ceae993aea46eb64847072fd3d78ca60d3e432826040516109f49190611ba4565b60405180910390a250565b60008181548110610a0f57600080fd5b906000526020600020016000915054906101000a900473ffffffffffffffffffffffffffffffffffffffff1681565b600760009054906101000a900473ffffffffffffffffffffffffffffffffffffffff1681565b60036020528160005260406000206020528060005260406000206000915091509054906101000a900460ff1681565b60016020528060005260406000206000915054906101000a900460ff1681565b60026020528060005260406000206000915090508060000160009054906101000a900473ffffffffffffffffffffffffffffffffffffffff16908060010154908060020154905083565b600760009054906101000a900473ffffffffffffffffffffffffffffffffffffffff1673ffffffffffffffffffffffffffffffffffffffff163373ffffffffffffffffffffffffffffffffffffffff1614610b5757600080fd5b60001515600160008373ffffffffffffffffffffffffffffffffffffffff1673ffffffffffffffffffffffffffffffffffffffff16815260200190815260200160002060009054906101000a900460ff16151514610bea576040517f08c379a0000000000000000000000000000000000000000000000000000000008152600401610be190611c12565b60405180910390fd5b60405180606001604052808273ffffffffffffffffffffffffffffffffffffffff1681526020014281526020016064815250600260008373ffffffffffffffffffffffffffffffffffffffff1673ffffffffffffffffffffffffffffffffffffffff16815260200190815260200160002060008201518160000160006101000a81548173ffffffffffffffffffffffffffffffffffffffff021916908373ffffffffffffffffffffffffffffffffffffffff16021790555060208201518160010155604082015181600201559050506000819080600181540180825580915050600190039060005260206000200160009091909190916101000a81548173ffffffffffffffffffffffffffffffffffffffff021916908373ffffffffffffffffffffffffffffffffffffffff16021790555060018060008373ffffffffffffffffffffffffffffffffffffffff1673ffffffffffffffffffffffffffffffffffffffff16815260200190815260200160002060006101000a81548160ff0219169083151502179055506064600660008373ffffffffffffffffffffffffffffffffffffffff1673ffffffffffffffffffffffffffffffffffffffff16815260200190815260200160002081905550606460056000828254610dcb9190611c32565b9250508190555050565b60011515600160003373ffffffffffffffffffffffffffffffffffffffff1673ffffffffffffffffffffffffffffffffffffffff16815260200190815260200160002060009054906101000a900460ff16151514610e68576040517f08c379a0000000000000000000000000000000000000000000000000000000008152600401610e5f90611cb2565b60405180910390fd5b81600660003373ffffffffffffffffffffffffffffffffffffffff1673ffffffffffffffffffffffffffffffffffffffff168152602001908152602001600020541015610eea576040517f08c379a0000000000000000000000000000000000000000000000000000000008152600401610ee190611d1e565b60405180910390fd5b60001515600360003373ffffffffffffffffffffffffffffffffffffffff1673ffffffffffffffffffffffffffffffffffffffff168152602001908152602001600020600085815260200190815260200160002060009054906101000a900460ff16151514610f8e576040517f08c379a0000000000000000000000000000000000000000000000000000000008152600401610f8590611db0565b60405180910390fd5b80600360003373ffffffffffffffffffffffffffffffffffffffff1673ffffffffffffffffffffffffffffffffffffffff168152602001908152602001600020600085815260200190815260200160002060006101000a81548160ff02191690831515021790555081600260003373ffffffffffffffffffffffffffffffffffffffff1673ffffffffffffffffffffffffffffffffffffffff1681526020019081526020016000206002016000828254611048919061177d565b9250508190555081600484815481106110645761106361171f565b5b906000526020600020906005020160010160008282546110849190611c32565b9250508190555060011515811515036110d85781600484815481106110ac576110ab61171f565b5b906000526020600020906005020160020160008282546110cc9190611c32565b92505081905550611115565b81600484815481106110ed576110ec61171f565b5b9060005260206000209060050201600301600082825461110d9190611c32565b925050819055505b823373ffffffffffffffffffffffffffffffffffffffff167fb4cfecf70861b7b150d8337780d34fb4cbc2114b5fb1fe51a5c5fca1849f72748460405161115c919061137f565b60405180910390a3505050565b6000604051905090565b600080fd5b600080fd5b6000819050919050565b6111908161117d565b811461119b57600080fd5b50565b6000813590506111ad81611187565b92915050565b6000602082840312156111c9576111c8611173565b5b60006111d78482850161119e565b91505092915050565b600081519050919050565b600082825260208201905092915050565b60005b8381101561121a5780820151818401526020810190506111ff565b60008484015250505050565b6000601f19601f8301169050919050565b6000611242826111e0565b61124c81856111eb565b935061125c8185602086016111fc565b61126581611226565b840191505092915050565b6112798161117d565b82525050565b60008115159050919050565b6112948161127f565b82525050565b600060a08201905081810360008301526112b48188611237565b90506112c36020830187611270565b6112d06040830186611270565b6112dd6060830185611270565b6112ea608083018461128b565b9695505050505050565b600073ffffffffffffffffffffffffffffffffffffffff82169050919050565b600061131f826112f4565b9050919050565b61132f81611314565b811461133a57600080fd5b50565b60008135905061134c81611326565b92915050565b60006020828403121561136857611367611173565b5b60006113768482850161133d565b91505092915050565b60006020820190506113946000830184611270565b92915050565b600080fd5b600080fd5b7f4e487b7100000000000000000000000000000000000000000000000000000000600052604160045260246000fd5b6113dc82611226565b810181811067ffffffffffffffff821117156113fb576113fa6113a4565b5b80604052505050565b600061140e611169565b905061141a82826113d3565b919050565b600067ffffffffffffffff82111561143a576114396113a4565b5b61144382611226565b9050602081019050919050565b82818337600083830152505050565b600061147261146d8461141f565b611404565b90508281526020810184848401111561148e5761148d61139f565b5b611499848285611450565b509392505050565b600082601f8301126114b6576114b561139a565b5b81356114c684826020860161145f565b91505092915050565b6000602082840312156114e5576114e4611173565b5b600082013567ffffffffffffffff81111561150357611502611178565b5b61150f848285016114a1565b91505092915050565b61152181611314565b82525050565b600060208201905061153c6000830184611518565b92915050565b6000806040838503121561155957611558611173565b5b60006115678582860161133d565b92505060206115788582860161119e565b9150509250929050565b6000602082019050611597600083018461128b565b92915050565b60006060820190506115b26000830186611518565b6115bf6020830185611270565b6115cc6040830184611270565b949350505050565b6115dd8161127f565b81146115e857600080fd5b50565b6000813590506115fa816115d4565b92915050565b60008060006060848603121561161957611618611173565b5b60006116278682870161119e565b93505060206116388682870161119e565b9250506040611649868287016115eb565b9150509250925092565b7f4e487b7100000000000000000000000000000000000000000000000000000000600052602260045260246000fd5b6000600282049050600182168061169a57607f821691505b6020821081036116ad576116ac611653565b5b50919050565b7f6d656d62657220646f6573206e6f742065786973740000000000000000000000600082015250565b60006116e96015836111eb565b91506116f4826116b3565b602082019050919050565b60006020820190508181036000830152611718816116dc565b9050919050565b7f4e487b7100000000000000000000000000000000000000000000000000000000600052603260045260246000fd5b7f4e487b7100000000000000000000000000000000000000000000000000000000600052601160045260246000fd5b60006117888261117d565b91506117938361117d565b92508282039050818111156117ab576117aa61174e565b5b92915050565b7f4e487b7100000000000000000000000000000000000000000000000000000000600052603160045260246000fd5b60006117eb8261117d565b91507fffffffffffffffffffffffffffffffffffffffffffffffffffffffffffffffff820361181d5761181c61174e565b5b600182019050919050565b7f50726f706f73616c2068617320616c7265616479206265656e2065786563757460008201527f6564000000000000000000000000000000000000000000000000000000000000602082015250565b60006118846022836111eb565b915061188f82611828565b604082019050919050565b600060208201905081810360008301526118b381611877565b9050919050565b7f50726f706f73616c20686173206265656e20617070726f766564000000000000600082015250565b60006118f0601a836111eb565b91506118fb826118ba565b602082019050919050565b6000602082019050818103600083015261191f816118e3565b9050919050565b60008190508160005260206000209050919050565b60006020601f8301049050919050565b600082821b905092915050565b6000600883026119887fffffffffffffffffffffffffffffffffffffffffffffffffffffffffffffffff8261194b565b611992868361194b565b95508019841693508086168417925050509392505050565b6000819050919050565b60006119cf6119ca6119c58461117d565b6119aa565b61117d565b9050919050565b6000819050919050565b6119e9836119b4565b6119fd6119f5826119d6565b848454611958565b825550505050565b600090565b611a12611a05565b611a1d8184846119e0565b505050565b5b81811015611a4157611a36600082611a0a565b600181019050611a23565b5050565b601f821115611a8657611a5781611926565b611a608461193b565b81016020851015611a6f578190505b611a83611a7b8561193b565b830182611a22565b50505b505050565b600082821c905092915050565b6000611aa960001984600802611a8b565b1980831691505092915050565b6000611ac28383611a98565b9150826002028217905092915050565b611adb826111e0565b67ffffffffffffffff811115611af457611af36113a4565b5b611afe8254611682565b611b09828285611a45565b600060209050601f831160018114611b3c5760008415611b2a578287015190505b611b348582611ab6565b865550611b9c565b601f198416611b4a86611926565b60005b82811015611b7257848901518255600182019150602085019450602081019050611b4d565b86831015611b8f5784890151611b8b601f891682611a98565b8355505b6001600288020188555050505b505050505050565b60006020820190508181036000830152611bbe8184611237565b905092915050565b7f4d656d62657220616c7265616479206578697374730000000000000000000000600082015250565b6000611bfc6015836111eb565b9150611c0782611bc6565b602082019050919050565b60006020820190508181036000830152611c2b81611bef565b9050919050565b6000611c3d8261117d565b9150611c488361117d565b9250828201905080821115611c6057611c5f61174e565b5b92915050565b7f596f752073686f756c642062652061206d656d62657220746f20766f74650000600082015250565b6000611c9c601e836111eb565b9150611ca782611c66565b602082019050919050565b60006020820190508181036000830152611ccb81611c8f565b9050919050565b7f4e6f7420656e6f75676820746f6b656e7320746f20766f746500000000000000600082015250565b6000611d086019836111eb565b9150611d1382611cd2565b602082019050919050565b60006020820190508181036000830152611d3781611cfb565b9050919050565b7f596f75206861766520616c726561647920766f74656420666f7220746869732060008201527f70726f706f73616c000000000000000000000000000000000000000000000000602082015250565b6000611d9a6028836111eb565b9150611da582611d3e565b604082019050919050565b60006020820190508181036000830152611dc981611d8d565b905091905056fea264697066735822122082dca52fa2523c8a5fbcf060de0f15760972fcf478d0b161db5949b9ba2e91fa64736f6c63430008140033",
					"opcodes": "PUSH1 0x80 PUSH1 0x40 MSTORE CALLVALUE DUP1 ISZERO PUSH2 0x10 JUMPI PUSH1 0x0 DUP1 REVERT JUMPDEST POP CALLER PUSH1 0x7 PUSH1 0x0 PUSH2 0x100 EXP DUP2 SLOAD DUP2 PUSH20 0xFFFFFFFFFFFFFFFFFFFFFFFFFFFFFFFFFFFFFFFF MUL NOT AND SWAP1 DUP4 PUSH20 0xFFFFFFFFFFFFFFFFFFFFFFFFFFFFFFFFFFFFFFFF AND MUL OR SWAP1 SSTORE POP PUSH2 0x1E06 DUP1 PUSH2 0x61 PUSH1 0x0 CODECOPY PUSH1 0x0 RETURN INVALID PUSH1 0x80 PUSH1 0x40 MSTORE CALLVALUE DUP1 ISZERO PUSH2 0x10 JUMPI PUSH1 0x0 DUP1 REVERT JUMPDEST POP PUSH1 0x4 CALLDATASIZE LT PUSH2 0xCF JUMPI PUSH1 0x0 CALLDATALOAD PUSH1 0xE0 SHR DUP1 PUSH4 0x5DAF08CA GT PUSH2 0x8C JUMPI DUP1 PUSH4 0xA230C524 GT PUSH2 0x66 JUMPI DUP1 PUSH4 0xA230C524 EQ PUSH2 0x228 JUMPI DUP1 PUSH4 0xA313C371 EQ PUSH2 0x258 JUMPI DUP1 PUSH4 0xCA6D56DC EQ PUSH2 0x28A JUMPI DUP1 PUSH4 0xF9000BA8 EQ PUSH2 0x2A6 JUMPI PUSH2 0xCF JUMP JUMPDEST DUP1 PUSH4 0x5DAF08CA EQ PUSH2 0x1AA JUMPI DUP1 PUSH4 0x8DA5CB5B EQ PUSH2 0x1DA JUMPI DUP1 PUSH4 0x9F2524EE EQ PUSH2 0x1F8 JUMPI PUSH2 0xCF JUMP JUMPDEST DUP1 PUSH4 0x13CF08B EQ PUSH2 0xD4 JUMPI DUP1 PUSH4 0xB1CA49A EQ PUSH2 0x108 JUMPI DUP1 PUSH4 0xD61B519 EQ PUSH2 0x124 JUMPI DUP1 PUSH4 0x18160DDD EQ PUSH2 0x140 JUMPI DUP1 PUSH4 0x27E235E3 EQ PUSH2 0x15E JUMPI DUP1 PUSH4 0x49C2A1A6 EQ PUSH2 0x18E JUMPI JUMPDEST PUSH1 0x0 DUP1 REVERT JUMPDEST PUSH2 0xEE PUSH1 0x4 DUP1 CALLDATASIZE SUB DUP2 ADD SWAP1 PUSH2 0xE9 SWAP2 SWAP1 PUSH2 0x11B3 JUMP JUMPDEST PUSH2 0x2C2 JUMP JUMPDEST PUSH1 0x40 MLOAD PUSH2 0xFF SWAP6 SWAP5 SWAP4 SWAP3 SWAP2 SWAP1 PUSH2 0x129A JUMP JUMPDEST PUSH1 0x40 MLOAD DUP1 SWAP2 SUB SWAP1 RETURN JUMPDEST PUSH2 0x122 PUSH1 0x4 DUP1 CALLDATASIZE SUB DUP2 ADD SWAP1 PUSH2 0x11D SWAP2 SWAP1 PUSH2 0x1352 JUMP JUMPDEST PUSH2 0x39D JUMP JUMPDEST STOP JUMPDEST PUSH2 0x13E PUSH1 0x4 DUP1 CALLDATASIZE SUB DUP2 ADD SWAP1 PUSH2 0x139 SWAP2 SWAP1 PUSH2 0x11B3 JUMP JUMPDEST PUSH2 0x7A2 JUMP JUMPDEST STOP JUMPDEST PUSH2 0x148 PUSH2 0x8E7 JUMP JUMPDEST PUSH1 0x40 MLOAD PUSH2 0x155 SWAP2 SWAP1 PUSH2 0x137F JUMP JUMPDEST PUSH1 0x40 MLOAD DUP1 SWAP2 SUB SWAP1 RETURN JUMPDEST PUSH2 0x178 PUSH1 0x4 DUP1 CALLDATASIZE SUB DUP2 ADD SWAP1 PUSH2 0x173 SWAP2 SWAP1 PUSH2 0x1352 JUMP JUMPDEST PUSH2 0x8ED JUMP JUMPDEST PUSH1 0x40 MLOAD PUSH2 0x185 SWAP2 SWAP1 PUSH2 0x137F JUMP JUMPDEST PUSH1 0x40 MLOAD DUP1 SWAP2 SUB SWAP1 RETURN JUMPDEST PUSH2 0x1A8 PUSH1 0x4 DUP1 CALLDATASIZE SUB DUP2 ADD SWAP1 PUSH2 0x1A3 SWAP2 SWAP1 PUSH2 0x14CF JUMP JUMPDEST PUSH2 0x905 JUMP JUMPDEST STOP JUMPDEST PUSH2 0x1C4 PUSH1 0x4 DUP1 CALLDATASIZE SUB DUP2 ADD SWAP1 PUSH2 0x1BF SWAP2 SWAP1 PUSH2 0x11B3 JUMP JUMPDEST PUSH2 0x9FF JUMP JUMPDEST PUSH1 0x40 MLOAD PUSH2 0x1D1 SWAP2 SWAP1 PUSH2 0x1527 JUMP JUMPDEST PUSH1 0x40 MLOAD DUP1 SWAP2 SUB SWAP1 RETURN JUMPDEST PUSH2 0x1E2 PUSH2 0xA3E JUMP JUMPDEST PUSH1 0x40 MLOAD PUSH2 0x1EF SWAP2 SWAP1 PUSH2 0x1527 JUMP JUMPDEST PUSH1 0x40 MLOAD DUP1 SWAP2 SUB SWAP1 RETURN JUMPDEST PUSH2 0x212 PUSH1 0x4 DUP1 CALLDATASIZE SUB DUP2 ADD SWAP1 PUSH2 0x20D SWAP2 SWAP1 PUSH2 0x1542 JUMP JUMPDEST PUSH2 0xA64 JUMP JUMPDEST PUSH1 0x40 MLOAD PUSH2 0x21F SWAP2 SWAP1 PUSH2 0x1582 JUMP JUMPDEST PUSH1 0x40 MLOAD DUP1 SWAP2 SUB SWAP1 RETURN JUMPDEST PUSH2 0x242 PUSH1 0x4 DUP1 CALLDATASIZE SUB DUP2 ADD SWAP1 PUSH2 0x23D SWAP2 SWAP1 PUSH2 0x1352 JUMP JUMPDEST PUSH2 0xA93 JUMP JUMPDEST PUSH1 0x40 MLOAD PUSH2 0x24F SWAP2 SWAP1 PUSH2 0x1582 JUMP JUMPDEST PUSH1 0x40 MLOAD DUP1 SWAP2 SUB SWAP1 RETURN JUMPDEST PUSH2 0x272 PUSH1 0x4 DUP1 CALLDATASIZE SUB DUP2 ADD SWAP1 PUSH2 0x26D SWAP2 SWAP1 PUSH2 0x1352 JUMP JUMPDEST PUSH2 0xAB3 JUMP JUMPDEST PUSH1 0x40 MLOAD PUSH2 0x281 SWAP4 SWAP3 SWAP2 SWAP1 PUSH2 0x159D JUMP JUMPDEST PUSH1 0x40 MLOAD DUP1 SWAP2 SUB SWAP1 RETURN JUMPDEST PUSH2 0x2A4 PUSH1 0x4 DUP1 CALLDATASIZE SUB DUP2 ADD SWAP1 PUSH2 0x29F SWAP2 SWAP1 PUSH2 0x1352 JUMP JUMPDEST PUSH2 0xAFD JUMP JUMPDEST STOP JUMPDEST PUSH2 0x2C0 PUSH1 0x4 DUP1 CALLDATASIZE SUB DUP2 ADD SWAP1 PUSH2 0x2BB SWAP2 SWAP1 PUSH2 0x1600 JUMP JUMPDEST PUSH2 0xDD5 JUMP JUMPDEST STOP JUMPDEST PUSH1 0x4 DUP2 DUP2 SLOAD DUP2 LT PUSH2 0x2D2 JUMPI PUSH1 0x0 DUP1 REVERT JUMPDEST SWAP1 PUSH1 0x0 MSTORE PUSH1 0x20 PUSH1 0x0 KECCAK256 SWAP1 PUSH1 0x5 MUL ADD PUSH1 0x0 SWAP2 POP SWAP1 POP DUP1 PUSH1 0x0 ADD DUP1 SLOAD PUSH2 0x2F5 SWAP1 PUSH2 0x1682 JUMP JUMPDEST DUP1 PUSH1 0x1F ADD PUSH1 0x20 DUP1 SWAP2 DIV MUL PUSH1 0x20 ADD PUSH1 0x40 MLOAD SWAP1 DUP2 ADD PUSH1 0x40 MSTORE DUP1 SWAP3 SWAP2 SWAP1 DUP2 DUP2 MSTORE PUSH1 0x20 ADD DUP3 DUP1 SLOAD PUSH2 0x321 SWAP1 PUSH2 0x1682 JUMP JUMPDEST DUP1 ISZERO PUSH2 0x36E JUMPI DUP1 PUSH1 0x1F LT PUSH2 0x343 JUMPI PUSH2 0x100 DUP1 DUP4 SLOAD DIV MUL DUP4 MSTORE SWAP2 PUSH1 0x20 ADD SWAP2 PUSH2 0x36E JUMP JUMPDEST DUP3 ADD SWAP2 SWAP1 PUSH1 0x0 MSTORE PUSH1 0x20 PUSH1 0x0 KECCAK256 SWAP1 JUMPDEST DUP2 SLOAD DUP2 MSTORE SWAP1 PUSH1 0x1 ADD SWAP1 PUSH1 0x20 ADD DUP1 DUP4 GT PUSH2 0x351 JUMPI DUP3 SWAP1 SUB PUSH1 0x1F AND DUP3 ADD SWAP2 JUMPDEST POP POP POP POP POP SWAP1 DUP1 PUSH1 0x1 ADD SLOAD SWAP1 DUP1 PUSH1 0x2 ADD SLOAD SWAP1 DUP1 PUSH1 0x3 ADD SLOAD SWAP1 DUP1 PUSH1 0x4 ADD PUSH1 0x0 SWAP1 SLOAD SWAP1 PUSH2 0x100 EXP SWAP1 DIV PUSH1 0xFF AND SWAP1 POP DUP6 JUMP JUMPDEST PUSH1 0x7 PUSH1 0x0 SWAP1 SLOAD SWAP1 PUSH2 0x100 EXP SWAP1 DIV PUSH20 0xFFFFFFFFFFFFFFFFFFFFFFFFFFFFFFFFFFFFFFFF AND PUSH20 0xFFFFFFFFFFFFFFFFFFFFFFFFFFFFFFFFFFFFFFFF AND CALLER PUSH20 0xFFFFFFFFFFFFFFFFFFFFFFFFFFFFFFFFFFFFFFFF AND EQ PUSH2 0x3F7 JUMPI PUSH1 0x0 DUP1 REVERT JUMPDEST PUSH1 0x1 ISZERO ISZERO PUSH1 0x1 PUSH1 0x0 DUP4 PUSH20 0xFFFFFFFFFFFFFFFFFFFFFFFFFFFFFFFFFFFFFFFF AND PUSH20 0xFFFFFFFFFFFFFFFFFFFFFFFFFFFFFFFFFFFFFFFF AND DUP2 MSTORE PUSH1 0x20 ADD SWAP1 DUP2 MSTORE PUSH1 0x20 ADD PUSH1 0x0 KECCAK256 PUSH1 0x0 SWAP1 SLOAD SWAP1 PUSH2 0x100 EXP SWAP1 DIV PUSH1 0xFF AND ISZERO ISZERO EQ PUSH2 0x48A JUMPI PUSH1 0x40 MLOAD PUSH32 0x8C379A000000000000000000000000000000000000000000000000000000000 DUP2 MSTORE PUSH1 0x4 ADD PUSH2 0x481 SWAP1 PUSH2 0x16FF JUMP JUMPDEST PUSH1 0x40 MLOAD DUP1 SWAP2 SUB SWAP1 REVERT JUMPDEST PUSH1 0x40 MLOAD DUP1 PUSH1 0x60 ADD PUSH1 0x40 MSTORE DUP1 PUSH1 0x0 PUSH20 0xFFFFFFFFFFFFFFFFFFFFFFFFFFFFFFFFFFFFFFFF AND DUP2 MSTORE PUSH1 0x20 ADD PUSH1 0x0 DUP2 MSTORE PUSH1 0x20 ADD PUSH1 0x0 DUP2 MSTORE POP PUSH1 0x2 PUSH1 0x0 DUP4 PUSH20 0xFFFFFFFFFFFFFFFFFFFFFFFFFFFFFFFFFFFFFFFF AND PUSH20 0xFFFFFFFFFFFFFFFFFFFFFFFFFFFFFFFFFFFFFFFF AND DUP2 MSTORE PUSH1 0x20 ADD SWAP1 DUP2 MSTORE PUSH1 0x20 ADD PUSH1 0x0 KECCAK256 PUSH1 0x0 DUP3 ADD MLOAD DUP2 PUSH1 0x0 ADD PUSH1 0x0 PUSH2 0x100 EXP DUP2 SLOAD DUP2 PUSH20 0xFFFFFFFFFFFFFFFFFFFFFFFFFFFFFFFFFFFFFFFF MUL NOT AND SWAP1 DUP4 PUSH20 0xFFFFFFFFFFFFFFFFFFFFFFFFFFFFFFFFFFFFFFFF AND MUL OR SWAP1 SSTORE POP PUSH1 0x20 DUP3 ADD MLOAD DUP2 PUSH1 0x1 ADD SSTORE PUSH1 0x40 DUP3 ADD MLOAD DUP2 PUSH1 0x2 ADD SSTORE SWAP1 POP POP PUSH1 0x0 JUMPDEST PUSH1 0x0 DUP1 SLOAD SWAP1 POP DUP2 LT ISZERO PUSH2 0x6E7 JUMPI DUP2 PUSH20 0xFFFFFFFFFFFFFFFFFFFFFFFFFFFFFFFFFFFFFFFF AND PUSH1 0x0 DUP3 DUP2 SLOAD DUP2 LT PUSH2 0x596 JUMPI PUSH2 0x595 PUSH2 0x171F JUMP JUMPDEST JUMPDEST SWAP1 PUSH1 0x0 MSTORE PUSH1 0x20 PUSH1 0x0 KECCAK256 ADD PUSH1 0x0 SWAP1 SLOAD SWAP1 PUSH2 0x100 EXP SWAP1 DIV PUSH20 0xFFFFFFFFFFFFFFFFFFFFFFFFFFFFFFFFFFFFFFFF AND PUSH20 0xFFFFFFFFFFFFFFFFFFFFFFFFFFFFFFFFFFFFFFFF AND SUB PUSH2 0x6D4 JUMPI PUSH1 0x0 PUSH1 0x1 PUSH1 0x0 DUP1 SLOAD SWAP1 POP PUSH2 0x5F0 SWAP2 SWAP1 PUSH2 0x177D JUMP JUMPDEST DUP2 SLOAD DUP2 LT PUSH2 0x601 JUMPI PUSH2 0x600 PUSH2 0x171F JUMP JUMPDEST JUMPDEST SWAP1 PUSH1 0x0 MSTORE PUSH1 0x20 PUSH1 0x0 KECCAK256 ADD PUSH1 0x0 SWAP1 SLOAD SWAP1 PUSH2 0x100 EXP SWAP1 DIV PUSH20 0xFFFFFFFFFFFFFFFFFFFFFFFFFFFFFFFFFFFFFFFF AND PUSH1 0x0 DUP3 DUP2 SLOAD DUP2 LT PUSH2 0x640 JUMPI PUSH2 0x63F PUSH2 0x171F JUMP JUMPDEST JUMPDEST SWAP1 PUSH1 0x0 MSTORE PUSH1 0x20 PUSH1 0x0 KECCAK256 ADD PUSH1 0x0 PUSH2 0x100 EXP DUP2 SLOAD DUP2 PUSH20 0xFFFFFFFFFFFFFFFFFFFFFFFFFFFFFFFFFFFFFFFF MUL NOT AND SWAP1 DUP4 PUSH20 0xFFFFFFFFFFFFFFFFFFFFFFFFFFFFFFFFFFFFFFFF AND MUL OR SWAP1 SSTORE POP PUSH1 0x0 DUP1 SLOAD DUP1 PUSH2 0x69A JUMPI PUSH2 0x699 PUSH2 0x17B1 JUMP JUMPDEST JUMPDEST PUSH1 0x1 SWAP1 SUB DUP2 DUP2 SWAP1 PUSH1 0x0 MSTORE PUSH1 0x20 PUSH1 0x0 KECCAK256 ADD PUSH1 0x0 PUSH2 0x100 EXP DUP2 SLOAD SWAP1 PUSH20 0xFFFFFFFFFFFFFFFFFFFFFFFFFFFFFFFFFFFFFFFF MUL NOT AND SWAP1 SSTORE SWAP1 SSTORE PUSH2 0x6E7 JUMP JUMPDEST DUP1 DUP1 PUSH2 0x6DF SWAP1 PUSH2 0x17E0 JUMP JUMPDEST SWAP2 POP POP PUSH2 0x55E JUMP JUMPDEST POP PUSH1 0x0 PUSH1 0x1 PUSH1 0x0 DUP4 PUSH20 0xFFFFFFFFFFFFFFFFFFFFFFFFFFFFFFFFFFFFFFFF AND PUSH20 0xFFFFFFFFFFFFFFFFFFFFFFFFFFFFFFFFFFFFFFFF AND DUP2 MSTORE PUSH1 0x20 ADD SWAP1 DUP2 MSTORE PUSH1 0x20 ADD PUSH1 0x0 KECCAK256 PUSH1 0x0 PUSH2 0x100 EXP DUP2 SLOAD DUP2 PUSH1 0xFF MUL NOT AND SWAP1 DUP4 ISZERO ISZERO MUL OR SWAP1 SSTORE POP PUSH1 0x0 PUSH1 0x6 PUSH1 0x0 DUP4 PUSH20 0xFFFFFFFFFFFFFFFFFFFFFFFFFFFFFFFFFFFFFFFF AND PUSH20 0xFFFFFFFFFFFFFFFFFFFFFFFFFFFFFFFFFFFFFFFF AND DUP2 MSTORE PUSH1 0x20 ADD SWAP1 DUP2 MSTORE PUSH1 0x20 ADD PUSH1 0x0 KECCAK256 DUP2 SWAP1 SSTORE POP PUSH1 0x64 PUSH1 0x5 PUSH1 0x0 DUP3 DUP3 SLOAD PUSH2 0x798 SWAP2 SWAP1 PUSH2 0x177D JUMP JUMPDEST SWAP3 POP POP DUP2 SWAP1 SSTORE POP POP JUMP JUMPDEST PUSH1 0x0 ISZERO ISZERO PUSH1 0x4 DUP3 DUP2 SLOAD DUP2 LT PUSH2 0x7BA JUMPI PUSH2 0x7B9 PUSH2 0x171F JUMP JUMPDEST JUMPDEST SWAP1 PUSH1 0x0 MSTORE PUSH1 0x20 PUSH1 0x0 KECCAK256 SWAP1 PUSH1 0x5 MUL ADD PUSH1 0x4 ADD PUSH1 0x0 SWAP1 SLOAD SWAP1 PUSH2 0x100 EXP SWAP1 DIV PUSH1 0xFF AND ISZERO ISZERO EQ PUSH2 0x81B JUMPI PUSH1 0x40 MLOAD PUSH32 0x8C379A000000000000000000000000000000000000000000000000000000000 DUP2 MSTORE PUSH1 0x4 ADD PUSH2 0x812 SWAP1 PUSH2 0x189A JUMP JUMPDEST PUSH1 0x40 MLOAD DUP1 SWAP2 SUB SWAP1 REVERT JUMPDEST PUSH1 0x4 DUP2 DUP2 SLOAD DUP2 LT PUSH2 0x82F JUMPI PUSH2 0x82E PUSH2 0x171F JUMP JUMPDEST JUMPDEST SWAP1 PUSH1 0x0 MSTORE PUSH1 0x20 PUSH1 0x0 KECCAK256 SWAP1 PUSH1 0x5 MUL ADD PUSH1 0x3 ADD SLOAD PUSH1 0x4 DUP3 DUP2 SLOAD DUP2 LT PUSH2 0x855 JUMPI PUSH2 0x854 PUSH2 0x171F JUMP JUMPDEST JUMPDEST SWAP1 PUSH1 0x0 MSTORE PUSH1 0x20 PUSH1 0x0 KECCAK256 SWAP1 PUSH1 0x5 MUL ADD PUSH1 0x2 ADD SLOAD GT PUSH2 0x871 JUMPI PUSH1 0x0 DUP1 REVERT JUMPDEST PUSH1 0x1 PUSH1 0x4 DUP3 DUP2 SLOAD DUP2 LT PUSH2 0x887 JUMPI PUSH2 0x886 PUSH2 0x171F JUMP JUMPDEST JUMPDEST SWAP1 PUSH1 0x0 MSTORE PUSH1 0x20 PUSH1 0x0 KECCAK256 SWAP1 PUSH1 0x5 MUL ADD PUSH1 0x4 ADD PUSH1 0x0 PUSH2 0x100 EXP DUP2 SLOAD DUP2 PUSH1 0xFF MUL NOT AND SWAP1 DUP4 ISZERO ISZERO MUL OR SWAP1 SSTORE POP PUSH32 0x19CF08368C3C86AACB1BE12C902A304C3B1D64E4F72E1AA33789A01F68ECAB05 PUSH1 0x40 MLOAD PUSH2 0x8DC SWAP1 PUSH2 0x1906 JUMP JUMPDEST PUSH1 0x40 MLOAD DUP1 SWAP2 SUB SWAP1 LOG1 POP JUMP JUMPDEST PUSH1 0x5 SLOAD DUP2 JUMP JUMPDEST PUSH1 0x6 PUSH1 0x20 MSTORE DUP1 PUSH1 0x0 MSTORE PUSH1 0x40 PUSH1 0x0 KECCAK256 PUSH1 0x0 SWAP2 POP SWAP1 POP SLOAD DUP2 JUMP JUMPDEST PUSH1 0x4 PUSH1 0x40 MLOAD DUP1 PUSH1 0xA0 ADD PUSH1 0x40 MSTORE DUP1 DUP4 DUP2 MSTORE PUSH1 0x20 ADD PUSH1 0x0 DUP2 MSTORE PUSH1 0x20 ADD PUSH1 0x0 DUP2 MSTORE PUSH1 0x20 ADD PUSH1 0x0 DUP2 MSTORE PUSH1 0x20 ADD PUSH1 0x0 ISZERO ISZERO DUP2 MSTORE POP SWAP1 DUP1 PUSH1 0x1 DUP2 SLOAD ADD DUP1 DUP3 SSTORE DUP1 SWAP2 POP POP PUSH1 0x1 SWAP1 SUB SWAP1 PUSH1 0x0 MSTORE PUSH1 0x20 PUSH1 0x0 KECCAK256 SWAP1 PUSH1 0x5 MUL ADD PUSH1 0x0 SWAP1 SWAP2 SWAP1 SWAP2 SWAP1 SWAP2 POP PUSH1 0x0 DUP3 ADD MLOAD DUP2 PUSH1 0x0 ADD SWAP1 DUP2 PUSH2 0x972 SWAP2 SWAP1 PUSH2 0x1AD2 JUMP JUMPDEST POP PUSH1 0x20 DUP3 ADD MLOAD DUP2 PUSH1 0x1 ADD SSTORE PUSH1 0x40 DUP3 ADD MLOAD DUP2 PUSH1 0x2 ADD SSTORE PUSH1 0x60 DUP3 ADD MLOAD DUP2 PUSH1 0x3 ADD SSTORE PUSH1 0x80 DUP3 ADD MLOAD DUP2 PUSH1 0x4 ADD PUSH1 0x0 PUSH2 0x100 EXP DUP2 SLOAD DUP2 PUSH1 0xFF MUL NOT AND SWAP1 DUP4 ISZERO ISZERO MUL OR SWAP1 SSTORE POP POP POP PUSH1 0x1 PUSH1 0x4 DUP1 SLOAD SWAP1 POP PUSH2 0x9C5 SWAP2 SWAP1 PUSH2 0x177D JUMP JUMPDEST PUSH32 0x9C770C289AB5BF7E57CB1D23C8CEAE993AEA46EB64847072FD3D78CA60D3E432 DUP3 PUSH1 0x40 MLOAD PUSH2 0x9F4 SWAP2 SWAP1 PUSH2 0x1BA4 JUMP JUMPDEST PUSH1 0x40 MLOAD DUP1 SWAP2 SUB SWAP1 LOG2 POP JUMP JUMPDEST PUSH1 0x0 DUP2 DUP2 SLOAD DUP2 LT PUSH2 0xA0F JUMPI PUSH1 0x0 DUP1 REVERT JUMPDEST SWAP1 PUSH1 0x0 MSTORE PUSH1 0x20 PUSH1 0x0 KECCAK256 ADD PUSH1 0x0 SWAP2 POP SLOAD SWAP1 PUSH2 0x100 EXP SWAP1 DIV PUSH20 0xFFFFFFFFFFFFFFFFFFFFFFFFFFFFFFFFFFFFFFFF AND DUP2 JUMP JUMPDEST PUSH1 0x7 PUSH1 0x0 SWAP1 SLOAD SWAP1 PUSH2 0x100 EXP SWAP1 DIV PUSH20 0xFFFFFFFFFFFFFFFFFFFFFFFFFFFFFFFFFFFFFFFF AND DUP2 JUMP JUMPDEST PUSH1 0x3 PUSH1 0x20 MSTORE DUP2 PUSH1 0x0 MSTORE PUSH1 0x40 PUSH1 0x0 KECCAK256 PUSH1 0x20 MSTORE DUP1 PUSH1 0x0 MSTORE PUSH1 0x40 PUSH1 0x0 KECCAK256 PUSH1 0x0 SWAP2 POP SWAP2 POP SWAP1 SLOAD SWAP1 PUSH2 0x100 EXP SWAP1 DIV PUSH1 0xFF AND DUP2 JUMP JUMPDEST PUSH1 0x1 PUSH1 0x20 MSTORE DUP1 PUSH1 0x0 MSTORE PUSH1 0x40 PUSH1 0x0 KECCAK256 PUSH1 0x0 SWAP2 POP SLOAD SWAP1 PUSH2 0x100 EXP SWAP1 DIV PUSH1 0xFF AND DUP2 JUMP JUMPDEST PUSH1 0x2 PUSH1 0x20 MSTORE DUP1 PUSH1 0x0 MSTORE PUSH1 0x40 PUSH1 0x0 KECCAK256 PUSH1 0x0 SWAP2 POP SWAP1 POP DUP1 PUSH1 0x0 ADD PUSH1 0x0 SWAP1 SLOAD SWAP1 PUSH2 0x100 EXP SWAP1 DIV PUSH20 0xFFFFFFFFFFFFFFFFFFFFFFFFFFFFFFFFFFFFFFFF AND SWAP1 DUP1 PUSH1 0x1 ADD SLOAD SWAP1 DUP1 PUSH1 0x2 ADD SLOAD SWAP1 POP DUP4 JUMP JUMPDEST PUSH1 0x7 PUSH1 0x0 SWAP1 SLOAD SWAP1 PUSH2 0x100 EXP SWAP1 DIV PUSH20 0xFFFFFFFFFFFFFFFFFFFFFFFFFFFFFFFFFFFFFFFF AND PUSH20 0xFFFFFFFFFFFFFFFFFFFFFFFFFFFFFFFFFFFFFFFF AND CALLER PUSH20 0xFFFFFFFFFFFFFFFFFFFFFFFFFFFFFFFFFFFFFFFF AND EQ PUSH2 0xB57 JUMPI PUSH1 0x0 DUP1 REVERT JUMPDEST PUSH1 0x0 ISZERO ISZERO PUSH1 0x1 PUSH1 0x0 DUP4 PUSH20 0xFFFFFFFFFFFFFFFFFFFFFFFFFFFFFFFFFFFFFFFF AND PUSH20 0xFFFFFFFFFFFFFFFFFFFFFFFFFFFFFFFFFFFFFFFF AND DUP2 MSTORE PUSH1 0x20 ADD SWAP1 DUP2 MSTORE PUSH1 0x20 ADD PUSH1 0x0 KECCAK256 PUSH1 0x0 SWAP1 SLOAD SWAP1 PUSH2 0x100 EXP SWAP1 DIV PUSH1 0xFF AND ISZERO ISZERO EQ PUSH2 0xBEA JUMPI PUSH1 0x40 MLOAD PUSH32 0x8C379A000000000000000000000000000000000000000000000000000000000 DUP2 MSTORE PUSH1 0x4 ADD PUSH2 0xBE1 SWAP1 PUSH2 0x1C12 JUMP JUMPDEST PUSH1 0x40 MLOAD DUP1 SWAP2 SUB SWAP1 REVERT JUMPDEST PUSH1 0x40 MLOAD DUP1 PUSH1 0x60 ADD PUSH1 0x40 MSTORE DUP1 DUP3 PUSH20 0xFFFFFFFFFFFFFFFFFFFFFFFFFFFFFFFFFFFFFFFF AND DUP2 MSTORE PUSH1 0x20 ADD TIMESTAMP DUP2 MSTORE PUSH1 0x20 ADD PUSH1 0x64 DUP2 MSTORE POP PUSH1 0x2 PUSH1 0x0 DUP4 PUSH20 0xFFFFFFFFFFFFFFFFFFFFFFFFFFFFFFFFFFFFFFFF AND PUSH20 0xFFFFFFFFFFFFFFFFFFFFFFFFFFFFFFFFFFFFFFFF AND DUP2 MSTORE PUSH1 0x20 ADD SWAP1 DUP2 MSTORE PUSH1 0x20 ADD PUSH1 0x0 KECCAK256 PUSH1 0x0 DUP3 ADD MLOAD DUP2 PUSH1 0x0 ADD PUSH1 0x0 PUSH2 0x100 EXP DUP2 SLOAD DUP2 PUSH20 0xFFFFFFFFFFFFFFFFFFFFFFFFFFFFFFFFFFFFFFFF MUL NOT AND SWAP1 DUP4 PUSH20 0xFFFFFFFFFFFFFFFFFFFFFFFFFFFFFFFFFFFFFFFF AND MUL OR SWAP1 SSTORE POP PUSH1 0x20 DUP3 ADD MLOAD DUP2 PUSH1 0x1 ADD SSTORE PUSH1 0x40 DUP3 ADD MLOAD DUP2 PUSH1 0x2 ADD SSTORE SWAP1 POP POP PUSH1 0x0 DUP2 SWAP1 DUP1 PUSH1 0x1 DUP2 SLOAD ADD DUP1 DUP3 SSTORE DUP1 SWAP2 POP POP PUSH1 0x1 SWAP1 SUB SWAP1 PUSH1 0x0 MSTORE PUSH1 0x20 PUSH1 0x0 KECCAK256 ADD PUSH1 0x0 SWAP1 SWAP2 SWAP1 SWAP2 SWAP1 SWAP2 PUSH2 0x100 EXP DUP2 SLOAD DUP2 PUSH20 0xFFFFFFFFFFFFFFFFFFFFFFFFFFFFFFFFFFFFFFFF MUL NOT AND SWAP1 DUP4 PUSH20 0xFFFFFFFFFFFFFFFFFFFFFFFFFFFFFFFFFFFFFFFF AND MUL OR SWAP1 SSTORE POP PUSH1 0x1 DUP1 PUSH1 0x0 DUP4 PUSH20 0xFFFFFFFFFFFFFFFFFFFFFFFFFFFFFFFFFFFFFFFF AND PUSH20 0xFFFFFFFFFFFFFFFFFFFFFFFFFFFFFFFFFFFFFFFF AND DUP2 MSTORE PUSH1 0x20 ADD SWAP1 DUP2 MSTORE PUSH1 0x20 ADD PUSH1 0x0 KECCAK256 PUSH1 0x0 PUSH2 0x100 EXP DUP2 SLOAD DUP2 PUSH1 0xFF MUL NOT AND SWAP1 DUP4 ISZERO ISZERO MUL OR SWAP1 SSTORE POP PUSH1 0x64 PUSH1 0x6 PUSH1 0x0 DUP4 PUSH20 0xFFFFFFFFFFFFFFFFFFFFFFFFFFFFFFFFFFFFFFFF AND PUSH20 0xFFFFFFFFFFFFFFFFFFFFFFFFFFFFFFFFFFFFFFFF AND DUP2 MSTORE PUSH1 0x20 ADD SWAP1 DUP2 MSTORE PUSH1 0x20 ADD PUSH1 0x0 KECCAK256 DUP2 SWAP1 SSTORE POP PUSH1 0x64 PUSH1 0x5 PUSH1 0x0 DUP3 DUP3 SLOAD PUSH2 0xDCB SWAP2 SWAP1 PUSH2 0x1C32 JUMP JUMPDEST SWAP3 POP POP DUP2 SWAP1 SSTORE POP POP JUMP JUMPDEST PUSH1 0x1 ISZERO ISZERO PUSH1 0x1 PUSH1 0x0 CALLER PUSH20 0xFFFFFFFFFFFFFFFFFFFFFFFFFFFFFFFFFFFFFFFF AND PUSH20 0xFFFFFFFFFFFFFFFFFFFFFFFFFFFFFFFFFFFFFFFF AND DUP2 MSTORE PUSH1 0x20 ADD SWAP1 DUP2 MSTORE PUSH1 0x20 ADD PUSH1 0x0 KECCAK256 PUSH1 0x0 SWAP1 SLOAD SWAP1 PUSH2 0x100 EXP SWAP1 DIV PUSH1 0xFF AND ISZERO ISZERO EQ PUSH2 0xE68 JUMPI PUSH1 0x40 MLOAD PUSH32 0x8C379A000000000000000000000000000000000000000000000000000000000 DUP2 MSTORE PUSH1 0x4 ADD PUSH2 0xE5F SWAP1 PUSH2 0x1CB2 JUMP JUMPDEST PUSH1 0x40 MLOAD DUP1 SWAP2 SUB SWAP1 REVERT JUMPDEST DUP2 PUSH1 0x6 PUSH1 0x0 CALLER PUSH20 0xFFFFFFFFFFFFFFFFFFFFFFFFFFFFFFFFFFFFFFFF AND PUSH20 0xFFFFFFFFFFFFFFFFFFFFFFFFFFFFFFFFFFFFFFFF AND DUP2 MSTORE PUSH1 0x20 ADD SWAP1 DUP2 MSTORE PUSH1 0x20 ADD PUSH1 0x0 KECCAK256 SLOAD LT ISZERO PUSH2 0xEEA JUMPI PUSH1 0x40 MLOAD PUSH32 0x8C379A000000000000000000000000000000000000000000000000000000000 DUP2 MSTORE PUSH1 0x4 ADD PUSH2 0xEE1 SWAP1 PUSH2 0x1D1E JUMP JUMPDEST PUSH1 0x40 MLOAD DUP1 SWAP2 SUB SWAP1 REVERT JUMPDEST PUSH1 0x0 ISZERO ISZERO PUSH1 0x3 PUSH1 0x0 CALLER PUSH20 0xFFFFFFFFFFFFFFFFFFFFFFFFFFFFFFFFFFFFFFFF AND PUSH20 0xFFFFFFFFFFFFFFFFFFFFFFFFFFFFFFFFFFFFFFFF AND DUP2 MSTORE PUSH1 0x20 ADD SWAP1 DUP2 MSTORE PUSH1 0x20 ADD PUSH1 0x0 KECCAK256 PUSH1 0x0 DUP6 DUP2 MSTORE PUSH1 0x20 ADD SWAP1 DUP2 MSTORE PUSH1 0x20 ADD PUSH1 0x0 KECCAK256 PUSH1 0x0 SWAP1 SLOAD SWAP1 PUSH2 0x100 EXP SWAP1 DIV PUSH1 0xFF AND ISZERO ISZERO EQ PUSH2 0xF8E JUMPI PUSH1 0x40 MLOAD PUSH32 0x8C379A000000000000000000000000000000000000000000000000000000000 DUP2 MSTORE PUSH1 0x4 ADD PUSH2 0xF85 SWAP1 PUSH2 0x1DB0 JUMP JUMPDEST PUSH1 0x40 MLOAD DUP1 SWAP2 SUB SWAP1 REVERT JUMPDEST DUP1 PUSH1 0x3 PUSH1 0x0 CALLER PUSH20 0xFFFFFFFFFFFFFFFFFFFFFFFFFFFFFFFFFFFFFFFF AND PUSH20 0xFFFFFFFFFFFFFFFFFFFFFFFFFFFFFFFFFFFFFFFF AND DUP2 MSTORE PUSH1 0x20 ADD SWAP1 DUP2 MSTORE PUSH1 0x20 ADD PUSH1 0x0 KECCAK256 PUSH1 0x0 DUP6 DUP2 MSTORE PUSH1 0x20 ADD SWAP1 DUP2 MSTORE PUSH1 0x20 ADD PUSH1 0x0 KECCAK256 PUSH1 0x0 PUSH2 0x100 EXP DUP2 SLOAD DUP2 PUSH1 0xFF MUL NOT AND SWAP1 DUP4 ISZERO ISZERO MUL OR SWAP1 SSTORE POP DUP2 PUSH1 0x2 PUSH1 0x0 CALLER PUSH20 0xFFFFFFFFFFFFFFFFFFFFFFFFFFFFFFFFFFFFFFFF AND PUSH20 0xFFFFFFFFFFFFFFFFFFFFFFFFFFFFFFFFFFFFFFFF AND DUP2 MSTORE PUSH1 0x20 ADD SWAP1 DUP2 MSTORE PUSH1 0x20 ADD PUSH1 0x0 KECCAK256 PUSH1 0x2 ADD PUSH1 0x0 DUP3 DUP3 SLOAD PUSH2 0x1048 SWAP2 SWAP1 PUSH2 0x177D JUMP JUMPDEST SWAP3 POP POP DUP2 SWAP1 SSTORE POP DUP2 PUSH1 0x4 DUP5 DUP2 SLOAD DUP2 LT PUSH2 0x1064 JUMPI PUSH2 0x1063 PUSH2 0x171F JUMP JUMPDEST JUMPDEST SWAP1 PUSH1 0x0 MSTORE PUSH1 0x20 PUSH1 0x0 KECCAK256 SWAP1 PUSH1 0x5 MUL ADD PUSH1 0x1 ADD PUSH1 0x0 DUP3 DUP3 SLOAD PUSH2 0x1084 SWAP2 SWAP1 PUSH2 0x1C32 JUMP JUMPDEST SWAP3 POP POP DUP2 SWAP1 SSTORE POP PUSH1 0x1 ISZERO ISZERO DUP2 ISZERO ISZERO SUB PUSH2 0x10D8 JUMPI DUP2 PUSH1 0x4 DUP5 DUP2 SLOAD DUP2 LT PUSH2 0x10AC JUMPI PUSH2 0x10AB PUSH2 0x171F JUMP JUMPDEST JUMPDEST SWAP1 PUSH1 0x0 MSTORE PUSH1 0x20 PUSH1 0x0 KECCAK256 SWAP1 PUSH1 0x5 MUL ADD PUSH1 0x2 ADD PUSH1 0x0 DUP3 DUP3 SLOAD PUSH2 0x10CC SWAP2 SWAP1 PUSH2 0x1C32 JUMP JUMPDEST SWAP3 POP POP DUP2 SWAP1 SSTORE POP PUSH2 0x1115 JUMP JUMPDEST DUP2 PUSH1 0x4 DUP5 DUP2 SLOAD DUP2 LT PUSH2 0x10ED JUMPI PUSH2 0x10EC PUSH2 0x171F JUMP JUMPDEST JUMPDEST SWAP1 PUSH1 0x0 MSTORE PUSH1 0x20 PUSH1 0x0 KECCAK256 SWAP1 PUSH1 0x5 MUL ADD PUSH1 0x3 ADD PUSH1 0x0 DUP3 DUP3 SLOAD PUSH2 0x110D SWAP2 SWAP1 PUSH2 0x1C32 JUMP JUMPDEST SWAP3 POP POP DUP2 SWAP1 SSTORE POP JUMPDEST DUP3 CALLER PUSH20 0xFFFFFFFFFFFFFFFFFFFFFFFFFFFFFFFFFFFFFFFF AND PUSH32 0xB4CFECF70861B7B150D8337780D34FB4CBC2114B5FB1FE51A5C5FCA1849F7274 DUP5 PUSH1 0x40 MLOAD PUSH2 0x115C SWAP2 SWAP1 PUSH2 0x137F JUMP JUMPDEST PUSH1 0x40 MLOAD DUP1 SWAP2 SUB SWAP1 LOG3 POP POP POP JUMP JUMPDEST PUSH1 0x0 PUSH1 0x40 MLOAD SWAP1 POP SWAP1 JUMP JUMPDEST PUSH1 0x0 DUP1 REVERT JUMPDEST PUSH1 0x0 DUP1 REVERT JUMPDEST PUSH1 0x0 DUP2 SWAP1 POP SWAP2 SWAP1 POP JUMP JUMPDEST PUSH2 0x1190 DUP2 PUSH2 0x117D JUMP JUMPDEST DUP2 EQ PUSH2 0x119B JUMPI PUSH1 0x0 DUP1 REVERT JUMPDEST POP JUMP JUMPDEST PUSH1 0x0 DUP2 CALLDATALOAD SWAP1 POP PUSH2 0x11AD DUP2 PUSH2 0x1187 JUMP JUMPDEST SWAP3 SWAP2 POP POP JUMP JUMPDEST PUSH1 0x0 PUSH1 0x20 DUP3 DUP5 SUB SLT ISZERO PUSH2 0x11C9 JUMPI PUSH2 0x11C8 PUSH2 0x1173 JUMP JUMPDEST JUMPDEST PUSH1 0x0 PUSH2 0x11D7 DUP5 DUP3 DUP6 ADD PUSH2 0x119E JUMP JUMPDEST SWAP2 POP POP SWAP3 SWAP2 POP POP JUMP JUMPDEST PUSH1 0x0 DUP2 MLOAD SWAP1 POP SWAP2 SWAP1 POP JUMP JUMPDEST PUSH1 0x0 DUP3 DUP3 MSTORE PUSH1 0x20 DUP3 ADD SWAP1 POP SWAP3 SWAP2 POP POP JUMP JUMPDEST PUSH1 0x0 JUMPDEST DUP4 DUP2 LT ISZERO PUSH2 0x121A JUMPI DUP1 DUP3 ADD MLOAD DUP2 DUP5 ADD MSTORE PUSH1 0x20 DUP2 ADD SWAP1 POP PUSH2 0x11FF JUMP JUMPDEST PUSH1 0x0 DUP5 DUP5 ADD MSTORE POP POP POP POP JUMP JUMPDEST PUSH1 0x0 PUSH1 0x1F NOT PUSH1 0x1F DUP4 ADD AND SWAP1 POP SWAP2 SWAP1 POP JUMP JUMPDEST PUSH1 0x0 PUSH2 0x1242 DUP3 PUSH2 0x11E0 JUMP JUMPDEST PUSH2 0x124C DUP2 DUP6 PUSH2 0x11EB JUMP JUMPDEST SWAP4 POP PUSH2 0x125C DUP2 DUP6 PUSH1 0x20 DUP7 ADD PUSH2 0x11FC JUMP JUMPDEST PUSH2 0x1265 DUP2 PUSH2 0x1226 JUMP JUMPDEST DUP5 ADD SWAP2 POP POP SWAP3 SWAP2 POP POP JUMP JUMPDEST PUSH2 0x1279 DUP2 PUSH2 0x117D JUMP JUMPDEST DUP3 MSTORE POP POP JUMP JUMPDEST PUSH1 0x0 DUP2 ISZERO ISZERO SWAP1 POP SWAP2 SWAP1 POP JUMP JUMPDEST PUSH2 0x1294 DUP2 PUSH2 0x127F JUMP JUMPDEST DUP3 MSTORE POP POP JUMP JUMPDEST PUSH1 0x0 PUSH1 0xA0 DUP3 ADD SWAP1 POP DUP2 DUP2 SUB PUSH1 0x0 DUP4 ADD MSTORE PUSH2 0x12B4 DUP2 DUP9 PUSH2 0x1237 JUMP JUMPDEST SWAP1 POP PUSH2 0x12C3 PUSH1 0x20 DUP4 ADD DUP8 PUSH2 0x1270 JUMP JUMPDEST PUSH2 0x12D0 PUSH1 0x40 DUP4 ADD DUP7 PUSH2 0x1270 JUMP JUMPDEST PUSH2 0x12DD PUSH1 0x60 DUP4 ADD DUP6 PUSH2 0x1270 JUMP JUMPDEST PUSH2 0x12EA PUSH1 0x80 DUP4 ADD DUP5 PUSH2 0x128B JUMP JUMPDEST SWAP7 SWAP6 POP POP POP POP POP POP JUMP JUMPDEST PUSH1 0x0 PUSH20 0xFFFFFFFFFFFFFFFFFFFFFFFFFFFFFFFFFFFFFFFF DUP3 AND SWAP1 POP SWAP2 SWAP1 POP JUMP JUMPDEST PUSH1 0x0 PUSH2 0x131F DUP3 PUSH2 0x12F4 JUMP JUMPDEST SWAP1 POP SWAP2 SWAP1 POP JUMP JUMPDEST PUSH2 0x132F DUP2 PUSH2 0x1314 JUMP JUMPDEST DUP2 EQ PUSH2 0x133A JUMPI PUSH1 0x0 DUP1 REVERT JUMPDEST POP JUMP JUMPDEST PUSH1 0x0 DUP2 CALLDATALOAD SWAP1 POP PUSH2 0x134C DUP2 PUSH2 0x1326 JUMP JUMPDEST SWAP3 SWAP2 POP POP JUMP JUMPDEST PUSH1 0x0 PUSH1 0x20 DUP3 DUP5 SUB SLT ISZERO PUSH2 0x1368 JUMPI PUSH2 0x1367 PUSH2 0x1173 JUMP JUMPDEST JUMPDEST PUSH1 0x0 PUSH2 0x1376 DUP5 DUP3 DUP6 ADD PUSH2 0x133D JUMP JUMPDEST SWAP2 POP POP SWAP3 SWAP2 POP POP JUMP JUMPDEST PUSH1 0x0 PUSH1 0x20 DUP3 ADD SWAP1 POP PUSH2 0x1394 PUSH1 0x0 DUP4 ADD DUP5 PUSH2 0x1270 JUMP JUMPDEST SWAP3 SWAP2 POP POP JUMP JUMPDEST PUSH1 0x0 DUP1 REVERT JUMPDEST PUSH1 0x0 DUP1 REVERT JUMPDEST PUSH32 0x4E487B7100000000000000000000000000000000000000000000000000000000 PUSH1 0x0 MSTORE PUSH1 0x41 PUSH1 0x4 MSTORE PUSH1 0x24 PUSH1 0x0 REVERT JUMPDEST PUSH2 0x13DC DUP3 PUSH2 0x1226 JUMP JUMPDEST DUP2 ADD DUP2 DUP2 LT PUSH8 0xFFFFFFFFFFFFFFFF DUP3 GT OR ISZERO PUSH2 0x13FB JUMPI PUSH2 0x13FA PUSH2 0x13A4 JUMP JUMPDEST JUMPDEST DUP1 PUSH1 0x40 MSTORE POP POP POP JUMP JUMPDEST PUSH1 0x0 PUSH2 0x140E PUSH2 0x1169 JUMP JUMPDEST SWAP1 POP PUSH2 0x141A DUP3 DUP3 PUSH2 0x13D3 JUMP JUMPDEST SWAP2 SWAP1 POP JUMP JUMPDEST PUSH1 0x0 PUSH8 0xFFFFFFFFFFFFFFFF DUP3 GT ISZERO PUSH2 0x143A JUMPI PUSH2 0x1439 PUSH2 0x13A4 JUMP JUMPDEST JUMPDEST PUSH2 0x1443 DUP3 PUSH2 0x1226 JUMP JUMPDEST SWAP1 POP PUSH1 0x20 DUP2 ADD SWAP1 POP SWAP2 SWAP1 POP JUMP JUMPDEST DUP3 DUP2 DUP4 CALLDATACOPY PUSH1 0x0 DUP4 DUP4 ADD MSTORE POP POP POP JUMP JUMPDEST PUSH1 0x0 PUSH2 0x1472 PUSH2 0x146D DUP5 PUSH2 0x141F JUMP JUMPDEST PUSH2 0x1404 JUMP JUMPDEST SWAP1 POP DUP3 DUP2 MSTORE PUSH1 0x20 DUP2 ADD DUP5 DUP5 DUP5 ADD GT ISZERO PUSH2 0x148E JUMPI PUSH2 0x148D PUSH2 0x139F JUMP JUMPDEST JUMPDEST PUSH2 0x1499 DUP5 DUP3 DUP6 PUSH2 0x1450 JUMP JUMPDEST POP SWAP4 SWAP3 POP POP POP JUMP JUMPDEST PUSH1 0x0 DUP3 PUSH1 0x1F DUP4 ADD SLT PUSH2 0x14B6 JUMPI PUSH2 0x14B5 PUSH2 0x139A JUMP JUMPDEST JUMPDEST DUP2 CALLDATALOAD PUSH2 0x14C6 DUP5 DUP3 PUSH1 0x20 DUP7 ADD PUSH2 0x145F JUMP JUMPDEST SWAP2 POP POP SWAP3 SWAP2 POP POP JUMP JUMPDEST PUSH1 0x0 PUSH1 0x20 DUP3 DUP5 SUB SLT ISZERO PUSH2 0x14E5 JUMPI PUSH2 0x14E4 PUSH2 0x1173 JUMP JUMPDEST JUMPDEST PUSH1 0x0 DUP3 ADD CALLDATALOAD PUSH8 0xFFFFFFFFFFFFFFFF DUP2 GT ISZERO PUSH2 0x1503 JUMPI PUSH2 0x1502 PUSH2 0x1178 JUMP JUMPDEST JUMPDEST PUSH2 0x150F DUP5 DUP3 DUP6 ADD PUSH2 0x14A1 JUMP JUMPDEST SWAP2 POP POP SWAP3 SWAP2 POP POP JUMP JUMPDEST PUSH2 0x1521 DUP2 PUSH2 0x1314 JUMP JUMPDEST DUP3 MSTORE POP POP JUMP JUMPDEST PUSH1 0x0 PUSH1 0x20 DUP3 ADD SWAP1 POP PUSH2 0x153C PUSH1 0x0 DUP4 ADD DUP5 PUSH2 0x1518 JUMP JUMPDEST SWAP3 SWAP2 POP POP JUMP JUMPDEST PUSH1 0x0 DUP1 PUSH1 0x40 DUP4 DUP6 SUB SLT ISZERO PUSH2 0x1559 JUMPI PUSH2 0x1558 PUSH2 0x1173 JUMP JUMPDEST JUMPDEST PUSH1 0x0 PUSH2 0x1567 DUP6 DUP3 DUP7 ADD PUSH2 0x133D JUMP JUMPDEST SWAP3 POP POP PUSH1 0x20 PUSH2 0x1578 DUP6 DUP3 DUP7 ADD PUSH2 0x119E JUMP JUMPDEST SWAP2 POP POP SWAP3 POP SWAP3 SWAP1 POP JUMP JUMPDEST PUSH1 0x0 PUSH1 0x20 DUP3 ADD SWAP1 POP PUSH2 0x1597 PUSH1 0x0 DUP4 ADD DUP5 PUSH2 0x128B JUMP JUMPDEST SWAP3 SWAP2 POP POP JUMP JUMPDEST PUSH1 0x0 PUSH1 0x60 DUP3 ADD SWAP1 POP PUSH2 0x15B2 PUSH1 0x0 DUP4 ADD DUP7 PUSH2 0x1518 JUMP JUMPDEST PUSH2 0x15BF PUSH1 0x20 DUP4 ADD DUP6 PUSH2 0x1270 JUMP JUMPDEST PUSH2 0x15CC PUSH1 0x40 DUP4 ADD DUP5 PUSH2 0x1270 JUMP JUMPDEST SWAP5 SWAP4 POP POP POP POP JUMP JUMPDEST PUSH2 0x15DD DUP2 PUSH2 0x127F JUMP JUMPDEST DUP2 EQ PUSH2 0x15E8 JUMPI PUSH1 0x0 DUP1 REVERT JUMPDEST POP JUMP JUMPDEST PUSH1 0x0 DUP2 CALLDATALOAD SWAP1 POP PUSH2 0x15FA DUP2 PUSH2 0x15D4 JUMP JUMPDEST SWAP3 SWAP2 POP POP JUMP JUMPDEST PUSH1 0x0 DUP1 PUSH1 0x0 PUSH1 0x60 DUP5 DUP7 SUB SLT ISZERO PUSH2 0x1619 JUMPI PUSH2 0x1618 PUSH2 0x1173 JUMP JUMPDEST JUMPDEST PUSH1 0x0 PUSH2 0x1627 DUP7 DUP3 DUP8 ADD PUSH2 0x119E JUMP JUMPDEST SWAP4 POP POP PUSH1 0x20 PUSH2 0x1638 DUP7 DUP3 DUP8 ADD PUSH2 0x119E JUMP JUMPDEST SWAP3 POP POP PUSH1 0x40 PUSH2 0x1649 DUP7 DUP3 DUP8 ADD PUSH2 0x15EB JUMP JUMPDEST SWAP2 POP POP SWAP3 POP SWAP3 POP SWAP3 JUMP JUMPDEST PUSH32 0x4E487B7100000000000000000000000000000000000000000000000000000000 PUSH1 0x0 MSTORE PUSH1 0x22 PUSH1 0x4 MSTORE PUSH1 0x24 PUSH1 0x0 REVERT JUMPDEST PUSH1 0x0 PUSH1 0x2 DUP3 DIV SWAP1 POP PUSH1 0x1 DUP3 AND DUP1 PUSH2 0x169A JUMPI PUSH1 0x7F DUP3 AND SWAP2 POP JUMPDEST PUSH1 0x20 DUP3 LT DUP2 SUB PUSH2 0x16AD JUMPI PUSH2 0x16AC PUSH2 0x1653 JUMP JUMPDEST JUMPDEST POP SWAP2 SWAP1 POP JUMP JUMPDEST PUSH32 0x6D656D62657220646F6573206E6F742065786973740000000000000000000000 PUSH1 0x0 DUP3 ADD MSTORE POP JUMP JUMPDEST PUSH1 0x0 PUSH2 0x16E9 PUSH1 0x15 DUP4 PUSH2 0x11EB JUMP JUMPDEST SWAP2 POP PUSH2 0x16F4 DUP3 PUSH2 0x16B3 JUMP JUMPDEST PUSH1 0x20 DUP3 ADD SWAP1 POP SWAP2 SWAP1 POP JUMP JUMPDEST PUSH1 0x0 PUSH1 0x20 DUP3 ADD SWAP1 POP DUP2 DUP2 SUB PUSH1 0x0 DUP4 ADD MSTORE PUSH2 0x1718 DUP2 PUSH2 0x16DC JUMP JUMPDEST SWAP1 POP SWAP2 SWAP1 POP JUMP JUMPDEST PUSH32 0x4E487B7100000000000000000000000000000000000000000000000000000000 PUSH1 0x0 MSTORE PUSH1 0x32 PUSH1 0x4 MSTORE PUSH1 0x24 PUSH1 0x0 REVERT JUMPDEST PUSH32 0x4E487B7100000000000000000000000000000000000000000000000000000000 PUSH1 0x0 MSTORE PUSH1 0x11 PUSH1 0x4 MSTORE PUSH1 0x24 PUSH1 0x0 REVERT JUMPDEST PUSH1 0x0 PUSH2 0x1788 DUP3 PUSH2 0x117D JUMP JUMPDEST SWAP2 POP PUSH2 0x1793 DUP4 PUSH2 0x117D JUMP JUMPDEST SWAP3 POP DUP3 DUP3 SUB SWAP1 POP DUP2 DUP2 GT ISZERO PUSH2 0x17AB JUMPI PUSH2 0x17AA PUSH2 0x174E JUMP JUMPDEST JUMPDEST SWAP3 SWAP2 POP POP JUMP JUMPDEST PUSH32 0x4E487B7100000000000000000000000000000000000000000000000000000000 PUSH1 0x0 MSTORE PUSH1 0x31 PUSH1 0x4 MSTORE PUSH1 0x24 PUSH1 0x0 REVERT JUMPDEST PUSH1 0x0 PUSH2 0x17EB DUP3 PUSH2 0x117D JUMP JUMPDEST SWAP2 POP PUSH32 0xFFFFFFFFFFFFFFFFFFFFFFFFFFFFFFFFFFFFFFFFFFFFFFFFFFFFFFFFFFFFFFFF DUP3 SUB PUSH2 0x181D JUMPI PUSH2 0x181C PUSH2 0x174E JUMP JUMPDEST JUMPDEST PUSH1 0x1 DUP3 ADD SWAP1 POP SWAP2 SWAP1 POP JUMP JUMPDEST PUSH32 0x50726F706F73616C2068617320616C7265616479206265656E20657865637574 PUSH1 0x0 DUP3 ADD MSTORE PUSH32 0x6564000000000000000000000000000000000000000000000000000000000000 PUSH1 0x20 DUP3 ADD MSTORE POP JUMP JUMPDEST PUSH1 0x0 PUSH2 0x1884 PUSH1 0x22 DUP4 PUSH2 0x11EB JUMP JUMPDEST SWAP2 POP PUSH2 0x188F DUP3 PUSH2 0x1828 JUMP JUMPDEST PUSH1 0x40 DUP3 ADD SWAP1 POP SWAP2 SWAP1 POP JUMP JUMPDEST PUSH1 0x0 PUSH1 0x20 DUP3 ADD SWAP1 POP DUP2 DUP2 SUB PUSH1 0x0 DUP4 ADD MSTORE PUSH2 0x18B3 DUP2 PUSH2 0x1877 JUMP JUMPDEST SWAP1 POP SWAP2 SWAP1 POP JUMP JUMPDEST PUSH32 0x50726F706F73616C20686173206265656E20617070726F766564000000000000 PUSH1 0x0 DUP3 ADD MSTORE POP JUMP JUMPDEST PUSH1 0x0 PUSH2 0x18F0 PUSH1 0x1A DUP4 PUSH2 0x11EB JUMP JUMPDEST SWAP2 POP PUSH2 0x18FB DUP3 PUSH2 0x18BA JUMP JUMPDEST PUSH1 0x20 DUP3 ADD SWAP1 POP SWAP2 SWAP1 POP JUMP JUMPDEST PUSH1 0x0 PUSH1 0x20 DUP3 ADD SWAP1 POP DUP2 DUP2 SUB PUSH1 0x0 DUP4 ADD MSTORE PUSH2 0x191F DUP2 PUSH2 0x18E3 JUMP JUMPDEST SWAP1 POP SWAP2 SWAP1 POP JUMP JUMPDEST PUSH1 0x0 DUP2 SWAP1 POP DUP2 PUSH1 0x0 MSTORE PUSH1 0x20 PUSH1 0x0 KECCAK256 SWAP1 POP SWAP2 SWAP1 POP JUMP JUMPDEST PUSH1 0x0 PUSH1 0x20 PUSH1 0x1F DUP4 ADD DIV SWAP1 POP SWAP2 SWAP1 POP JUMP JUMPDEST PUSH1 0x0 DUP3 DUP3 SHL SWAP1 POP SWAP3 SWAP2 POP POP JUMP JUMPDEST PUSH1 0x0 PUSH1 0x8 DUP4 MUL PUSH2 0x1988 PUSH32 0xFFFFFFFFFFFFFFFFFFFFFFFFFFFFFFFFFFFFFFFFFFFFFFFFFFFFFFFFFFFFFFFF DUP3 PUSH2 0x194B JUMP JUMPDEST PUSH2 0x1992 DUP7 DUP4 PUSH2 0x194B JUMP JUMPDEST SWAP6 POP DUP1 NOT DUP5 AND SWAP4 POP DUP1 DUP7 AND DUP5 OR SWAP3 POP POP POP SWAP4 SWAP3 POP POP POP JUMP JUMPDEST PUSH1 0x0 DUP2 SWAP1 POP SWAP2 SWAP1 POP JUMP JUMPDEST PUSH1 0x0 PUSH2 0x19CF PUSH2 0x19CA PUSH2 0x19C5 DUP5 PUSH2 0x117D JUMP JUMPDEST PUSH2 0x19AA JUMP JUMPDEST PUSH2 0x117D JUMP JUMPDEST SWAP1 POP SWAP2 SWAP1 POP JUMP JUMPDEST PUSH1 0x0 DUP2 SWAP1 POP SWAP2 SWAP1 POP JUMP JUMPDEST PUSH2 0x19E9 DUP4 PUSH2 0x19B4 JUMP JUMPDEST PUSH2 0x19FD PUSH2 0x19F5 DUP3 PUSH2 0x19D6 JUMP JUMPDEST DUP5 DUP5 SLOAD PUSH2 0x1958 JUMP JUMPDEST DUP3 SSTORE POP POP POP POP JUMP JUMPDEST PUSH1 0x0 SWAP1 JUMP JUMPDEST PUSH2 0x1A12 PUSH2 0x1A05 JUMP JUMPDEST PUSH2 0x1A1D DUP2 DUP5 DUP5 PUSH2 0x19E0 JUMP JUMPDEST POP POP POP JUMP JUMPDEST JUMPDEST DUP2 DUP2 LT ISZERO PUSH2 0x1A41 JUMPI PUSH2 0x1A36 PUSH1 0x0 DUP3 PUSH2 0x1A0A JUMP JUMPDEST PUSH1 0x1 DUP2 ADD SWAP1 POP PUSH2 0x1A23 JUMP JUMPDEST POP POP JUMP JUMPDEST PUSH1 0x1F DUP3 GT ISZERO PUSH2 0x1A86 JUMPI PUSH2 0x1A57 DUP2 PUSH2 0x1926 JUMP JUMPDEST PUSH2 0x1A60 DUP5 PUSH2 0x193B JUMP JUMPDEST DUP2 ADD PUSH1 0x20 DUP6 LT ISZERO PUSH2 0x1A6F JUMPI DUP2 SWAP1 POP JUMPDEST PUSH2 0x1A83 PUSH2 0x1A7B DUP6 PUSH2 0x193B JUMP JUMPDEST DUP4 ADD DUP3 PUSH2 0x1A22 JUMP JUMPDEST POP POP JUMPDEST POP POP POP JUMP JUMPDEST PUSH1 0x0 DUP3 DUP3 SHR SWAP1 POP SWAP3 SWAP2 POP POP JUMP JUMPDEST PUSH1 0x0 PUSH2 0x1AA9 PUSH1 0x0 NOT DUP5 PUSH1 0x8 MUL PUSH2 0x1A8B JUMP JUMPDEST NOT DUP1 DUP4 AND SWAP2 POP POP SWAP3 SWAP2 POP POP JUMP JUMPDEST PUSH1 0x0 PUSH2 0x1AC2 DUP4 DUP4 PUSH2 0x1A98 JUMP JUMPDEST SWAP2 POP DUP3 PUSH1 0x2 MUL DUP3 OR SWAP1 POP SWAP3 SWAP2 POP POP JUMP JUMPDEST PUSH2 0x1ADB DUP3 PUSH2 0x11E0 JUMP JUMPDEST PUSH8 0xFFFFFFFFFFFFFFFF DUP2 GT ISZERO PUSH2 0x1AF4 JUMPI PUSH2 0x1AF3 PUSH2 0x13A4 JUMP JUMPDEST JUMPDEST PUSH2 0x1AFE DUP3 SLOAD PUSH2 0x1682 JUMP JUMPDEST PUSH2 0x1B09 DUP3 DUP3 DUP6 PUSH2 0x1A45 JUMP JUMPDEST PUSH1 0x0 PUSH1 0x20 SWAP1 POP PUSH1 0x1F DUP4 GT PUSH1 0x1 DUP2 EQ PUSH2 0x1B3C JUMPI PUSH1 0x0 DUP5 ISZERO PUSH2 0x1B2A JUMPI DUP3 DUP8 ADD MLOAD SWAP1 POP JUMPDEST PUSH2 0x1B34 DUP6 DUP3 PUSH2 0x1AB6 JUMP JUMPDEST DUP7 SSTORE POP PUSH2 0x1B9C JUMP JUMPDEST PUSH1 0x1F NOT DUP5 AND PUSH2 0x1B4A DUP7 PUSH2 0x1926 JUMP JUMPDEST PUSH1 0x0 JUMPDEST DUP3 DUP2 LT ISZERO PUSH2 0x1B72 JUMPI DUP5 DUP10 ADD MLOAD DUP3 SSTORE PUSH1 0x1 DUP3 ADD SWAP2 POP PUSH1 0x20 DUP6 ADD SWAP5 POP PUSH1 0x20 DUP2 ADD SWAP1 POP PUSH2 0x1B4D JUMP JUMPDEST DUP7 DUP4 LT ISZERO PUSH2 0x1B8F JUMPI DUP5 DUP10 ADD MLOAD PUSH2 0x1B8B PUSH1 0x1F DUP10 AND DUP3 PUSH2 0x1A98 JUMP JUMPDEST DUP4 SSTORE POP JUMPDEST PUSH1 0x1 PUSH1 0x2 DUP9 MUL ADD DUP9 SSTORE POP POP POP JUMPDEST POP POP POP POP POP POP JUMP JUMPDEST PUSH1 0x0 PUSH1 0x20 DUP3 ADD SWAP1 POP DUP2 DUP2 SUB PUSH1 0x0 DUP4 ADD MSTORE PUSH2 0x1BBE DUP2 DUP5 PUSH2 0x1237 JUMP JUMPDEST SWAP1 POP SWAP3 SWAP2 POP POP JUMP JUMPDEST PUSH32 0x4D656D62657220616C7265616479206578697374730000000000000000000000 PUSH1 0x0 DUP3 ADD MSTORE POP JUMP JUMPDEST PUSH1 0x0 PUSH2 0x1BFC PUSH1 0x15 DUP4 PUSH2 0x11EB JUMP JUMPDEST SWAP2 POP PUSH2 0x1C07 DUP3 PUSH2 0x1BC6 JUMP JUMPDEST PUSH1 0x20 DUP3 ADD SWAP1 POP SWAP2 SWAP1 POP JUMP JUMPDEST PUSH1 0x0 PUSH1 0x20 DUP3 ADD SWAP1 POP DUP2 DUP2 SUB PUSH1 0x0 DUP4 ADD MSTORE PUSH2 0x1C2B DUP2 PUSH2 0x1BEF JUMP JUMPDEST SWAP1 POP SWAP2 SWAP1 POP JUMP JUMPDEST PUSH1 0x0 PUSH2 0x1C3D DUP3 PUSH2 0x117D JUMP JUMPDEST SWAP2 POP PUSH2 0x1C48 DUP4 PUSH2 0x117D JUMP JUMPDEST SWAP3 POP DUP3 DUP3 ADD SWAP1 POP DUP1 DUP3 GT ISZERO PUSH2 0x1C60 JUMPI PUSH2 0x1C5F PUSH2 0x174E JUMP JUMPDEST JUMPDEST SWAP3 SWAP2 POP POP JUMP JUMPDEST PUSH32 0x596F752073686F756C642062652061206D656D62657220746F20766F74650000 PUSH1 0x0 DUP3 ADD MSTORE POP JUMP JUMPDEST PUSH1 0x0 PUSH2 0x1C9C PUSH1 0x1E DUP4 PUSH2 0x11EB JUMP JUMPDEST SWAP2 POP PUSH2 0x1CA7 DUP3 PUSH2 0x1C66 JUMP JUMPDEST PUSH1 0x20 DUP3 ADD SWAP1 POP SWAP2 SWAP1 POP JUMP JUMPDEST PUSH1 0x0 PUSH1 0x20 DUP3 ADD SWAP1 POP DUP2 DUP2 SUB PUSH1 0x0 DUP4 ADD MSTORE PUSH2 0x1CCB DUP2 PUSH2 0x1C8F JUMP JUMPDEST SWAP1 POP SWAP2 SWAP1 POP JUMP JUMPDEST PUSH32 0x4E6F7420656E6F75676820746F6B656E7320746F20766F746500000000000000 PUSH1 0x0 DUP3 ADD MSTORE POP JUMP JUMPDEST PUSH1 0x0 PUSH2 0x1D08 PUSH1 0x19 DUP4 PUSH2 0x11EB JUMP JUMPDEST SWAP2 POP PUSH2 0x1D13 DUP3 PUSH2 0x1CD2 JUMP JUMPDEST PUSH1 0x20 DUP3 ADD SWAP1 POP SWAP2 SWAP1 POP JUMP JUMPDEST PUSH1 0x0 PUSH1 0x20 DUP3 ADD SWAP1 POP DUP2 DUP2 SUB PUSH1 0x0 DUP4 ADD MSTORE PUSH2 0x1D37 DUP2 PUSH2 0x1CFB JUMP JUMPDEST SWAP1 POP SWAP2 SWAP1 POP JUMP JUMPDEST PUSH32 0x596F75206861766520616C726561647920766F74656420666F72207468697320 PUSH1 0x0 DUP3 ADD MSTORE PUSH32 0x70726F706F73616C000000000000000000000000000000000000000000000000 PUSH1 0x20 DUP3 ADD MSTORE POP JUMP JUMPDEST PUSH1 0x0 PUSH2 0x1D9A PUSH1 0x28 DUP4 PUSH2 0x11EB JUMP JUMPDEST SWAP2 POP PUSH2 0x1DA5 DUP3 PUSH2 0x1D3E JUMP JUMPDEST PUSH1 0x40 DUP3 ADD SWAP1 POP SWAP2 SWAP1 POP JUMP JUMPDEST PUSH1 0x0 PUSH1 0x20 DUP3 ADD SWAP1 POP DUP2 DUP2 SUB PUSH1 0x0 DUP4 ADD MSTORE PUSH2 0x1DC9 DUP2 PUSH2 0x1D8D JUMP JUMPDEST SWAP1 POP SWAP2 SWAP1 POP JUMP INVALID LOG2 PUSH5 0x6970667358 0x22 SLT KECCAK256 DUP3 0xDC 0xA5 0x2F LOG2 MSTORE EXTCODECOPY DUP11 PUSH0 0xBC CREATE PUSH1 0xDE 0xF ISZERO PUSH23 0x972FCF478D0B161DB5949B9BA2E91FA64736F6C634300 ADDMOD EQ STOP CALLER "
				},
				"gasEstimates": {
					"creation": {
						"codeDepositCost": "1537200",
						"executionCost": "25876",
						"totalCost": "1563076"
					},
					"external": {
						"addMember(address)": "infinite",
						"balances(address)": "2903",
						"castVote(uint256,uint256,bool)": "infinite",
						"createProposal(string)": "infinite",
						"executeProposal(uint256)": "41702",
						"isMember(address)": "2867",
						"memberInfo(address)": "infinite",
						"members(uint256)": "4979",
						"owner()": "2559",
						"proposals(uint256)": "infinite",
						"removeMember(address)": "infinite",
						"totalSupply()": "2496",
						"votes(address,uint256)": "3154"
					}
				},
				"methodIdentifiers": {
					"addMember(address)": "ca6d56dc",
					"balances(address)": "27e235e3",
					"castVote(uint256,uint256,bool)": "f9000ba8",
					"createProposal(string)": "49c2a1a6",
					"executeProposal(uint256)": "0d61b519",
					"isMember(address)": "a230c524",
					"memberInfo(address)": "a313c371",
					"members(uint256)": "5daf08ca",
					"owner()": "8da5cb5b",
					"proposals(uint256)": "013cf08b",
					"removeMember(address)": "0b1ca49a",
					"totalSupply()": "18160ddd",
					"votes(address,uint256)": "9f2524ee"
				}
			},
			"storageLayout": {
				"storage": [
					{
						"astId": 22,
						"contract": "contracts/MyFirstDAO.sol:DAO",
						"label": "members",
						"offset": 0,
						"slot": "0",
						"type": "t_array(t_address)dyn_storage"
					},
					{
						"astId": 26,
						"contract": "contracts/MyFirstDAO.sol:DAO",
						"label": "isMember",
						"offset": 0,
						"slot": "1",
						"type": "t_mapping(t_address,t_bool)"
					},
					{
						"astId": 31,
						"contract": "contracts/MyFirstDAO.sol:DAO",
						"label": "memberInfo",
						"offset": 0,
						"slot": "2",
						"type": "t_mapping(t_address,t_struct(Member)19_storage)"
					},
					{
						"astId": 37,
						"contract": "contracts/MyFirstDAO.sol:DAO",
						"label": "votes",
						"offset": 0,
						"slot": "3",
						"type": "t_mapping(t_address,t_mapping(t_uint256,t_bool))"
					},
					{
						"astId": 41,
						"contract": "contracts/MyFirstDAO.sol:DAO",
						"label": "proposals",
						"offset": 0,
						"slot": "4",
						"type": "t_array(t_struct(Proposal)12_storage)dyn_storage"
					},
					{
						"astId": 43,
						"contract": "contracts/MyFirstDAO.sol:DAO",
						"label": "totalSupply",
						"offset": 0,
						"slot": "5",
						"type": "t_uint256"
					},
					{
						"astId": 47,
						"contract": "contracts/MyFirstDAO.sol:DAO",
						"label": "balances",
						"offset": 0,
						"slot": "6",
						"type": "t_mapping(t_address,t_uint256)"
					},
					{
						"astId": 71,
						"contract": "contracts/MyFirstDAO.sol:DAO",
						"label": "owner",
						"offset": 0,
						"slot": "7",
						"type": "t_address"
					}
				],
				"types": {
					"t_address": {
						"encoding": "inplace",
						"label": "address",
						"numberOfBytes": "20"
					},
					"t_array(t_address)dyn_storage": {
						"base": "t_address",
						"encoding": "dynamic_array",
						"label": "address[]",
						"numberOfBytes": "32"
					},
					"t_array(t_struct(Proposal)12_storage)dyn_storage": {
						"base": "t_struct(Proposal)12_storage",
						"encoding": "dynamic_array",
						"label": "struct DAO.Proposal[]",
						"numberOfBytes": "32"
					},
					"t_bool": {
						"encoding": "inplace",
						"label": "bool",
						"numberOfBytes": "1"
					},
					"t_mapping(t_address,t_bool)": {
						"encoding": "mapping",
						"key": "t_address",
						"label": "mapping(address => bool)",
						"numberOfBytes": "32",
						"value": "t_bool"
					},
					"t_mapping(t_address,t_mapping(t_uint256,t_bool))": {
						"encoding": "mapping",
						"key": "t_address",
						"label": "mapping(address => mapping(uint256 => bool))",
						"numberOfBytes": "32",
						"value": "t_mapping(t_uint256,t_bool)"
					},
					"t_mapping(t_address,t_struct(Member)19_storage)": {
						"encoding": "mapping",
						"key": "t_address",
						"label": "mapping(address => struct DAO.Member)",
						"numberOfBytes": "32",
						"value": "t_struct(Member)19_storage"
					},
					"t_mapping(t_address,t_uint256)": {
						"encoding": "mapping",
						"key": "t_address",
						"label": "mapping(address => uint256)",
						"numberOfBytes": "32",
						"value": "t_uint256"
					},
					"t_mapping(t_uint256,t_bool)": {
						"encoding": "mapping",
						"key": "t_uint256",
						"label": "mapping(uint256 => bool)",
						"numberOfBytes": "32",
						"value": "t_bool"
					},
					"t_string_storage": {
						"encoding": "bytes",
						"label": "string",
						"numberOfBytes": "32"
					},
					"t_struct(Member)19_storage": {
						"encoding": "inplace",
						"label": "struct DAO.Member",
						"members": [
							{
								"astId": 14,
								"contract": "contracts/MyFirstDAO.sol:DAO",
								"label": "memberAddress",
								"offset": 0,
								"slot": "0",
								"type": "t_address"
							},
							{
								"astId": 16,
								"contract": "contracts/MyFirstDAO.sol:DAO",
								"label": "memberSince",
								"offset": 0,
								"slot": "1",
								"type": "t_uint256"
							},
							{
								"astId": 18,
								"contract": "contracts/MyFirstDAO.sol:DAO",
								"label": "tokenBalance",
								"offset": 0,
								"slot": "2",
								"type": "t_uint256"
							}
						],
						"numberOfBytes": "96"
					},
					"t_struct(Proposal)12_storage": {
						"encoding": "inplace",
						"label": "struct DAO.Proposal",
						"members": [
							{
								"astId": 3,
								"contract": "contracts/MyFirstDAO.sol:DAO",
								"label": "description",
								"offset": 0,
								"slot": "0",
								"type": "t_string_storage"
							},
							{
								"astId": 5,
								"contract": "contracts/MyFirstDAO.sol:DAO",
								"label": "voteCount",
								"offset": 0,
								"slot": "1",
								"type": "t_uint256"
							},
							{
								"astId": 7,
								"contract": "contracts/MyFirstDAO.sol:DAO",
								"label": "yesVotes",
								"offset": 0,
								"slot": "2",
								"type": "t_uint256"
							},
							{
								"astId": 9,
								"contract": "contracts/MyFirstDAO.sol:DAO",
								"label": "noVotes",
								"offset": 0,
								"slot": "3",
								"type": "t_uint256"
							},
							{
								"astId": 11,
								"contract": "contracts/MyFirstDAO.sol:DAO",
								"label": "executed",
								"offset": 0,
								"slot": "4",
								"type": "t_bool"
							}
						],
						"numberOfBytes": "160"
					},
					"t_uint256": {
						"encoding": "inplace",
						"label": "uint256",
						"numberOfBytes": "32"
					}
				}
			},
			"userdoc": {
				"kind": "user",
				"methods": {},
				"version": 1
			}
		}
	}
}